{"src/contracts/PaymentGateway.sol":{"PaymentGateway":{"abi":[{"anonymous":false,"inputs":[{"indexed":true,"internalType":"string","name":"paymentId","type":"string"},{"indexed":true,"internalType":"bytes32","name":"messageId","type":"bytes32"},{"indexed":false,"internalType":"uint256","name":"mchzAmount","type":"uint256"}],"name":"BridgeInitiated","type":"event"},{"anonymous":false,"inputs":[{"indexed":true,"internalType":"address","name":"previousOwner","type":"address"},{"indexed":true,"internalType":"address","name":"newOwner","type":"address"}],"name":"OwnershipTransferred","type":"event"},{"anonymous":false,"inputs":[{"indexed":true,"internalType":"string","name":"paymentId","type":"string"},{"indexed":true,"internalType":"address","name":"user","type":"address"},{"indexed":true,"internalType":"address","name":"merchant","type":"address"},{"indexed":false,"internalType":"address","name":"paymentToken","type":"address"},{"indexed":false,"internalType":"uint256","name":"paymentAmount","type":"uint256"},{"indexed":false,"internalType":"address","name":"fanToken","type":"address"},{"indexed":false,"internalType":"uint256","name":"fanTokenAmount","type":"uint256"}],"name":"PaymentInitiated","type":"event"},{"anonymous":false,"inputs":[{"indexed":true,"internalType":"string","name":"paymentId","type":"string"},{"indexed":false,"internalType":"uint256","name":"mchzAmount","type":"uint256"}],"name":"SwapCompleted","type":"event"},{"inputs":[{"internalType":"string","name":"paymentId","type":"string"},{"internalType":"address","name":"paymentToken","type":"address"},{"internalType":"uint256","name":"paymentAmount","type":"uint256"},{"internalType":"address","name":"merchant","type":"address"},{"internalType":"address","name":"fanToken","type":"address"},{"internalType":"uint256","name":"fanTokenAmount","type":"uint256"},{"internalType":"uint256","name":"minMchzOut","type":"uint256"}],"name":"executePayment","outputs":[],"stateMutability":"nonpayable","type":"function"},{"inputs":[{"internalType":"string","name":"paymentId","type":"string"}],"name":"getPayment","outputs":[{"components":[{"internalType":"string","name":"paymentId","type":"string"},{"internalType":"address","name":"user","type":"address"},{"internalType":"address","name":"merchant","type":"address"},{"internalType":"address","name":"paymentToken","type":"address"},{"internalType":"uint256","name":"paymentAmount","type":"uint256"},{"internalType":"address","name":"fanToken","type":"address"},{"internalType":"uint256","name":"fanTokenAmount","type":"uint256"},{"internalType":"uint256","name":"mchzAmount","type":"uint256"},{"internalType":"bytes32","name":"hyperlaneMessageId","type":"bytes32"},{"internalType":"bool","name":"completed","type":"bool"}],"internalType":"struct PaymentGateway.Payment","name":"","type":"tuple"}],"stateMutability":"view","type":"function"},{"inputs":[{"internalType":"bytes32","name":"messageId","type":"bytes32"}],"name":"getPaymentByMessageId","outputs":[{"components":[{"internalType":"string","name":"paymentId","type":"string"},{"internalType":"address","name":"user","type":"address"},{"internalType":"address","name":"merchant","type":"address"},{"internalType":"address","name":"paymentToken","type":"address"},{"internalType":"uint256","name":"paymentAmount","type":"uint256"},{"internalType":"address","name":"fanToken","type":"address"},{"internalType":"uint256","name":"fanTokenAmount","type":"uint256"},{"internalType":"uint256","name":"mchzAmount","type":"uint256"},{"internalType":"bytes32","name":"hyperlaneMessageId","type":"bytes32"},{"internalType":"bool","name":"completed","type":"bool"}],"internalType":"struct PaymentGateway.Payment","name":"","type":"tuple"}],"stateMutability":"view","type":"function"},{"inputs":[{"internalType":"address","name":"paymentToken","type":"address"},{"internalType":"uint256","name":"mchzAmountOut","type":"uint256"}],"name":"getQuote","outputs":[{"internalType":"uint256","name":"paymentTokenNeeded","type":"uint256"},{"internalType":"bool","name":"useWethRoute","type":"bool"}],"stateMutability":"view","type":"function"},{"inputs":[{"internalType":"bytes32","name":"","type":"bytes32"}],"name":"messageToPaymentId","outputs":[{"internalType":"string","name":"","type":"string"}],"stateMutability":"view","type":"function"},{"inputs":[],"name":"owner","outputs":[{"internalType":"address","name":"","type":"address"}],"stateMutability":"view","type":"function"},{"inputs":[],"name":"paymentProcessor","outputs":[{"internalType":"address","name":"","type":"address"}],"stateMutability":"view","type":"function"},{"inputs":[{"internalType":"string","name":"","type":"string"}],"name":"payments","outputs":[{"internalType":"string","name":"paymentId","type":"string"},{"internalType":"address","name":"user","type":"address"},{"internalType":"address","name":"merchant","type":"address"},{"internalType":"address","name":"paymentToken","type":"address"},{"internalType":"uint256","name":"paymentAmount","type":"uint256"},{"internalType":"address","name":"fanToken","type":"address"},{"internalType":"uint256","name":"fanTokenAmount","type":"uint256"},{"internalType":"uint256","name":"mchzAmount","type":"uint256"},{"internalType":"bytes32","name":"hyperlaneMessageId","type":"bytes32"},{"internalType":"bool","name":"completed","type":"bool"}],"stateMutability":"view","type":"function"},{"inputs":[{"internalType":"address","name":"tokenA","type":"address"},{"internalType":"address","name":"tokenB","type":"address"}],"name":"poolExists","outputs":[{"internalType":"bool","name":"","type":"bool"}],"stateMutability":"view","type":"function"},{"inputs":[],"name":"renounceOwnership","outputs":[],"stateMutability":"nonpayable","type":"function"},{"inputs":[{"internalType":"address","name":"_paymentProcessor","type":"address"}],"name":"setPaymentProcessor","outputs":[],"stateMutability":"nonpayable","type":"function"},{"inputs":[{"internalType":"address","name":"newOwner","type":"address"}],"name":"transferOwnership","outputs":[],"stateMutability":"nonpayable","type":"function"},{"inputs":[],"name":"withdrawETH","outputs":[],"stateMutability":"nonpayable","type":"function"},{"inputs":[{"internalType":"address","name":"token","type":"address"},{"internalType":"uint256","name":"amount","type":"uint256"}],"name":"withdrawToken","outputs":[],"stateMutability":"nonpayable","type":"function"}],"evm":{"bytecode":{"linkReferences":{},"object":"6080806040523461005e57600160008181558154336001600160a01b0319821681179093556001600160a01b0316907f8be0079c531659141344cd1fd0a4f28419497f9722a3daafe3b4186f6b6457e09080a3611b4090816100648239f35b600080fdfe6080604052600436101561001257600080fd5b60003560e01c8063088b0d7514611332578063552e4e84146112fc578063566a3c7c146112bc5780636b440de214611267578063715018a61461120a57806382c0ab21146111d55780638da5cb5b146111ac5780639e281a98146110e4578063c69207a314610ffa578063e086e5ec14610fb6578063f0a40393146102a8578063f1c6bdf81461027f578063f2fde38b146101bb5763f9468713146100b657600080fd5b346101b65760203660031901126101b65760043567ffffffffffffffff81116101b657366023820112156101b6576101136020610100610180933690602481600401359101611644565b8160405193828580945193849201611542565b810160038152030190206101268161149c565b9060018060a01b0380600183015416918160028201541691806003830154169060048301549060058401541660068401549160078501549360ff6009600888015497015416966040519a8b9a610140808d528c0190611565565b9860208b015260408a01526060890152608088015260a087015260c086015260e085015261010084015215156101208301520390f35b600080fd5b346101b65760203660031901126101b6576101d46113bf565b6101dc61168b565b6001600160a01b0390811690811561022b57600154826001600160601b0360a01b821617600155167f8be0079c531659141344cd1fd0a4f28419497f9722a3daafe3b4186f6b6457e0600080a3005b60405162461bcd60e51b815260206004820152602660248201527f4f776e61626c653a206e6577206f776e657220697320746865207a65726f206160448201526564647265737360d01b6064820152608490fd5b346101b65760003660031901126101b6576002546040516001600160a01b039091168152602090f35b346101b65760e03660031901126101b65760043567ffffffffffffffff81116101b6576102d9903690600401611616565b6102e16113d5565b6064356001600160a01b03811681036101b6576084356001600160a01b03811681036101b657600260005414610f715760026000558315610f37576040518486823760038186019081528190036020019020600101546001600160a01b0316610ef2576001600160a01b038316731c7d4b196cb0c7b01d743fbc6116a902379c7238148015610ecc575b15610e875760443515610e49576001600160a01b03821615610e04576001600160a01b03811615610dbf5760a43515610d7a576002546001600160a01b031615610d35576040516103bb81611425565b6103c6368688611644565b81523360208201526001600160a01b038381166040808401919091528582166060840152604435608084015290831660a083015260a43560c0830152600060e08301819052610100830181905261012083015251858782376020818781016003815203019020815180519067ffffffffffffffff8211610a4e576104548261044e85546113eb565b856116e3565b602090601f8311600114610cc55791806101209492600994600092610cba575b50508160011b916000199060031b1c19161781555b6001810160018060a01b03602086015116906001600160601b0360a01b91828254161790556002820160018060a01b03604087015116828254161790556003820160018060a01b036060870151168282541617905560808501516004830155600582019060018060a01b0360a0870151169082541617905560c0840151600682015560e08401516007820155610100840151600882015501910151151560ff801983541691161790556040518486823760008582019081528190039020604080516001600160a01b03868116825260443560208301529384169181019190915260a4356060820152919092169133917f1972dd5828c90d9d8ad8f12419f78d57c2ef63f450be27e05280d4bada42425190608090a46040516323b872dd60e01b8152336004820152306024820152604480359082015260208160648160006001600160a01b0387165af1908115610a9857600091610c9b575b5015610c565760405163095ea7b360e01b815273c532a74256d3db42d0bf7a0400fefdbad7694008600482015260448035602483015260209082908160006001600160a01b0387165af1908115610a9857600091610c37575b5015610c005760405161064d81611442565b6002815260403660208301376001600160a01b03821661066c8261174f565b5273da1fe1db9b04a810cbb214a294667833e4c8d8f761068b8261175c565b5260405163d06ca61f60e01b8152604435600482015260406024820152600081806106b960448201866117f8565b038173c532a74256d3db42d0bf7a0400fefdbad76940085afa9081610be5575b50610b605750604051906106ec8261145e565b6003825260603660208401376001600160a01b031661070a8261174f565b5273fff9976782d46cc05630d1f6ebab18b2324d6b146107298261175c565b5273da1fe1db9b04a810cbb214a294667833e4c8d8f76107488261176c565b5261012c42014211610b2757600061078291604051809381926338ed173960e01b835261012c420190309060c43560443560048701611835565b03818373c532a74256d3db42d0bf7a0400fefdbad76940085af1908115610a9857600091610b3d575b505b80519081600019810111610b2757805160001983011015610b11576020916000190160051b0101519081600760405183868237602081858101600381520301902001556040518184823780828101600081520390207f3e3806ccf20061002b91d4f4083a8ac93b060d2dd54af8a42400fe0e713b2ea66020604051858152a2610837368285611644565b5060405163095ea7b360e01b815273eb2a0b7aaadd23851c08b963c3f4fbe00b897c04600482015260248101839052602081604481600073da1fe1db9b04a810cbb214a294667833e4c8d8f75af1908115610a9857600091610ae2575b5015610aa45760025460405163206d3a2d60e21b815262015b3260048201526001600160a01b0390911660248201526044810183905292602084606481600073eb2a0b7aaadd23851c08b963c3f4fbe00b897c045af1938415610a9857600094610a64575b508360086040518484823760208186810160038152030190200155836000526004602052604060002067ffffffffffffffff8311610a4e576109458361093f83546113eb565b836116e3565b6000601f84116001146109c2579183917f79797b078516029af81f4b555a8e8090178c741d1853adfd7b87ddff4ef8493f946020946000916109b7575b508360011b906000198560031b1c19161790555b81604051928392833781016000815203902092604051908152a36001600055005b905082013588610982565b601f198416908260005260206000209160005b818110610a365750918593917f79797b078516029af81f4b555a8e8090178c741d1853adfd7b87ddff4ef8493f966020969410610a1c575b5050600183811b019055610996565b830135600019600386901b60f8161c191690558780610a0d565b919260206001819286890135815501940192016109d5565b634e487b7160e01b600052604160045260246000fd5b9093506020813d602011610a90575b81610a806020938361147a565b810103126101b6575192846108f9565b3d9150610a73565b6040513d6000823e3d90fd5b60405162461bcd60e51b8152602060048201526016602482015275109c9a5919d948185c1c1c9bdd985b0819985a5b195960521b6044820152606490fd5b610b04915060203d602011610b0a575b610afc818361147a565b810190611737565b84610894565b503d610af2565b634e487b7160e01b600052603260045260246000fd5b634e487b7160e01b600052601160045260246000fd5b610b5a91503d806000833e610b52818361147a565b81019061177c565b836107ab565b905061012c42014211610b27576000610b9b91604051809381926338ed173960e01b835261012c420190309060c43560443560048701611835565b03818373c532a74256d3db42d0bf7a0400fefdbad76940085af1908115610a9857600091610bca575b506107ad565b610bdf91503d806000833e610b52818361147a565b83610bc4565b610bf9903d806000833e610b52818361147a565b50856106d9565b60405162461bcd60e51b815260206004820152600f60248201526e105c1c1c9bdd985b0819985a5b1959608a1b6044820152606490fd5b610c50915060203d602011610b0a57610afc818361147a565b8461063b565b60405162461bcd60e51b815260206004820152601d60248201527f5061796d656e7420746f6b656e207472616e73666572206661696c65640000006044820152606490fd5b610cb4915060203d602011610b0a57610afc818361147a565b846105e2565b015190508b80610474565b908360005260206000209160005b601f1985168110610d1d575092610120949260019260099583601f19811610610d04575b505050811b018155610489565b015160001960f88460031b161c191690558b8080610cf7565b91926020600181928685015181550194019201610cd3565b60405162461bcd60e51b815260206004820152601960248201527f5061796d656e742070726f636573736f72206e6f7420736574000000000000006044820152606490fd5b60405162461bcd60e51b815260206004820152601860248201527f496e76616c69642066616e20746f6b656e20616d6f756e7400000000000000006044820152606490fd5b60405162461bcd60e51b815260206004820152601960248201527f496e76616c69642066616e20746f6b656e2061646472657373000000000000006044820152606490fd5b60405162461bcd60e51b815260206004820152601860248201527f496e76616c6964206d65726368616e74206164647265737300000000000000006044820152606490fd5b60405162461bcd60e51b8152602060048201526016602482015275125b9d985b1a59081c185e5b595b9d08185b5bdd5b9d60521b6044820152606490fd5b60405162461bcd60e51b815260206004820152601960248201527f556e737570706f72746564207061796d656e7420746f6b656e000000000000006044820152606490fd5b506001600160a01b038316737169d38820dfd117c3fa1f22a697dba58d90ba061461036b565b60405162461bcd60e51b815260206004820152601960248201527f5061796d656e7420494420616c726561647920657869737473000000000000006044820152606490fd5b60405162461bcd60e51b8152602060048201526012602482015271125b9d985b1a59081c185e5b595b9d08125160721b6044820152606490fd5b60405162461bcd60e51b815260206004820152601f60248201527f5265656e7472616e637947756172643a207265656e7472616e742063616c6c006044820152606490fd5b346101b65760003660031901126101b657610fcf61168b565b600080808060018060a01b03600154164790828215610ff1575bf115610a9857005b506108fc610fe9565b346101b65760203660031901126101b65760043567ffffffffffffffff81116101b65760206110306110e0923690600401611616565b919061103a611a06565b508260405193849283378101600381520301902060ff60096040519261105f84611425565b6110688161149c565b845260018060a01b038060018301541660208601528060028301541660408601528060038301541660608601526004820154608086015260058201541660a0850152600681015460c0850152600781015460e0850152600881015461010085015201541615156101208201526040519182918261158a565b0390f35b346101b65760403660031901126101b6576110fd6113bf565b61110561168b565b60015460405163a9059cbb60e01b81526001600160a01b03918216600482015260248035908201529160209183916044918391600091165af1908115610a985760009161118e575b501561115557005b60405162461bcd60e51b815260206004820152601160248201527015da5d1a191c985dd85b0819985a5b1959607a1b6044820152606490fd5b6111a6915060203d8111610b0a57610afc818361147a565b8161114d565b346101b65760003660031901126101b6576001546040516001600160a01b039091168152602090f35b346101b65760403660031901126101b65760406111fc6111f36113bf565b6024359061186e565b825191825215156020820152f35b346101b65760003660031901126101b65761122361168b565b600180546001600160a01b031981169091556000906001600160a01b03167f8be0079c531659141344cd1fd0a4f28419497f9722a3daafe3b4186f6b6457e08280a3005b346101b65760203660031901126101b657611280611a06565b5060043560005260046020526110e06112a16020610100604060002061149c565b8101600381520301902060ff60096040519261105f84611425565b346101b65760203660031901126101b65760043560005260046020526110e06112e8604060002061149c565b604051918291602083526020830190611565565b346101b65760403660031901126101b657602061132861131a6113bf565b6113226113d5565b90611a53565b6040519015158152f35b346101b65760203660031901126101b65761134b6113bf565b61135361168b565b6001600160a01b0316801561137a576001600160601b0360a01b6002541617600255600080f35b60405162461bcd60e51b815260206004820152601960248201527f496e76616c6964207061796d656e742070726f636573736f72000000000000006044820152606490fd5b600435906001600160a01b03821682036101b657565b602435906001600160a01b03821682036101b657565b90600182811c9216801561141b575b602083101461140557565b634e487b7160e01b600052602260045260246000fd5b91607f16916113fa565b610140810190811067ffffffffffffffff821117610a4e57604052565b6060810190811067ffffffffffffffff821117610a4e57604052565b6080810190811067ffffffffffffffff821117610a4e57604052565b90601f8019910116810190811067ffffffffffffffff821117610a4e57604052565b90604051918260008254926114b0846113eb565b90818452600194858116908160001461151f57506001146114dc575b50506114da9250038361147a565b565b9093915060005260209081600020936000915b8183106115075750506114da935082010138806114cc565b855488840185015294850194879450918301916114ef565b9150506114da94506020925060ff191682840152151560051b82010138806114cc565b60005b8381106115555750506000910152565b8181015183820152602001611545565b9060209161157e81518092818552858086019101611542565b601f01601f1916010190565b6020815281516115a861014091826020850152610160840190611565565b9260018060a01b03806020830151166040850152806040830151166060850152806060830151166080850152608082015160a085015260a08201511660c084015260c081015160e084015260e081015161010090818501528101519061012091828501520151151591015290565b9181601f840112156101b65782359167ffffffffffffffff83116101b657602083818601950101116101b657565b92919267ffffffffffffffff8211610a4e576040519161166e601f8201601f19166020018461147a565b8294818452818301116101b6578281602093846000960137010152565b6001546001600160a01b0316330361169f57565b606460405162461bcd60e51b815260206004820152602060248201527f4f776e61626c653a2063616c6c6572206973206e6f7420746865206f776e65726044820152fd5b90601f81116116f157505050565b600091825260208220906020601f850160051c8301941061172d575b601f0160051c01915b82811061172257505050565b818155600101611716565b909250829061170d565b908160209103126101b6575180151581036101b65790565b805115610b115760200190565b805160011015610b115760400190565b805160021015610b115760600190565b9060209081838203126101b657825167ffffffffffffffff938482116101b6570181601f820112156101b6578051938411610a4e578360051b90604051946117c68584018761147a565b855283808601928201019283116101b6578301905b8282106117e9575050505090565b815181529083019083016117db565b90815180825260208080930193019160005b828110611818575050505090565b83516001600160a01b03168552938101939281019260010161180a565b919260809361185a92979695978452602084015260a0604084015260a08301906117f8565b6001600160a01b0390951660608201520152565b604080516118ee94939261188182611442565b60028252823660208401376118958261174f565b6001600160a01b039091169081905273da1fe1db9b04a810cbb214a294667833e4c8d8f7806118c38461175c565b528351946307c0329d60e21b808752816004880152856024880152866000998a9660448301906117f8565b0392858873c532a74256d3db42d0bf7a0400fefdbad76940089581875afa809887996119ea575b506119d5578661198b979850519461192c8661145e565b6003865260603660208801376119418661174f565b5273fff9976782d46cc05630d1f6ebab18b2324d6b146119608661175c565b5261196a8561176c565b528651958694859384938452600484015288602484015260448301906117f8565b03915afa9182156119cc5750836119aa9394926119b1575b505061174f565b5190600190565b6119c592503d8091833e610b52818361147a565b38806119a3565b513d85823e3d90fd5b505050505050506119e59061174f565b519190565b6119ff9199503d8089833e610b52818361147a565b9738611915565b60405190611a1382611425565b81606081526101206000918260208201528260408201528260608201528260808201528260a08201528260c08201528260e0820152826101008201520152565b604051611ac092600092611a6683611442565b600283526040366020850137611a7b8361174f565b6001600160a01b039182169052611a918361175c565b911690526040518093819263d06ca61f60e01b8352620f424060048401526040602484015260448301906117f8565b038173c532a74256d3db42d0bf7a0400fefdbad76940085afa9081611aef575b50611aea57600090565b600190565b611b03903d806000833e610b52818361147a565b5038611ae056fea2646970667358221220fd01552aafe5c63cb8c27335ab23359ad370ec717105f163e36180a2b86c7a5364736f6c63430008130033","opcodes":"PUSH1 0x80 DUP1 PUSH1 0x40 MSTORE CALLVALUE PUSH2 0x5E JUMPI PUSH1 0x1 PUSH1 0x0 DUP2 DUP2 SSTORE DUP2 SLOAD CALLER PUSH1 0x1 PUSH1 0x1 PUSH1 0xA0 SHL SUB NOT DUP3 AND DUP2 OR SWAP1 SWAP4 SSTORE PUSH1 0x1 PUSH1 0x1 PUSH1 0xA0 SHL SUB AND SWAP1 PUSH32 0x8BE0079C531659141344CD1FD0A4F28419497F9722A3DAAFE3B4186F6B6457E0 SWAP1 DUP1 LOG3 PUSH2 0x1B40 SWAP1 DUP2 PUSH2 0x64 DUP3 CODECOPY RETURN JUMPDEST PUSH1 0x0 DUP1 REVERT INVALID PUSH1 0x80 PUSH1 0x40 MSTORE PUSH1 0x4 CALLDATASIZE LT ISZERO PUSH2 0x12 JUMPI PUSH1 0x0 DUP1 REVERT JUMPDEST PUSH1 0x0 CALLDATALOAD PUSH1 0xE0 SHR DUP1 PUSH4 0x88B0D75 EQ PUSH2 0x1332 JUMPI DUP1 PUSH4 0x552E4E84 EQ PUSH2 0x12FC JUMPI DUP1 PUSH4 0x566A3C7C EQ PUSH2 0x12BC JUMPI DUP1 PUSH4 0x6B440DE2 EQ PUSH2 0x1267 JUMPI DUP1 PUSH4 0x715018A6 EQ PUSH2 0x120A JUMPI DUP1 PUSH4 0x82C0AB21 EQ PUSH2 0x11D5 JUMPI DUP1 PUSH4 0x8DA5CB5B EQ PUSH2 0x11AC JUMPI DUP1 PUSH4 0x9E281A98 EQ PUSH2 0x10E4 JUMPI DUP1 PUSH4 0xC69207A3 EQ PUSH2 0xFFA JUMPI DUP1 PUSH4 0xE086E5EC EQ PUSH2 0xFB6 JUMPI DUP1 PUSH4 0xF0A40393 EQ PUSH2 0x2A8 JUMPI DUP1 PUSH4 0xF1C6BDF8 EQ PUSH2 0x27F JUMPI DUP1 PUSH4 0xF2FDE38B EQ PUSH2 0x1BB JUMPI PUSH4 0xF9468713 EQ PUSH2 0xB6 JUMPI PUSH1 0x0 DUP1 REVERT JUMPDEST CALLVALUE PUSH2 0x1B6 JUMPI PUSH1 0x20 CALLDATASIZE PUSH1 0x3 NOT ADD SLT PUSH2 0x1B6 JUMPI PUSH1 0x4 CALLDATALOAD PUSH8 0xFFFFFFFFFFFFFFFF DUP2 GT PUSH2 0x1B6 JUMPI CALLDATASIZE PUSH1 0x23 DUP3 ADD SLT ISZERO PUSH2 0x1B6 JUMPI PUSH2 0x113 PUSH1 0x20 PUSH2 0x100 PUSH2 0x180 SWAP4 CALLDATASIZE SWAP1 PUSH1 0x24 DUP2 PUSH1 0x4 ADD CALLDATALOAD SWAP2 ADD PUSH2 0x1644 JUMP JUMPDEST DUP2 PUSH1 0x40 MLOAD SWAP4 DUP3 DUP6 DUP1 SWAP5 MLOAD SWAP4 DUP5 SWAP3 ADD PUSH2 0x1542 JUMP JUMPDEST DUP2 ADD PUSH1 0x3 DUP2 MSTORE SUB ADD SWAP1 KECCAK256 PUSH2 0x126 DUP2 PUSH2 0x149C JUMP JUMPDEST SWAP1 PUSH1 0x1 DUP1 PUSH1 0xA0 SHL SUB DUP1 PUSH1 0x1 DUP4 ADD SLOAD AND SWAP2 DUP2 PUSH1 0x2 DUP3 ADD SLOAD AND SWAP2 DUP1 PUSH1 0x3 DUP4 ADD SLOAD AND SWAP1 PUSH1 0x4 DUP4 ADD SLOAD SWAP1 PUSH1 0x5 DUP5 ADD SLOAD AND PUSH1 0x6 DUP5 ADD SLOAD SWAP2 PUSH1 0x7 DUP6 ADD SLOAD SWAP4 PUSH1 0xFF PUSH1 0x9 PUSH1 0x8 DUP9 ADD SLOAD SWAP8 ADD SLOAD AND SWAP7 PUSH1 0x40 MLOAD SWAP11 DUP12 SWAP11 PUSH2 0x140 DUP1 DUP14 MSTORE DUP13 ADD SWAP1 PUSH2 0x1565 JUMP JUMPDEST SWAP9 PUSH1 0x20 DUP12 ADD MSTORE PUSH1 0x40 DUP11 ADD MSTORE PUSH1 0x60 DUP10 ADD MSTORE PUSH1 0x80 DUP9 ADD MSTORE PUSH1 0xA0 DUP8 ADD MSTORE PUSH1 0xC0 DUP7 ADD MSTORE PUSH1 0xE0 DUP6 ADD MSTORE PUSH2 0x100 DUP5 ADD MSTORE ISZERO ISZERO PUSH2 0x120 DUP4 ADD MSTORE SUB SWAP1 RETURN JUMPDEST PUSH1 0x0 DUP1 REVERT JUMPDEST CALLVALUE PUSH2 0x1B6 JUMPI PUSH1 0x20 CALLDATASIZE PUSH1 0x3 NOT ADD SLT PUSH2 0x1B6 JUMPI PUSH2 0x1D4 PUSH2 0x13BF JUMP JUMPDEST PUSH2 0x1DC PUSH2 0x168B JUMP JUMPDEST PUSH1 0x1 PUSH1 0x1 PUSH1 0xA0 SHL SUB SWAP1 DUP2 AND SWAP1 DUP2 ISZERO PUSH2 0x22B JUMPI PUSH1 0x1 SLOAD DUP3 PUSH1 0x1 PUSH1 0x1 PUSH1 0x60 SHL SUB PUSH1 0xA0 SHL DUP3 AND OR PUSH1 0x1 SSTORE AND PUSH32 0x8BE0079C531659141344CD1FD0A4F28419497F9722A3DAAFE3B4186F6B6457E0 PUSH1 0x0 DUP1 LOG3 STOP JUMPDEST PUSH1 0x40 MLOAD PUSH3 0x461BCD PUSH1 0xE5 SHL DUP2 MSTORE PUSH1 0x20 PUSH1 0x4 DUP3 ADD MSTORE PUSH1 0x26 PUSH1 0x24 DUP3 ADD MSTORE PUSH32 0x4F776E61626C653A206E6577206F776E657220697320746865207A65726F2061 PUSH1 0x44 DUP3 ADD MSTORE PUSH6 0x646472657373 PUSH1 0xD0 SHL PUSH1 0x64 DUP3 ADD MSTORE PUSH1 0x84 SWAP1 REVERT JUMPDEST CALLVALUE PUSH2 0x1B6 JUMPI PUSH1 0x0 CALLDATASIZE PUSH1 0x3 NOT ADD SLT PUSH2 0x1B6 JUMPI PUSH1 0x2 SLOAD PUSH1 0x40 MLOAD PUSH1 0x1 PUSH1 0x1 PUSH1 0xA0 SHL SUB SWAP1 SWAP2 AND DUP2 MSTORE PUSH1 0x20 SWAP1 RETURN JUMPDEST CALLVALUE PUSH2 0x1B6 JUMPI PUSH1 0xE0 CALLDATASIZE PUSH1 0x3 NOT ADD SLT PUSH2 0x1B6 JUMPI PUSH1 0x4 CALLDATALOAD PUSH8 0xFFFFFFFFFFFFFFFF DUP2 GT PUSH2 0x1B6 JUMPI PUSH2 0x2D9 SWAP1 CALLDATASIZE SWAP1 PUSH1 0x4 ADD PUSH2 0x1616 JUMP JUMPDEST PUSH2 0x2E1 PUSH2 0x13D5 JUMP JUMPDEST PUSH1 0x64 CALLDATALOAD PUSH1 0x1 PUSH1 0x1 PUSH1 0xA0 SHL SUB DUP2 AND DUP2 SUB PUSH2 0x1B6 JUMPI PUSH1 0x84 CALLDATALOAD PUSH1 0x1 PUSH1 0x1 PUSH1 0xA0 SHL SUB DUP2 AND DUP2 SUB PUSH2 0x1B6 JUMPI PUSH1 0x2 PUSH1 0x0 SLOAD EQ PUSH2 0xF71 JUMPI PUSH1 0x2 PUSH1 0x0 SSTORE DUP4 ISZERO PUSH2 0xF37 JUMPI PUSH1 0x40 MLOAD DUP5 DUP7 DUP3 CALLDATACOPY PUSH1 0x3 DUP2 DUP7 ADD SWAP1 DUP2 MSTORE DUP2 SWAP1 SUB PUSH1 0x20 ADD SWAP1 KECCAK256 PUSH1 0x1 ADD SLOAD PUSH1 0x1 PUSH1 0x1 PUSH1 0xA0 SHL SUB AND PUSH2 0xEF2 JUMPI PUSH1 0x1 PUSH1 0x1 PUSH1 0xA0 SHL SUB DUP4 AND PUSH20 0x1C7D4B196CB0C7B01D743FBC6116A902379C7238 EQ DUP1 ISZERO PUSH2 0xECC JUMPI JUMPDEST ISZERO PUSH2 0xE87 JUMPI PUSH1 0x44 CALLDATALOAD ISZERO PUSH2 0xE49 JUMPI PUSH1 0x1 PUSH1 0x1 PUSH1 0xA0 SHL SUB DUP3 AND ISZERO PUSH2 0xE04 JUMPI PUSH1 0x1 PUSH1 0x1 PUSH1 0xA0 SHL SUB DUP2 AND ISZERO PUSH2 0xDBF JUMPI PUSH1 0xA4 CALLDATALOAD ISZERO PUSH2 0xD7A JUMPI PUSH1 0x2 SLOAD PUSH1 0x1 PUSH1 0x1 PUSH1 0xA0 SHL SUB AND ISZERO PUSH2 0xD35 JUMPI PUSH1 0x40 MLOAD PUSH2 0x3BB DUP2 PUSH2 0x1425 JUMP JUMPDEST PUSH2 0x3C6 CALLDATASIZE DUP7 DUP9 PUSH2 0x1644 JUMP JUMPDEST DUP2 MSTORE CALLER PUSH1 0x20 DUP3 ADD MSTORE PUSH1 0x1 PUSH1 0x1 PUSH1 0xA0 SHL SUB DUP4 DUP2 AND PUSH1 0x40 DUP1 DUP5 ADD SWAP2 SWAP1 SWAP2 MSTORE DUP6 DUP3 AND PUSH1 0x60 DUP5 ADD MSTORE PUSH1 0x44 CALLDATALOAD PUSH1 0x80 DUP5 ADD MSTORE SWAP1 DUP4 AND PUSH1 0xA0 DUP4 ADD MSTORE PUSH1 0xA4 CALLDATALOAD PUSH1 0xC0 DUP4 ADD MSTORE PUSH1 0x0 PUSH1 0xE0 DUP4 ADD DUP2 SWAP1 MSTORE PUSH2 0x100 DUP4 ADD DUP2 SWAP1 MSTORE PUSH2 0x120 DUP4 ADD MSTORE MLOAD DUP6 DUP8 DUP3 CALLDATACOPY PUSH1 0x20 DUP2 DUP8 DUP2 ADD PUSH1 0x3 DUP2 MSTORE SUB ADD SWAP1 KECCAK256 DUP2 MLOAD DUP1 MLOAD SWAP1 PUSH8 0xFFFFFFFFFFFFFFFF DUP3 GT PUSH2 0xA4E JUMPI PUSH2 0x454 DUP3 PUSH2 0x44E DUP6 SLOAD PUSH2 0x13EB JUMP JUMPDEST DUP6 PUSH2 0x16E3 JUMP JUMPDEST PUSH1 0x20 SWAP1 PUSH1 0x1F DUP4 GT PUSH1 0x1 EQ PUSH2 0xCC5 JUMPI SWAP2 DUP1 PUSH2 0x120 SWAP5 SWAP3 PUSH1 0x9 SWAP5 PUSH1 0x0 SWAP3 PUSH2 0xCBA JUMPI JUMPDEST POP POP DUP2 PUSH1 0x1 SHL SWAP2 PUSH1 0x0 NOT SWAP1 PUSH1 0x3 SHL SHR NOT AND OR DUP2 SSTORE JUMPDEST PUSH1 0x1 DUP2 ADD PUSH1 0x1 DUP1 PUSH1 0xA0 SHL SUB PUSH1 0x20 DUP7 ADD MLOAD AND SWAP1 PUSH1 0x1 PUSH1 0x1 PUSH1 0x60 SHL SUB PUSH1 0xA0 SHL SWAP2 DUP3 DUP3 SLOAD AND OR SWAP1 SSTORE PUSH1 0x2 DUP3 ADD PUSH1 0x1 DUP1 PUSH1 0xA0 SHL SUB PUSH1 0x40 DUP8 ADD MLOAD AND DUP3 DUP3 SLOAD AND OR SWAP1 SSTORE PUSH1 0x3 DUP3 ADD PUSH1 0x1 DUP1 PUSH1 0xA0 SHL SUB PUSH1 0x60 DUP8 ADD MLOAD AND DUP3 DUP3 SLOAD AND OR SWAP1 SSTORE PUSH1 0x80 DUP6 ADD MLOAD PUSH1 0x4 DUP4 ADD SSTORE PUSH1 0x5 DUP3 ADD SWAP1 PUSH1 0x1 DUP1 PUSH1 0xA0 SHL SUB PUSH1 0xA0 DUP8 ADD MLOAD AND SWAP1 DUP3 SLOAD AND OR SWAP1 SSTORE PUSH1 0xC0 DUP5 ADD MLOAD PUSH1 0x6 DUP3 ADD SSTORE PUSH1 0xE0 DUP5 ADD MLOAD PUSH1 0x7 DUP3 ADD SSTORE PUSH2 0x100 DUP5 ADD MLOAD PUSH1 0x8 DUP3 ADD SSTORE ADD SWAP2 ADD MLOAD ISZERO ISZERO PUSH1 0xFF DUP1 NOT DUP4 SLOAD AND SWAP2 AND OR SWAP1 SSTORE PUSH1 0x40 MLOAD DUP5 DUP7 DUP3 CALLDATACOPY PUSH1 0x0 DUP6 DUP3 ADD SWAP1 DUP2 MSTORE DUP2 SWAP1 SUB SWAP1 KECCAK256 PUSH1 0x40 DUP1 MLOAD PUSH1 0x1 PUSH1 0x1 PUSH1 0xA0 SHL SUB DUP7 DUP2 AND DUP3 MSTORE PUSH1 0x44 CALLDATALOAD PUSH1 0x20 DUP4 ADD MSTORE SWAP4 DUP5 AND SWAP2 DUP2 ADD SWAP2 SWAP1 SWAP2 MSTORE PUSH1 0xA4 CALLDATALOAD PUSH1 0x60 DUP3 ADD MSTORE SWAP2 SWAP1 SWAP3 AND SWAP2 CALLER SWAP2 PUSH32 0x1972DD5828C90D9D8AD8F12419F78D57C2EF63F450BE27E05280D4BADA424251 SWAP1 PUSH1 0x80 SWAP1 LOG4 PUSH1 0x40 MLOAD PUSH4 0x23B872DD PUSH1 0xE0 SHL DUP2 MSTORE CALLER PUSH1 0x4 DUP3 ADD MSTORE ADDRESS PUSH1 0x24 DUP3 ADD MSTORE PUSH1 0x44 DUP1 CALLDATALOAD SWAP1 DUP3 ADD MSTORE PUSH1 0x20 DUP2 PUSH1 0x64 DUP2 PUSH1 0x0 PUSH1 0x1 PUSH1 0x1 PUSH1 0xA0 SHL SUB DUP8 AND GAS CALL SWAP1 DUP2 ISZERO PUSH2 0xA98 JUMPI PUSH1 0x0 SWAP2 PUSH2 0xC9B JUMPI JUMPDEST POP ISZERO PUSH2 0xC56 JUMPI PUSH1 0x40 MLOAD PUSH4 0x95EA7B3 PUSH1 0xE0 SHL DUP2 MSTORE PUSH20 0xC532A74256D3DB42D0BF7A0400FEFDBAD7694008 PUSH1 0x4 DUP3 ADD MSTORE PUSH1 0x44 DUP1 CALLDATALOAD PUSH1 0x24 DUP4 ADD MSTORE PUSH1 0x20 SWAP1 DUP3 SWAP1 DUP2 PUSH1 0x0 PUSH1 0x1 PUSH1 0x1 PUSH1 0xA0 SHL SUB DUP8 AND GAS CALL SWAP1 DUP2 ISZERO PUSH2 0xA98 JUMPI PUSH1 0x0 SWAP2 PUSH2 0xC37 JUMPI JUMPDEST POP ISZERO PUSH2 0xC00 JUMPI PUSH1 0x40 MLOAD PUSH2 0x64D DUP2 PUSH2 0x1442 JUMP JUMPDEST PUSH1 0x2 DUP2 MSTORE PUSH1 0x40 CALLDATASIZE PUSH1 0x20 DUP4 ADD CALLDATACOPY PUSH1 0x1 PUSH1 0x1 PUSH1 0xA0 SHL SUB DUP3 AND PUSH2 0x66C DUP3 PUSH2 0x174F JUMP JUMPDEST MSTORE PUSH20 0xDA1FE1DB9B04A810CBB214A294667833E4C8D8F7 PUSH2 0x68B DUP3 PUSH2 0x175C JUMP JUMPDEST MSTORE PUSH1 0x40 MLOAD PUSH4 0xD06CA61F PUSH1 0xE0 SHL DUP2 MSTORE PUSH1 0x44 CALLDATALOAD PUSH1 0x4 DUP3 ADD MSTORE PUSH1 0x40 PUSH1 0x24 DUP3 ADD MSTORE PUSH1 0x0 DUP2 DUP1 PUSH2 0x6B9 PUSH1 0x44 DUP3 ADD DUP7 PUSH2 0x17F8 JUMP JUMPDEST SUB DUP2 PUSH20 0xC532A74256D3DB42D0BF7A0400FEFDBAD7694008 GAS STATICCALL SWAP1 DUP2 PUSH2 0xBE5 JUMPI JUMPDEST POP PUSH2 0xB60 JUMPI POP PUSH1 0x40 MLOAD SWAP1 PUSH2 0x6EC DUP3 PUSH2 0x145E JUMP JUMPDEST PUSH1 0x3 DUP3 MSTORE PUSH1 0x60 CALLDATASIZE PUSH1 0x20 DUP5 ADD CALLDATACOPY PUSH1 0x1 PUSH1 0x1 PUSH1 0xA0 SHL SUB AND PUSH2 0x70A DUP3 PUSH2 0x174F JUMP JUMPDEST MSTORE PUSH20 0xFFF9976782D46CC05630D1F6EBAB18B2324D6B14 PUSH2 0x729 DUP3 PUSH2 0x175C JUMP JUMPDEST MSTORE PUSH20 0xDA1FE1DB9B04A810CBB214A294667833E4C8D8F7 PUSH2 0x748 DUP3 PUSH2 0x176C JUMP JUMPDEST MSTORE PUSH2 0x12C TIMESTAMP ADD TIMESTAMP GT PUSH2 0xB27 JUMPI PUSH1 0x0 PUSH2 0x782 SWAP2 PUSH1 0x40 MLOAD DUP1 SWAP4 DUP2 SWAP3 PUSH4 0x38ED1739 PUSH1 0xE0 SHL DUP4 MSTORE PUSH2 0x12C TIMESTAMP ADD SWAP1 ADDRESS SWAP1 PUSH1 0xC4 CALLDATALOAD PUSH1 0x44 CALLDATALOAD PUSH1 0x4 DUP8 ADD PUSH2 0x1835 JUMP JUMPDEST SUB DUP2 DUP4 PUSH20 0xC532A74256D3DB42D0BF7A0400FEFDBAD7694008 GAS CALL SWAP1 DUP2 ISZERO PUSH2 0xA98 JUMPI PUSH1 0x0 SWAP2 PUSH2 0xB3D JUMPI JUMPDEST POP JUMPDEST DUP1 MLOAD SWAP1 DUP2 PUSH1 0x0 NOT DUP2 ADD GT PUSH2 0xB27 JUMPI DUP1 MLOAD PUSH1 0x0 NOT DUP4 ADD LT ISZERO PUSH2 0xB11 JUMPI PUSH1 0x20 SWAP2 PUSH1 0x0 NOT ADD PUSH1 0x5 SHL ADD ADD MLOAD SWAP1 DUP2 PUSH1 0x7 PUSH1 0x40 MLOAD DUP4 DUP7 DUP3 CALLDATACOPY PUSH1 0x20 DUP2 DUP6 DUP2 ADD PUSH1 0x3 DUP2 MSTORE SUB ADD SWAP1 KECCAK256 ADD SSTORE PUSH1 0x40 MLOAD DUP2 DUP5 DUP3 CALLDATACOPY DUP1 DUP3 DUP2 ADD PUSH1 0x0 DUP2 MSTORE SUB SWAP1 KECCAK256 PUSH32 0x3E3806CCF20061002B91D4F4083A8AC93B060D2DD54AF8A42400FE0E713B2EA6 PUSH1 0x20 PUSH1 0x40 MLOAD DUP6 DUP2 MSTORE LOG2 PUSH2 0x837 CALLDATASIZE DUP3 DUP6 PUSH2 0x1644 JUMP JUMPDEST POP PUSH1 0x40 MLOAD PUSH4 0x95EA7B3 PUSH1 0xE0 SHL DUP2 MSTORE PUSH20 0xEB2A0B7AAADD23851C08B963C3F4FBE00B897C04 PUSH1 0x4 DUP3 ADD MSTORE PUSH1 0x24 DUP2 ADD DUP4 SWAP1 MSTORE PUSH1 0x20 DUP2 PUSH1 0x44 DUP2 PUSH1 0x0 PUSH20 0xDA1FE1DB9B04A810CBB214A294667833E4C8D8F7 GAS CALL SWAP1 DUP2 ISZERO PUSH2 0xA98 JUMPI PUSH1 0x0 SWAP2 PUSH2 0xAE2 JUMPI JUMPDEST POP ISZERO PUSH2 0xAA4 JUMPI PUSH1 0x2 SLOAD PUSH1 0x40 MLOAD PUSH4 0x206D3A2D PUSH1 0xE2 SHL DUP2 MSTORE PUSH3 0x15B32 PUSH1 0x4 DUP3 ADD MSTORE PUSH1 0x1 PUSH1 0x1 PUSH1 0xA0 SHL SUB SWAP1 SWAP2 AND PUSH1 0x24 DUP3 ADD MSTORE PUSH1 0x44 DUP2 ADD DUP4 SWAP1 MSTORE SWAP3 PUSH1 0x20 DUP5 PUSH1 0x64 DUP2 PUSH1 0x0 PUSH20 0xEB2A0B7AAADD23851C08B963C3F4FBE00B897C04 GAS CALL SWAP4 DUP5 ISZERO PUSH2 0xA98 JUMPI PUSH1 0x0 SWAP5 PUSH2 0xA64 JUMPI JUMPDEST POP DUP4 PUSH1 0x8 PUSH1 0x40 MLOAD DUP5 DUP5 DUP3 CALLDATACOPY PUSH1 0x20 DUP2 DUP7 DUP2 ADD PUSH1 0x3 DUP2 MSTORE SUB ADD SWAP1 KECCAK256 ADD SSTORE DUP4 PUSH1 0x0 MSTORE PUSH1 0x4 PUSH1 0x20 MSTORE PUSH1 0x40 PUSH1 0x0 KECCAK256 PUSH8 0xFFFFFFFFFFFFFFFF DUP4 GT PUSH2 0xA4E JUMPI PUSH2 0x945 DUP4 PUSH2 0x93F DUP4 SLOAD PUSH2 0x13EB JUMP JUMPDEST DUP4 PUSH2 0x16E3 JUMP JUMPDEST PUSH1 0x0 PUSH1 0x1F DUP5 GT PUSH1 0x1 EQ PUSH2 0x9C2 JUMPI SWAP2 DUP4 SWAP2 PUSH32 0x79797B078516029AF81F4B555A8E8090178C741D1853ADFD7B87DDFF4EF8493F SWAP5 PUSH1 0x20 SWAP5 PUSH1 0x0 SWAP2 PUSH2 0x9B7 JUMPI JUMPDEST POP DUP4 PUSH1 0x1 SHL SWAP1 PUSH1 0x0 NOT DUP6 PUSH1 0x3 SHL SHR NOT AND OR SWAP1 SSTORE JUMPDEST DUP2 PUSH1 0x40 MLOAD SWAP3 DUP4 SWAP3 DUP4 CALLDATACOPY DUP2 ADD PUSH1 0x0 DUP2 MSTORE SUB SWAP1 KECCAK256 SWAP3 PUSH1 0x40 MLOAD SWAP1 DUP2 MSTORE LOG3 PUSH1 0x1 PUSH1 0x0 SSTORE STOP JUMPDEST SWAP1 POP DUP3 ADD CALLDATALOAD DUP9 PUSH2 0x982 JUMP JUMPDEST PUSH1 0x1F NOT DUP5 AND SWAP1 DUP3 PUSH1 0x0 MSTORE PUSH1 0x20 PUSH1 0x0 KECCAK256 SWAP2 PUSH1 0x0 JUMPDEST DUP2 DUP2 LT PUSH2 0xA36 JUMPI POP SWAP2 DUP6 SWAP4 SWAP2 PUSH32 0x79797B078516029AF81F4B555A8E8090178C741D1853ADFD7B87DDFF4EF8493F SWAP7 PUSH1 0x20 SWAP7 SWAP5 LT PUSH2 0xA1C JUMPI JUMPDEST POP POP PUSH1 0x1 DUP4 DUP2 SHL ADD SWAP1 SSTORE PUSH2 0x996 JUMP JUMPDEST DUP4 ADD CALLDATALOAD PUSH1 0x0 NOT PUSH1 0x3 DUP7 SWAP1 SHL PUSH1 0xF8 AND SHR NOT AND SWAP1 SSTORE DUP8 DUP1 PUSH2 0xA0D JUMP JUMPDEST SWAP2 SWAP3 PUSH1 0x20 PUSH1 0x1 DUP2 SWAP3 DUP7 DUP10 ADD CALLDATALOAD DUP2 SSTORE ADD SWAP5 ADD SWAP3 ADD PUSH2 0x9D5 JUMP JUMPDEST PUSH4 0x4E487B71 PUSH1 0xE0 SHL PUSH1 0x0 MSTORE PUSH1 0x41 PUSH1 0x4 MSTORE PUSH1 0x24 PUSH1 0x0 REVERT JUMPDEST SWAP1 SWAP4 POP PUSH1 0x20 DUP2 RETURNDATASIZE PUSH1 0x20 GT PUSH2 0xA90 JUMPI JUMPDEST DUP2 PUSH2 0xA80 PUSH1 0x20 SWAP4 DUP4 PUSH2 0x147A JUMP JUMPDEST DUP2 ADD SUB SLT PUSH2 0x1B6 JUMPI MLOAD SWAP3 DUP5 PUSH2 0x8F9 JUMP JUMPDEST RETURNDATASIZE SWAP2 POP PUSH2 0xA73 JUMP JUMPDEST PUSH1 0x40 MLOAD RETURNDATASIZE PUSH1 0x0 DUP3 RETURNDATACOPY RETURNDATASIZE SWAP1 REVERT JUMPDEST PUSH1 0x40 MLOAD PUSH3 0x461BCD PUSH1 0xE5 SHL DUP2 MSTORE PUSH1 0x20 PUSH1 0x4 DUP3 ADD MSTORE PUSH1 0x16 PUSH1 0x24 DUP3 ADD MSTORE PUSH22 0x109C9A5919D948185C1C1C9BDD985B0819985A5B1959 PUSH1 0x52 SHL PUSH1 0x44 DUP3 ADD MSTORE PUSH1 0x64 SWAP1 REVERT JUMPDEST PUSH2 0xB04 SWAP2 POP PUSH1 0x20 RETURNDATASIZE PUSH1 0x20 GT PUSH2 0xB0A JUMPI JUMPDEST PUSH2 0xAFC DUP2 DUP4 PUSH2 0x147A JUMP JUMPDEST DUP2 ADD SWAP1 PUSH2 0x1737 JUMP JUMPDEST DUP5 PUSH2 0x894 JUMP JUMPDEST POP RETURNDATASIZE PUSH2 0xAF2 JUMP JUMPDEST PUSH4 0x4E487B71 PUSH1 0xE0 SHL PUSH1 0x0 MSTORE PUSH1 0x32 PUSH1 0x4 MSTORE PUSH1 0x24 PUSH1 0x0 REVERT JUMPDEST PUSH4 0x4E487B71 PUSH1 0xE0 SHL PUSH1 0x0 MSTORE PUSH1 0x11 PUSH1 0x4 MSTORE PUSH1 0x24 PUSH1 0x0 REVERT JUMPDEST PUSH2 0xB5A SWAP2 POP RETURNDATASIZE DUP1 PUSH1 0x0 DUP4 RETURNDATACOPY PUSH2 0xB52 DUP2 DUP4 PUSH2 0x147A JUMP JUMPDEST DUP2 ADD SWAP1 PUSH2 0x177C JUMP JUMPDEST DUP4 PUSH2 0x7AB JUMP JUMPDEST SWAP1 POP PUSH2 0x12C TIMESTAMP ADD TIMESTAMP GT PUSH2 0xB27 JUMPI PUSH1 0x0 PUSH2 0xB9B SWAP2 PUSH1 0x40 MLOAD DUP1 SWAP4 DUP2 SWAP3 PUSH4 0x38ED1739 PUSH1 0xE0 SHL DUP4 MSTORE PUSH2 0x12C TIMESTAMP ADD SWAP1 ADDRESS SWAP1 PUSH1 0xC4 CALLDATALOAD PUSH1 0x44 CALLDATALOAD PUSH1 0x4 DUP8 ADD PUSH2 0x1835 JUMP JUMPDEST SUB DUP2 DUP4 PUSH20 0xC532A74256D3DB42D0BF7A0400FEFDBAD7694008 GAS CALL SWAP1 DUP2 ISZERO PUSH2 0xA98 JUMPI PUSH1 0x0 SWAP2 PUSH2 0xBCA JUMPI JUMPDEST POP PUSH2 0x7AD JUMP JUMPDEST PUSH2 0xBDF SWAP2 POP RETURNDATASIZE DUP1 PUSH1 0x0 DUP4 RETURNDATACOPY PUSH2 0xB52 DUP2 DUP4 PUSH2 0x147A JUMP JUMPDEST DUP4 PUSH2 0xBC4 JUMP JUMPDEST PUSH2 0xBF9 SWAP1 RETURNDATASIZE DUP1 PUSH1 0x0 DUP4 RETURNDATACOPY PUSH2 0xB52 DUP2 DUP4 PUSH2 0x147A JUMP JUMPDEST POP DUP6 PUSH2 0x6D9 JUMP JUMPDEST PUSH1 0x40 MLOAD PUSH3 0x461BCD PUSH1 0xE5 SHL DUP2 MSTORE PUSH1 0x20 PUSH1 0x4 DUP3 ADD MSTORE PUSH1 0xF PUSH1 0x24 DUP3 ADD MSTORE PUSH15 0x105C1C1C9BDD985B0819985A5B1959 PUSH1 0x8A SHL PUSH1 0x44 DUP3 ADD MSTORE PUSH1 0x64 SWAP1 REVERT JUMPDEST PUSH2 0xC50 SWAP2 POP PUSH1 0x20 RETURNDATASIZE PUSH1 0x20 GT PUSH2 0xB0A JUMPI PUSH2 0xAFC DUP2 DUP4 PUSH2 0x147A JUMP JUMPDEST DUP5 PUSH2 0x63B JUMP JUMPDEST PUSH1 0x40 MLOAD PUSH3 0x461BCD PUSH1 0xE5 SHL DUP2 MSTORE PUSH1 0x20 PUSH1 0x4 DUP3 ADD MSTORE PUSH1 0x1D PUSH1 0x24 DUP3 ADD MSTORE PUSH32 0x5061796D656E7420746F6B656E207472616E73666572206661696C6564000000 PUSH1 0x44 DUP3 ADD MSTORE PUSH1 0x64 SWAP1 REVERT JUMPDEST PUSH2 0xCB4 SWAP2 POP PUSH1 0x20 RETURNDATASIZE PUSH1 0x20 GT PUSH2 0xB0A JUMPI PUSH2 0xAFC DUP2 DUP4 PUSH2 0x147A JUMP JUMPDEST DUP5 PUSH2 0x5E2 JUMP JUMPDEST ADD MLOAD SWAP1 POP DUP12 DUP1 PUSH2 0x474 JUMP JUMPDEST SWAP1 DUP4 PUSH1 0x0 MSTORE PUSH1 0x20 PUSH1 0x0 KECCAK256 SWAP2 PUSH1 0x0 JUMPDEST PUSH1 0x1F NOT DUP6 AND DUP2 LT PUSH2 0xD1D JUMPI POP SWAP3 PUSH2 0x120 SWAP5 SWAP3 PUSH1 0x1 SWAP3 PUSH1 0x9 SWAP6 DUP4 PUSH1 0x1F NOT DUP2 AND LT PUSH2 0xD04 JUMPI JUMPDEST POP POP POP DUP2 SHL ADD DUP2 SSTORE PUSH2 0x489 JUMP JUMPDEST ADD MLOAD PUSH1 0x0 NOT PUSH1 0xF8 DUP5 PUSH1 0x3 SHL AND SHR NOT AND SWAP1 SSTORE DUP12 DUP1 DUP1 PUSH2 0xCF7 JUMP JUMPDEST SWAP2 SWAP3 PUSH1 0x20 PUSH1 0x1 DUP2 SWAP3 DUP7 DUP6 ADD MLOAD DUP2 SSTORE ADD SWAP5 ADD SWAP3 ADD PUSH2 0xCD3 JUMP JUMPDEST PUSH1 0x40 MLOAD PUSH3 0x461BCD PUSH1 0xE5 SHL DUP2 MSTORE PUSH1 0x20 PUSH1 0x4 DUP3 ADD MSTORE PUSH1 0x19 PUSH1 0x24 DUP3 ADD MSTORE PUSH32 0x5061796D656E742070726F636573736F72206E6F742073657400000000000000 PUSH1 0x44 DUP3 ADD MSTORE PUSH1 0x64 SWAP1 REVERT JUMPDEST PUSH1 0x40 MLOAD PUSH3 0x461BCD PUSH1 0xE5 SHL DUP2 MSTORE PUSH1 0x20 PUSH1 0x4 DUP3 ADD MSTORE PUSH1 0x18 PUSH1 0x24 DUP3 ADD MSTORE PUSH32 0x496E76616C69642066616E20746F6B656E20616D6F756E740000000000000000 PUSH1 0x44 DUP3 ADD MSTORE PUSH1 0x64 SWAP1 REVERT JUMPDEST PUSH1 0x40 MLOAD PUSH3 0x461BCD PUSH1 0xE5 SHL DUP2 MSTORE PUSH1 0x20 PUSH1 0x4 DUP3 ADD MSTORE PUSH1 0x19 PUSH1 0x24 DUP3 ADD MSTORE PUSH32 0x496E76616C69642066616E20746F6B656E206164647265737300000000000000 PUSH1 0x44 DUP3 ADD MSTORE PUSH1 0x64 SWAP1 REVERT JUMPDEST PUSH1 0x40 MLOAD PUSH3 0x461BCD PUSH1 0xE5 SHL DUP2 MSTORE PUSH1 0x20 PUSH1 0x4 DUP3 ADD MSTORE PUSH1 0x18 PUSH1 0x24 DUP3 ADD MSTORE PUSH32 0x496E76616C6964206D65726368616E7420616464726573730000000000000000 PUSH1 0x44 DUP3 ADD MSTORE PUSH1 0x64 SWAP1 REVERT JUMPDEST PUSH1 0x40 MLOAD PUSH3 0x461BCD PUSH1 0xE5 SHL DUP2 MSTORE PUSH1 0x20 PUSH1 0x4 DUP3 ADD MSTORE PUSH1 0x16 PUSH1 0x24 DUP3 ADD MSTORE PUSH22 0x125B9D985B1A59081C185E5B595B9D08185B5BDD5B9D PUSH1 0x52 SHL PUSH1 0x44 DUP3 ADD MSTORE PUSH1 0x64 SWAP1 REVERT JUMPDEST PUSH1 0x40 MLOAD PUSH3 0x461BCD PUSH1 0xE5 SHL DUP2 MSTORE PUSH1 0x20 PUSH1 0x4 DUP3 ADD MSTORE PUSH1 0x19 PUSH1 0x24 DUP3 ADD MSTORE PUSH32 0x556E737570706F72746564207061796D656E7420746F6B656E00000000000000 PUSH1 0x44 DUP3 ADD MSTORE PUSH1 0x64 SWAP1 REVERT JUMPDEST POP PUSH1 0x1 PUSH1 0x1 PUSH1 0xA0 SHL SUB DUP4 AND PUSH20 0x7169D38820DFD117C3FA1F22A697DBA58D90BA06 EQ PUSH2 0x36B JUMP JUMPDEST PUSH1 0x40 MLOAD PUSH3 0x461BCD PUSH1 0xE5 SHL DUP2 MSTORE PUSH1 0x20 PUSH1 0x4 DUP3 ADD MSTORE PUSH1 0x19 PUSH1 0x24 DUP3 ADD MSTORE PUSH32 0x5061796D656E7420494420616C72656164792065786973747300000000000000 PUSH1 0x44 DUP3 ADD MSTORE PUSH1 0x64 SWAP1 REVERT JUMPDEST PUSH1 0x40 MLOAD PUSH3 0x461BCD PUSH1 0xE5 SHL DUP2 MSTORE PUSH1 0x20 PUSH1 0x4 DUP3 ADD MSTORE PUSH1 0x12 PUSH1 0x24 DUP3 ADD MSTORE PUSH18 0x125B9D985B1A59081C185E5B595B9D081251 PUSH1 0x72 SHL PUSH1 0x44 DUP3 ADD MSTORE PUSH1 0x64 SWAP1 REVERT JUMPDEST PUSH1 0x40 MLOAD PUSH3 0x461BCD PUSH1 0xE5 SHL DUP2 MSTORE PUSH1 0x20 PUSH1 0x4 DUP3 ADD MSTORE PUSH1 0x1F PUSH1 0x24 DUP3 ADD MSTORE PUSH32 0x5265656E7472616E637947756172643A207265656E7472616E742063616C6C00 PUSH1 0x44 DUP3 ADD MSTORE PUSH1 0x64 SWAP1 REVERT JUMPDEST CALLVALUE PUSH2 0x1B6 JUMPI PUSH1 0x0 CALLDATASIZE PUSH1 0x3 NOT ADD SLT PUSH2 0x1B6 JUMPI PUSH2 0xFCF PUSH2 0x168B JUMP JUMPDEST PUSH1 0x0 DUP1 DUP1 DUP1 PUSH1 0x1 DUP1 PUSH1 0xA0 SHL SUB PUSH1 0x1 SLOAD AND SELFBALANCE SWAP1 DUP3 DUP3 ISZERO PUSH2 0xFF1 JUMPI JUMPDEST CALL ISZERO PUSH2 0xA98 JUMPI STOP JUMPDEST POP PUSH2 0x8FC PUSH2 0xFE9 JUMP JUMPDEST CALLVALUE PUSH2 0x1B6 JUMPI PUSH1 0x20 CALLDATASIZE PUSH1 0x3 NOT ADD SLT PUSH2 0x1B6 JUMPI PUSH1 0x4 CALLDATALOAD PUSH8 0xFFFFFFFFFFFFFFFF DUP2 GT PUSH2 0x1B6 JUMPI PUSH1 0x20 PUSH2 0x1030 PUSH2 0x10E0 SWAP3 CALLDATASIZE SWAP1 PUSH1 0x4 ADD PUSH2 0x1616 JUMP JUMPDEST SWAP2 SWAP1 PUSH2 0x103A PUSH2 0x1A06 JUMP JUMPDEST POP DUP3 PUSH1 0x40 MLOAD SWAP4 DUP5 SWAP3 DUP4 CALLDATACOPY DUP2 ADD PUSH1 0x3 DUP2 MSTORE SUB ADD SWAP1 KECCAK256 PUSH1 0xFF PUSH1 0x9 PUSH1 0x40 MLOAD SWAP3 PUSH2 0x105F DUP5 PUSH2 0x1425 JUMP JUMPDEST PUSH2 0x1068 DUP2 PUSH2 0x149C JUMP JUMPDEST DUP5 MSTORE PUSH1 0x1 DUP1 PUSH1 0xA0 SHL SUB DUP1 PUSH1 0x1 DUP4 ADD SLOAD AND PUSH1 0x20 DUP7 ADD MSTORE DUP1 PUSH1 0x2 DUP4 ADD SLOAD AND PUSH1 0x40 DUP7 ADD MSTORE DUP1 PUSH1 0x3 DUP4 ADD SLOAD AND PUSH1 0x60 DUP7 ADD MSTORE PUSH1 0x4 DUP3 ADD SLOAD PUSH1 0x80 DUP7 ADD MSTORE PUSH1 0x5 DUP3 ADD SLOAD AND PUSH1 0xA0 DUP6 ADD MSTORE PUSH1 0x6 DUP2 ADD SLOAD PUSH1 0xC0 DUP6 ADD MSTORE PUSH1 0x7 DUP2 ADD SLOAD PUSH1 0xE0 DUP6 ADD MSTORE PUSH1 0x8 DUP2 ADD SLOAD PUSH2 0x100 DUP6 ADD MSTORE ADD SLOAD AND ISZERO ISZERO PUSH2 0x120 DUP3 ADD MSTORE PUSH1 0x40 MLOAD SWAP2 DUP3 SWAP2 DUP3 PUSH2 0x158A JUMP JUMPDEST SUB SWAP1 RETURN JUMPDEST CALLVALUE PUSH2 0x1B6 JUMPI PUSH1 0x40 CALLDATASIZE PUSH1 0x3 NOT ADD SLT PUSH2 0x1B6 JUMPI PUSH2 0x10FD PUSH2 0x13BF JUMP JUMPDEST PUSH2 0x1105 PUSH2 0x168B JUMP JUMPDEST PUSH1 0x1 SLOAD PUSH1 0x40 MLOAD PUSH4 0xA9059CBB PUSH1 0xE0 SHL DUP2 MSTORE PUSH1 0x1 PUSH1 0x1 PUSH1 0xA0 SHL SUB SWAP2 DUP3 AND PUSH1 0x4 DUP3 ADD MSTORE PUSH1 0x24 DUP1 CALLDATALOAD SWAP1 DUP3 ADD MSTORE SWAP2 PUSH1 0x20 SWAP2 DUP4 SWAP2 PUSH1 0x44 SWAP2 DUP4 SWAP2 PUSH1 0x0 SWAP2 AND GAS CALL SWAP1 DUP2 ISZERO PUSH2 0xA98 JUMPI PUSH1 0x0 SWAP2 PUSH2 0x118E JUMPI JUMPDEST POP ISZERO PUSH2 0x1155 JUMPI STOP JUMPDEST PUSH1 0x40 MLOAD PUSH3 0x461BCD PUSH1 0xE5 SHL DUP2 MSTORE PUSH1 0x20 PUSH1 0x4 DUP3 ADD MSTORE PUSH1 0x11 PUSH1 0x24 DUP3 ADD MSTORE PUSH17 0x15DA5D1A191C985DD85B0819985A5B1959 PUSH1 0x7A SHL PUSH1 0x44 DUP3 ADD MSTORE PUSH1 0x64 SWAP1 REVERT JUMPDEST PUSH2 0x11A6 SWAP2 POP PUSH1 0x20 RETURNDATASIZE DUP2 GT PUSH2 0xB0A JUMPI PUSH2 0xAFC DUP2 DUP4 PUSH2 0x147A JUMP JUMPDEST DUP2 PUSH2 0x114D JUMP JUMPDEST CALLVALUE PUSH2 0x1B6 JUMPI PUSH1 0x0 CALLDATASIZE PUSH1 0x3 NOT ADD SLT PUSH2 0x1B6 JUMPI PUSH1 0x1 SLOAD PUSH1 0x40 MLOAD PUSH1 0x1 PUSH1 0x1 PUSH1 0xA0 SHL SUB SWAP1 SWAP2 AND DUP2 MSTORE PUSH1 0x20 SWAP1 RETURN JUMPDEST CALLVALUE PUSH2 0x1B6 JUMPI PUSH1 0x40 CALLDATASIZE PUSH1 0x3 NOT ADD SLT PUSH2 0x1B6 JUMPI PUSH1 0x40 PUSH2 0x11FC PUSH2 0x11F3 PUSH2 0x13BF JUMP JUMPDEST PUSH1 0x24 CALLDATALOAD SWAP1 PUSH2 0x186E JUMP JUMPDEST DUP3 MLOAD SWAP2 DUP3 MSTORE ISZERO ISZERO PUSH1 0x20 DUP3 ADD MSTORE RETURN JUMPDEST CALLVALUE PUSH2 0x1B6 JUMPI PUSH1 0x0 CALLDATASIZE PUSH1 0x3 NOT ADD SLT PUSH2 0x1B6 JUMPI PUSH2 0x1223 PUSH2 0x168B JUMP JUMPDEST PUSH1 0x1 DUP1 SLOAD PUSH1 0x1 PUSH1 0x1 PUSH1 0xA0 SHL SUB NOT DUP2 AND SWAP1 SWAP2 SSTORE PUSH1 0x0 SWAP1 PUSH1 0x1 PUSH1 0x1 PUSH1 0xA0 SHL SUB AND PUSH32 0x8BE0079C531659141344CD1FD0A4F28419497F9722A3DAAFE3B4186F6B6457E0 DUP3 DUP1 LOG3 STOP JUMPDEST CALLVALUE PUSH2 0x1B6 JUMPI PUSH1 0x20 CALLDATASIZE PUSH1 0x3 NOT ADD SLT PUSH2 0x1B6 JUMPI PUSH2 0x1280 PUSH2 0x1A06 JUMP JUMPDEST POP PUSH1 0x4 CALLDATALOAD PUSH1 0x0 MSTORE PUSH1 0x4 PUSH1 0x20 MSTORE PUSH2 0x10E0 PUSH2 0x12A1 PUSH1 0x20 PUSH2 0x100 PUSH1 0x40 PUSH1 0x0 KECCAK256 PUSH2 0x149C JUMP JUMPDEST DUP2 ADD PUSH1 0x3 DUP2 MSTORE SUB ADD SWAP1 KECCAK256 PUSH1 0xFF PUSH1 0x9 PUSH1 0x40 MLOAD SWAP3 PUSH2 0x105F DUP5 PUSH2 0x1425 JUMP JUMPDEST CALLVALUE PUSH2 0x1B6 JUMPI PUSH1 0x20 CALLDATASIZE PUSH1 0x3 NOT ADD SLT PUSH2 0x1B6 JUMPI PUSH1 0x4 CALLDATALOAD PUSH1 0x0 MSTORE PUSH1 0x4 PUSH1 0x20 MSTORE PUSH2 0x10E0 PUSH2 0x12E8 PUSH1 0x40 PUSH1 0x0 KECCAK256 PUSH2 0x149C JUMP JUMPDEST PUSH1 0x40 MLOAD SWAP2 DUP3 SWAP2 PUSH1 0x20 DUP4 MSTORE PUSH1 0x20 DUP4 ADD SWAP1 PUSH2 0x1565 JUMP JUMPDEST CALLVALUE PUSH2 0x1B6 JUMPI PUSH1 0x40 CALLDATASIZE PUSH1 0x3 NOT ADD SLT PUSH2 0x1B6 JUMPI PUSH1 0x20 PUSH2 0x1328 PUSH2 0x131A PUSH2 0x13BF JUMP JUMPDEST PUSH2 0x1322 PUSH2 0x13D5 JUMP JUMPDEST SWAP1 PUSH2 0x1A53 JUMP JUMPDEST PUSH1 0x40 MLOAD SWAP1 ISZERO ISZERO DUP2 MSTORE RETURN JUMPDEST CALLVALUE PUSH2 0x1B6 JUMPI PUSH1 0x20 CALLDATASIZE PUSH1 0x3 NOT ADD SLT PUSH2 0x1B6 JUMPI PUSH2 0x134B PUSH2 0x13BF JUMP JUMPDEST PUSH2 0x1353 PUSH2 0x168B JUMP JUMPDEST PUSH1 0x1 PUSH1 0x1 PUSH1 0xA0 SHL SUB AND DUP1 ISZERO PUSH2 0x137A JUMPI PUSH1 0x1 PUSH1 0x1 PUSH1 0x60 SHL SUB PUSH1 0xA0 SHL PUSH1 0x2 SLOAD AND OR PUSH1 0x2 SSTORE PUSH1 0x0 DUP1 RETURN JUMPDEST PUSH1 0x40 MLOAD PUSH3 0x461BCD PUSH1 0xE5 SHL DUP2 MSTORE PUSH1 0x20 PUSH1 0x4 DUP3 ADD MSTORE PUSH1 0x19 PUSH1 0x24 DUP3 ADD MSTORE PUSH32 0x496E76616C6964207061796D656E742070726F636573736F7200000000000000 PUSH1 0x44 DUP3 ADD MSTORE PUSH1 0x64 SWAP1 REVERT JUMPDEST PUSH1 0x4 CALLDATALOAD SWAP1 PUSH1 0x1 PUSH1 0x1 PUSH1 0xA0 SHL SUB DUP3 AND DUP3 SUB PUSH2 0x1B6 JUMPI JUMP JUMPDEST PUSH1 0x24 CALLDATALOAD SWAP1 PUSH1 0x1 PUSH1 0x1 PUSH1 0xA0 SHL SUB DUP3 AND DUP3 SUB PUSH2 0x1B6 JUMPI JUMP JUMPDEST SWAP1 PUSH1 0x1 DUP3 DUP2 SHR SWAP3 AND DUP1 ISZERO PUSH2 0x141B JUMPI JUMPDEST PUSH1 0x20 DUP4 LT EQ PUSH2 0x1405 JUMPI JUMP JUMPDEST PUSH4 0x4E487B71 PUSH1 0xE0 SHL PUSH1 0x0 MSTORE PUSH1 0x22 PUSH1 0x4 MSTORE PUSH1 0x24 PUSH1 0x0 REVERT JUMPDEST SWAP2 PUSH1 0x7F AND SWAP2 PUSH2 0x13FA JUMP JUMPDEST PUSH2 0x140 DUP2 ADD SWAP1 DUP2 LT PUSH8 0xFFFFFFFFFFFFFFFF DUP3 GT OR PUSH2 0xA4E JUMPI PUSH1 0x40 MSTORE JUMP JUMPDEST PUSH1 0x60 DUP2 ADD SWAP1 DUP2 LT PUSH8 0xFFFFFFFFFFFFFFFF DUP3 GT OR PUSH2 0xA4E JUMPI PUSH1 0x40 MSTORE JUMP JUMPDEST PUSH1 0x80 DUP2 ADD SWAP1 DUP2 LT PUSH8 0xFFFFFFFFFFFFFFFF DUP3 GT OR PUSH2 0xA4E JUMPI PUSH1 0x40 MSTORE JUMP JUMPDEST SWAP1 PUSH1 0x1F DUP1 NOT SWAP2 ADD AND DUP2 ADD SWAP1 DUP2 LT PUSH8 0xFFFFFFFFFFFFFFFF DUP3 GT OR PUSH2 0xA4E JUMPI PUSH1 0x40 MSTORE JUMP JUMPDEST SWAP1 PUSH1 0x40 MLOAD SWAP2 DUP3 PUSH1 0x0 DUP3 SLOAD SWAP3 PUSH2 0x14B0 DUP5 PUSH2 0x13EB JUMP JUMPDEST SWAP1 DUP2 DUP5 MSTORE PUSH1 0x1 SWAP5 DUP6 DUP2 AND SWAP1 DUP2 PUSH1 0x0 EQ PUSH2 0x151F JUMPI POP PUSH1 0x1 EQ PUSH2 0x14DC JUMPI JUMPDEST POP POP PUSH2 0x14DA SWAP3 POP SUB DUP4 PUSH2 0x147A JUMP JUMPDEST JUMP JUMPDEST SWAP1 SWAP4 SWAP2 POP PUSH1 0x0 MSTORE PUSH1 0x20 SWAP1 DUP2 PUSH1 0x0 KECCAK256 SWAP4 PUSH1 0x0 SWAP2 JUMPDEST DUP2 DUP4 LT PUSH2 0x1507 JUMPI POP POP PUSH2 0x14DA SWAP4 POP DUP3 ADD ADD CODESIZE DUP1 PUSH2 0x14CC JUMP JUMPDEST DUP6 SLOAD DUP9 DUP5 ADD DUP6 ADD MSTORE SWAP5 DUP6 ADD SWAP5 DUP8 SWAP5 POP SWAP2 DUP4 ADD SWAP2 PUSH2 0x14EF JUMP JUMPDEST SWAP2 POP POP PUSH2 0x14DA SWAP5 POP PUSH1 0x20 SWAP3 POP PUSH1 0xFF NOT AND DUP3 DUP5 ADD MSTORE ISZERO ISZERO PUSH1 0x5 SHL DUP3 ADD ADD CODESIZE DUP1 PUSH2 0x14CC JUMP JUMPDEST PUSH1 0x0 JUMPDEST DUP4 DUP2 LT PUSH2 0x1555 JUMPI POP POP PUSH1 0x0 SWAP2 ADD MSTORE JUMP JUMPDEST DUP2 DUP2 ADD MLOAD DUP4 DUP3 ADD MSTORE PUSH1 0x20 ADD PUSH2 0x1545 JUMP JUMPDEST SWAP1 PUSH1 0x20 SWAP2 PUSH2 0x157E DUP2 MLOAD DUP1 SWAP3 DUP2 DUP6 MSTORE DUP6 DUP1 DUP7 ADD SWAP2 ADD PUSH2 0x1542 JUMP JUMPDEST PUSH1 0x1F ADD PUSH1 0x1F NOT AND ADD ADD SWAP1 JUMP JUMPDEST PUSH1 0x20 DUP2 MSTORE DUP2 MLOAD PUSH2 0x15A8 PUSH2 0x140 SWAP2 DUP3 PUSH1 0x20 DUP6 ADD MSTORE PUSH2 0x160 DUP5 ADD SWAP1 PUSH2 0x1565 JUMP JUMPDEST SWAP3 PUSH1 0x1 DUP1 PUSH1 0xA0 SHL SUB DUP1 PUSH1 0x20 DUP4 ADD MLOAD AND PUSH1 0x40 DUP6 ADD MSTORE DUP1 PUSH1 0x40 DUP4 ADD MLOAD AND PUSH1 0x60 DUP6 ADD MSTORE DUP1 PUSH1 0x60 DUP4 ADD MLOAD AND PUSH1 0x80 DUP6 ADD MSTORE PUSH1 0x80 DUP3 ADD MLOAD PUSH1 0xA0 DUP6 ADD MSTORE PUSH1 0xA0 DUP3 ADD MLOAD AND PUSH1 0xC0 DUP5 ADD MSTORE PUSH1 0xC0 DUP2 ADD MLOAD PUSH1 0xE0 DUP5 ADD MSTORE PUSH1 0xE0 DUP2 ADD MLOAD PUSH2 0x100 SWAP1 DUP2 DUP6 ADD MSTORE DUP2 ADD MLOAD SWAP1 PUSH2 0x120 SWAP2 DUP3 DUP6 ADD MSTORE ADD MLOAD ISZERO ISZERO SWAP2 ADD MSTORE SWAP1 JUMP JUMPDEST SWAP2 DUP2 PUSH1 0x1F DUP5 ADD SLT ISZERO PUSH2 0x1B6 JUMPI DUP3 CALLDATALOAD SWAP2 PUSH8 0xFFFFFFFFFFFFFFFF DUP4 GT PUSH2 0x1B6 JUMPI PUSH1 0x20 DUP4 DUP2 DUP7 ADD SWAP6 ADD ADD GT PUSH2 0x1B6 JUMPI JUMP JUMPDEST SWAP3 SWAP2 SWAP3 PUSH8 0xFFFFFFFFFFFFFFFF DUP3 GT PUSH2 0xA4E JUMPI PUSH1 0x40 MLOAD SWAP2 PUSH2 0x166E PUSH1 0x1F DUP3 ADD PUSH1 0x1F NOT AND PUSH1 0x20 ADD DUP5 PUSH2 0x147A JUMP JUMPDEST DUP3 SWAP5 DUP2 DUP5 MSTORE DUP2 DUP4 ADD GT PUSH2 0x1B6 JUMPI DUP3 DUP2 PUSH1 0x20 SWAP4 DUP5 PUSH1 0x0 SWAP7 ADD CALLDATACOPY ADD ADD MSTORE JUMP JUMPDEST PUSH1 0x1 SLOAD PUSH1 0x1 PUSH1 0x1 PUSH1 0xA0 SHL SUB AND CALLER SUB PUSH2 0x169F JUMPI JUMP JUMPDEST PUSH1 0x64 PUSH1 0x40 MLOAD PUSH3 0x461BCD PUSH1 0xE5 SHL DUP2 MSTORE PUSH1 0x20 PUSH1 0x4 DUP3 ADD MSTORE PUSH1 0x20 PUSH1 0x24 DUP3 ADD MSTORE PUSH32 0x4F776E61626C653A2063616C6C6572206973206E6F7420746865206F776E6572 PUSH1 0x44 DUP3 ADD MSTORE REVERT JUMPDEST SWAP1 PUSH1 0x1F DUP2 GT PUSH2 0x16F1 JUMPI POP POP POP JUMP JUMPDEST PUSH1 0x0 SWAP2 DUP3 MSTORE PUSH1 0x20 DUP3 KECCAK256 SWAP1 PUSH1 0x20 PUSH1 0x1F DUP6 ADD PUSH1 0x5 SHR DUP4 ADD SWAP5 LT PUSH2 0x172D JUMPI JUMPDEST PUSH1 0x1F ADD PUSH1 0x5 SHR ADD SWAP2 JUMPDEST DUP3 DUP2 LT PUSH2 0x1722 JUMPI POP POP POP JUMP JUMPDEST DUP2 DUP2 SSTORE PUSH1 0x1 ADD PUSH2 0x1716 JUMP JUMPDEST SWAP1 SWAP3 POP DUP3 SWAP1 PUSH2 0x170D JUMP JUMPDEST SWAP1 DUP2 PUSH1 0x20 SWAP2 SUB SLT PUSH2 0x1B6 JUMPI MLOAD DUP1 ISZERO ISZERO DUP2 SUB PUSH2 0x1B6 JUMPI SWAP1 JUMP JUMPDEST DUP1 MLOAD ISZERO PUSH2 0xB11 JUMPI PUSH1 0x20 ADD SWAP1 JUMP JUMPDEST DUP1 MLOAD PUSH1 0x1 LT ISZERO PUSH2 0xB11 JUMPI PUSH1 0x40 ADD SWAP1 JUMP JUMPDEST DUP1 MLOAD PUSH1 0x2 LT ISZERO PUSH2 0xB11 JUMPI PUSH1 0x60 ADD SWAP1 JUMP JUMPDEST SWAP1 PUSH1 0x20 SWAP1 DUP2 DUP4 DUP3 SUB SLT PUSH2 0x1B6 JUMPI DUP3 MLOAD PUSH8 0xFFFFFFFFFFFFFFFF SWAP4 DUP5 DUP3 GT PUSH2 0x1B6 JUMPI ADD DUP2 PUSH1 0x1F DUP3 ADD SLT ISZERO PUSH2 0x1B6 JUMPI DUP1 MLOAD SWAP4 DUP5 GT PUSH2 0xA4E JUMPI DUP4 PUSH1 0x5 SHL SWAP1 PUSH1 0x40 MLOAD SWAP5 PUSH2 0x17C6 DUP6 DUP5 ADD DUP8 PUSH2 0x147A JUMP JUMPDEST DUP6 MSTORE DUP4 DUP1 DUP7 ADD SWAP3 DUP3 ADD ADD SWAP3 DUP4 GT PUSH2 0x1B6 JUMPI DUP4 ADD SWAP1 JUMPDEST DUP3 DUP3 LT PUSH2 0x17E9 JUMPI POP POP POP POP SWAP1 JUMP JUMPDEST DUP2 MLOAD DUP2 MSTORE SWAP1 DUP4 ADD SWAP1 DUP4 ADD PUSH2 0x17DB JUMP JUMPDEST SWAP1 DUP2 MLOAD DUP1 DUP3 MSTORE PUSH1 0x20 DUP1 DUP1 SWAP4 ADD SWAP4 ADD SWAP2 PUSH1 0x0 JUMPDEST DUP3 DUP2 LT PUSH2 0x1818 JUMPI POP POP POP POP SWAP1 JUMP JUMPDEST DUP4 MLOAD PUSH1 0x1 PUSH1 0x1 PUSH1 0xA0 SHL SUB AND DUP6 MSTORE SWAP4 DUP2 ADD SWAP4 SWAP3 DUP2 ADD SWAP3 PUSH1 0x1 ADD PUSH2 0x180A JUMP JUMPDEST SWAP2 SWAP3 PUSH1 0x80 SWAP4 PUSH2 0x185A SWAP3 SWAP8 SWAP7 SWAP6 SWAP8 DUP5 MSTORE PUSH1 0x20 DUP5 ADD MSTORE PUSH1 0xA0 PUSH1 0x40 DUP5 ADD MSTORE PUSH1 0xA0 DUP4 ADD SWAP1 PUSH2 0x17F8 JUMP JUMPDEST PUSH1 0x1 PUSH1 0x1 PUSH1 0xA0 SHL SUB SWAP1 SWAP6 AND PUSH1 0x60 DUP3 ADD MSTORE ADD MSTORE JUMP JUMPDEST PUSH1 0x40 DUP1 MLOAD PUSH2 0x18EE SWAP5 SWAP4 SWAP3 PUSH2 0x1881 DUP3 PUSH2 0x1442 JUMP JUMPDEST PUSH1 0x2 DUP3 MSTORE DUP3 CALLDATASIZE PUSH1 0x20 DUP5 ADD CALLDATACOPY PUSH2 0x1895 DUP3 PUSH2 0x174F JUMP JUMPDEST PUSH1 0x1 PUSH1 0x1 PUSH1 0xA0 SHL SUB SWAP1 SWAP2 AND SWAP1 DUP2 SWAP1 MSTORE PUSH20 0xDA1FE1DB9B04A810CBB214A294667833E4C8D8F7 DUP1 PUSH2 0x18C3 DUP5 PUSH2 0x175C JUMP JUMPDEST MSTORE DUP4 MLOAD SWAP5 PUSH4 0x7C0329D PUSH1 0xE2 SHL DUP1 DUP8 MSTORE DUP2 PUSH1 0x4 DUP9 ADD MSTORE DUP6 PUSH1 0x24 DUP9 ADD MSTORE DUP7 PUSH1 0x0 SWAP10 DUP11 SWAP7 PUSH1 0x44 DUP4 ADD SWAP1 PUSH2 0x17F8 JUMP JUMPDEST SUB SWAP3 DUP6 DUP9 PUSH20 0xC532A74256D3DB42D0BF7A0400FEFDBAD7694008 SWAP6 DUP2 DUP8 GAS STATICCALL DUP1 SWAP9 DUP8 SWAP10 PUSH2 0x19EA JUMPI JUMPDEST POP PUSH2 0x19D5 JUMPI DUP7 PUSH2 0x198B SWAP8 SWAP9 POP MLOAD SWAP5 PUSH2 0x192C DUP7 PUSH2 0x145E JUMP JUMPDEST PUSH1 0x3 DUP7 MSTORE PUSH1 0x60 CALLDATASIZE PUSH1 0x20 DUP9 ADD CALLDATACOPY PUSH2 0x1941 DUP7 PUSH2 0x174F JUMP JUMPDEST MSTORE PUSH20 0xFFF9976782D46CC05630D1F6EBAB18B2324D6B14 PUSH2 0x1960 DUP7 PUSH2 0x175C JUMP JUMPDEST MSTORE PUSH2 0x196A DUP6 PUSH2 0x176C JUMP JUMPDEST MSTORE DUP7 MLOAD SWAP6 DUP7 SWAP5 DUP6 SWAP4 DUP5 SWAP4 DUP5 MSTORE PUSH1 0x4 DUP5 ADD MSTORE DUP9 PUSH1 0x24 DUP5 ADD MSTORE PUSH1 0x44 DUP4 ADD SWAP1 PUSH2 0x17F8 JUMP JUMPDEST SUB SWAP2 GAS STATICCALL SWAP2 DUP3 ISZERO PUSH2 0x19CC JUMPI POP DUP4 PUSH2 0x19AA SWAP4 SWAP5 SWAP3 PUSH2 0x19B1 JUMPI JUMPDEST POP POP PUSH2 0x174F JUMP JUMPDEST MLOAD SWAP1 PUSH1 0x1 SWAP1 JUMP JUMPDEST PUSH2 0x19C5 SWAP3 POP RETURNDATASIZE DUP1 SWAP2 DUP4 RETURNDATACOPY PUSH2 0xB52 DUP2 DUP4 PUSH2 0x147A JUMP JUMPDEST CODESIZE DUP1 PUSH2 0x19A3 JUMP JUMPDEST MLOAD RETURNDATASIZE DUP6 DUP3 RETURNDATACOPY RETURNDATASIZE SWAP1 REVERT JUMPDEST POP POP POP POP POP POP POP PUSH2 0x19E5 SWAP1 PUSH2 0x174F JUMP JUMPDEST MLOAD SWAP2 SWAP1 JUMP JUMPDEST PUSH2 0x19FF SWAP2 SWAP10 POP RETURNDATASIZE DUP1 DUP10 DUP4 RETURNDATACOPY PUSH2 0xB52 DUP2 DUP4 PUSH2 0x147A JUMP JUMPDEST SWAP8 CODESIZE PUSH2 0x1915 JUMP JUMPDEST PUSH1 0x40 MLOAD SWAP1 PUSH2 0x1A13 DUP3 PUSH2 0x1425 JUMP JUMPDEST DUP2 PUSH1 0x60 DUP2 MSTORE PUSH2 0x120 PUSH1 0x0 SWAP2 DUP3 PUSH1 0x20 DUP3 ADD MSTORE DUP3 PUSH1 0x40 DUP3 ADD MSTORE DUP3 PUSH1 0x60 DUP3 ADD MSTORE DUP3 PUSH1 0x80 DUP3 ADD MSTORE DUP3 PUSH1 0xA0 DUP3 ADD MSTORE DUP3 PUSH1 0xC0 DUP3 ADD MSTORE DUP3 PUSH1 0xE0 DUP3 ADD MSTORE DUP3 PUSH2 0x100 DUP3 ADD MSTORE ADD MSTORE JUMP JUMPDEST PUSH1 0x40 MLOAD PUSH2 0x1AC0 SWAP3 PUSH1 0x0 SWAP3 PUSH2 0x1A66 DUP4 PUSH2 0x1442 JUMP JUMPDEST PUSH1 0x2 DUP4 MSTORE PUSH1 0x40 CALLDATASIZE PUSH1 0x20 DUP6 ADD CALLDATACOPY PUSH2 0x1A7B DUP4 PUSH2 0x174F JUMP JUMPDEST PUSH1 0x1 PUSH1 0x1 PUSH1 0xA0 SHL SUB SWAP2 DUP3 AND SWAP1 MSTORE PUSH2 0x1A91 DUP4 PUSH2 0x175C JUMP JUMPDEST SWAP2 AND SWAP1 MSTORE PUSH1 0x40 MLOAD DUP1 SWAP4 DUP2 SWAP3 PUSH4 0xD06CA61F PUSH1 0xE0 SHL DUP4 MSTORE PUSH3 0xF4240 PUSH1 0x4 DUP5 ADD MSTORE PUSH1 0x40 PUSH1 0x24 DUP5 ADD MSTORE PUSH1 0x44 DUP4 ADD SWAP1 PUSH2 0x17F8 JUMP JUMPDEST SUB DUP2 PUSH20 0xC532A74256D3DB42D0BF7A0400FEFDBAD7694008 GAS STATICCALL SWAP1 DUP2 PUSH2 0x1AEF JUMPI JUMPDEST POP PUSH2 0x1AEA JUMPI PUSH1 0x0 SWAP1 JUMP JUMPDEST PUSH1 0x1 SWAP1 JUMP JUMPDEST PUSH2 0x1B03 SWAP1 RETURNDATASIZE DUP1 PUSH1 0x0 DUP4 RETURNDATACOPY PUSH2 0xB52 DUP2 DUP4 PUSH2 0x147A JUMP JUMPDEST POP CODESIZE PUSH2 0x1AE0 JUMP INVALID LOG2 PUSH5 0x6970667358 0x22 SLT KECCAK256 REVERT ADD SSTORE 0x2A 0xAF 0xE5 0xC6 EXTCODECOPY 0xB8 0xC2 PUSH20 0x35AB23359AD370EC717105F163E36180A2B86C7A MSTORE8 PUSH5 0x736F6C6343 STOP ADDMOD SGT STOP CALLER "},"methodIdentifiers":{"executePayment(string,address,uint256,address,address,uint256,uint256)":"f0a40393","getPayment(string)":"c69207a3","getPaymentByMessageId(bytes32)":"6b440de2","getQuote(address,uint256)":"82c0ab21","messageToPaymentId(bytes32)":"566a3c7c","owner()":"8da5cb5b","paymentProcessor()":"f1c6bdf8","payments(string)":"f9468713","poolExists(address,address)":"552e4e84","renounceOwnership()":"715018a6","setPaymentProcessor(address)":"088b0d75","transferOwnership(address)":"f2fde38b","withdrawETH()":"e086e5ec","withdrawToken(address,uint256)":"9e281a98"}}}}}