{"src/contracts/PaymentGateway.sol":{"PaymentGateway":{"abi":[{"anonymous":false,"inputs":[{"indexed":true,"internalType":"string","name":"paymentId","type":"string"},{"indexed":true,"internalType":"bytes32","name":"messageId","type":"bytes32"},{"indexed":false,"internalType":"uint256","name":"mchzAmount","type":"uint256"}],"name":"BridgeInitiated","type":"event"},{"anonymous":false,"inputs":[{"indexed":true,"internalType":"address","name":"previousOwner","type":"address"},{"indexed":true,"internalType":"address","name":"newOwner","type":"address"}],"name":"OwnershipTransferred","type":"event"},{"anonymous":false,"inputs":[{"indexed":true,"internalType":"string","name":"paymentId","type":"string"},{"indexed":true,"internalType":"address","name":"user","type":"address"},{"indexed":true,"internalType":"address","name":"merchant","type":"address"},{"indexed":false,"internalType":"address","name":"paymentToken","type":"address"},{"indexed":false,"internalType":"uint256","name":"paymentAmount","type":"uint256"},{"indexed":false,"internalType":"address","name":"fanToken","type":"address"},{"indexed":false,"internalType":"uint256","name":"fanTokenAmount","type":"uint256"}],"name":"PaymentInitiated","type":"event"},{"anonymous":false,"inputs":[{"indexed":true,"internalType":"string","name":"paymentId","type":"string"},{"indexed":false,"internalType":"uint256","name":"mchzAmount","type":"uint256"}],"name":"SwapCompleted","type":"event"},{"inputs":[{"internalType":"string","name":"paymentId","type":"string"},{"internalType":"address","name":"paymentToken","type":"address"},{"internalType":"uint256","name":"paymentAmount","type":"uint256"},{"internalType":"address","name":"merchant","type":"address"},{"internalType":"address","name":"fanToken","type":"address"},{"internalType":"uint256","name":"fanTokenAmount","type":"uint256"},{"internalType":"uint256","name":"minMchzOut","type":"uint256"}],"name":"executePayment","outputs":[],"stateMutability":"nonpayable","type":"function"},{"inputs":[{"internalType":"string","name":"paymentId","type":"string"}],"name":"getPayment","outputs":[{"components":[{"internalType":"string","name":"paymentId","type":"string"},{"internalType":"address","name":"user","type":"address"},{"internalType":"address","name":"merchant","type":"address"},{"internalType":"address","name":"paymentToken","type":"address"},{"internalType":"uint256","name":"paymentAmount","type":"uint256"},{"internalType":"address","name":"fanToken","type":"address"},{"internalType":"uint256","name":"fanTokenAmount","type":"uint256"},{"internalType":"uint256","name":"mchzAmount","type":"uint256"},{"internalType":"bytes32","name":"hyperlaneMessageId","type":"bytes32"},{"internalType":"bool","name":"completed","type":"bool"}],"internalType":"struct PaymentGateway.Payment","name":"","type":"tuple"}],"stateMutability":"view","type":"function"},{"inputs":[{"internalType":"bytes32","name":"messageId","type":"bytes32"}],"name":"getPaymentByMessageId","outputs":[{"components":[{"internalType":"string","name":"paymentId","type":"string"},{"internalType":"address","name":"user","type":"address"},{"internalType":"address","name":"merchant","type":"address"},{"internalType":"address","name":"paymentToken","type":"address"},{"internalType":"uint256","name":"paymentAmount","type":"uint256"},{"internalType":"address","name":"fanToken","type":"address"},{"internalType":"uint256","name":"fanTokenAmount","type":"uint256"},{"internalType":"uint256","name":"mchzAmount","type":"uint256"},{"internalType":"bytes32","name":"hyperlaneMessageId","type":"bytes32"},{"internalType":"bool","name":"completed","type":"bool"}],"internalType":"struct PaymentGateway.Payment","name":"","type":"tuple"}],"stateMutability":"view","type":"function"},{"inputs":[{"internalType":"address","name":"paymentToken","type":"address"},{"internalType":"uint256","name":"mchzAmount","type":"uint256"}],"name":"getQuote","outputs":[{"internalType":"uint256","name":"paymentTokenNeeded","type":"uint256"}],"stateMutability":"view","type":"function"},{"inputs":[{"internalType":"bytes32","name":"","type":"bytes32"}],"name":"messageToPaymentId","outputs":[{"internalType":"string","name":"","type":"string"}],"stateMutability":"view","type":"function"},{"inputs":[],"name":"owner","outputs":[{"internalType":"address","name":"","type":"address"}],"stateMutability":"view","type":"function"},{"inputs":[{"internalType":"string","name":"","type":"string"}],"name":"payments","outputs":[{"internalType":"string","name":"paymentId","type":"string"},{"internalType":"address","name":"user","type":"address"},{"internalType":"address","name":"merchant","type":"address"},{"internalType":"address","name":"paymentToken","type":"address"},{"internalType":"uint256","name":"paymentAmount","type":"uint256"},{"internalType":"address","name":"fanToken","type":"address"},{"internalType":"uint256","name":"fanTokenAmount","type":"uint256"},{"internalType":"uint256","name":"mchzAmount","type":"uint256"},{"internalType":"bytes32","name":"hyperlaneMessageId","type":"bytes32"},{"internalType":"bool","name":"completed","type":"bool"}],"stateMutability":"view","type":"function"},{"inputs":[],"name":"renounceOwnership","outputs":[],"stateMutability":"nonpayable","type":"function"},{"inputs":[{"internalType":"address","name":"newOwner","type":"address"}],"name":"transferOwnership","outputs":[],"stateMutability":"nonpayable","type":"function"},{"inputs":[],"name":"withdrawETH","outputs":[],"stateMutability":"nonpayable","type":"function"},{"inputs":[{"internalType":"address","name":"token","type":"address"},{"internalType":"uint256","name":"amount","type":"uint256"}],"name":"withdrawToken","outputs":[],"stateMutability":"nonpayable","type":"function"}],"evm":{"bytecode":{"linkReferences":{},"object":"6080806040523461005e57600160008181558154336001600160a01b0319821681179093556001600160a01b0316907f8be0079c531659141344cd1fd0a4f28419497f9722a3daafe3b4186f6b6457e09080a36116d590816100648239f35b600080fdfe6080604052600436101561001257600080fd5b60003560e01c8063566a3c7c146111c85780636b440de214611173578063715018a61461111657806382c0ab21146110275780638da5cb5b14610ffe5780639e281a9814610f36578063c69207a314610e4c578063e086e5ec14610e08578063f0a4039314610263578063f2fde38b1461019a5763f94687131461009557600080fd5b346101955760203660031901126101955760043567ffffffffffffffff81116101955736602382011215610195576100f260206100df61015f93369060248160040135910161145b565b8160405193828580945193849201611343565b810160028152030190206101058161129d565b9060018060a01b0380600183015416918160028201541691806003830154169060048301549060058401541660068401549160078501549360ff6009600888015497015416966040519a8b9a610140808d528c0190611366565b9860208b015260408a01526060890152608088015260a087015260c086015260e085015261010084015215156101208301520390f35b600080fd5b34610195576020366003190112610195576101b3611417565b6101bb6114a2565b6001600160a01b0390811690811561020f57600154826bffffffffffffffffffffffff60a01b821617600155167f8be0079c531659141344cd1fd0a4f28419497f9722a3daafe3b4186f6b6457e0600080a3005b60405162461bcd60e51b815260206004820152602660248201527f4f776e61626c653a206e6577206f776e657220697320746865207a65726f206160448201526564647265737360d01b6064820152608490fd5b346101955760e03660031901126101955760043567ffffffffffffffff81116101955761029490369060040161142d565b602435906001600160a01b0382168203610195576064356001600160a01b038116810361019557608435926001600160a01b038416840361019557600260005414610dc35760026000558215610d89576040518386823760028185019081528190036020019020600101546001600160a01b0316610d44576001600160a01b038116731c7d4b196cb0c7b01d743fbc6116a902379c7238148015610d1e575b15610cd95760443515610c9b576001600160a01b03821615610c56576001600160a01b03841615610c115760a43515610bcc5760405161037281611242565b61037d36858861145b565b81523360208201526001600160a01b038381166040808401919091528382166060840152604435608084015290861660a083015260a43560c0830152600060e08301819052610100830181905261012083015251848782376020818681016002815203019020815180519067ffffffffffffffff821161099b5761040b826104058554611208565b856114fa565b602090601f8311600114610b5c5791806101209492600994600092610b51575b50508160011b916000199060031b1c19161781555b6001810160018060a01b03602086015116906bffffffffffffffffffffffff60a01b91828254161790556002820160018060a01b03604087015116828254161790556003820160018060a01b036060870151168282541617905560808501516004830155600582019060018060a01b0360a0870151169082541617905560c0840151600682015560e08401516007820155610100840151600882015501910151151560ff801983541691161790556040518386823760008482019081528190039020604080516001600160a01b03848116825260443560208301528781169282019290925260a43560608201529084169133917f1972dd5828c90d9d8ad8f12419f78d57c2ef63f450be27e05280d4bada42425190608090a46040516323b872dd60e01b8152336004820152306024820152604480359082015260208160648160006001600160a01b0387165af19081156109e557600091610b32575b5015610aed5760405163095ea7b360e01b8152737a250d5630b4cf539739df2c5dacb4c659f2488d600482015260448035602483015260209082908160006001600160a01b0387165af19081156109e557600091610ace575b5015610a9757604051906106098261125f565b6002825260403660208401376001600160a01b031661062782611566565b5273da1fe1db9b04a810cbb214a294667833e4c8d8f761064682611589565b5261012c42014211610a8157600061068a91604051809381926338ed173960e01b8352604435600484015260c435602484015260a0604484015260a4830190611615565b30606483015261012c42016084830152038183737a250d5630b4cf539739df2c5dacb4c659f2488d5af180156109e5576106cc91600091610a5e575b50611589565b519283600760405185888237602081878101600281520301902001556040518386823780848101600081520390207f3e3806ccf20061002b91d4f4083a8ac93b060d2dd54af8a42400fe0e713b2ea66020604051878152a261072f36848761145b565b60405163095ea7b360e01b815273eb2a0b7aaadd23851c08b963c3f4fbe00b897c04600482015260248101869052602081604481600073da1fe1db9b04a810cbb214a294667833e4c8d8f75af19081156109e557600091610a2f575b50156109f1576107e0926107b0926040519384936080602086015260a0850190611366565b6001600160a01b0392831660408501529116606083015260a4356080830152819003601f1981019091529061127b565b60405163206d3a2d60e21b815262015b32600482015273123456789012345678901234567890123456789060248201526044810183905292602084606481600073eb2a0b7aaadd23851c08b963c3f4fbe00b897c045af19384156109e5576000946109b1575b508360086040518484823760208186810160028152030190200155836000526003602052604060002067ffffffffffffffff831161099b576108928361088c8354611208565b836114fa565b6000601f841160011461090f579183917f79797b078516029af81f4b555a8e8090178c741d1853adfd7b87ddff4ef8493f94602094600091610904575b508360011b906000198560031b1c19161790555b81604051928392833781016000815203902092604051908152a36001600055005b9050820135886108cf565b601f198416908260005260206000209160005b8181106109835750918593917f79797b078516029af81f4b555a8e8090178c741d1853adfd7b87ddff4ef8493f966020969410610969575b5050600183811b0190556108e3565b830135600019600386901b60f8161c19169055878061095a565b91926020600181928689013581550194019201610922565b634e487b7160e01b600052604160045260246000fd5b9093506020813d6020116109dd575b816109cd6020938361127b565b8101031261019557519284610846565b3d91506109c0565b6040513d6000823e3d90fd5b60405162461bcd60e51b8152602060048201526016602482015275109c9a5919d948185c1c1c9bdd985b0819985a5b195960521b6044820152606490fd5b610a51915060203d602011610a57575b610a49818361127b565b81019061154e565b8761078b565b503d610a3f565b610a7b91503d806000833e610a73818361127b565b810190611599565b866106c6565b634e487b7160e01b600052601160045260246000fd5b60405162461bcd60e51b815260206004820152600f60248201526e105c1c1c9bdd985b0819985a5b1959608a1b6044820152606490fd5b610ae7915060203d602011610a5757610a49818361127b565b866105f6565b60405162461bcd60e51b815260206004820152601d60248201527f5061796d656e7420746f6b656e207472616e73666572206661696c65640000006044820152606490fd5b610b4b915060203d602011610a5757610a49818361127b565b8661059d565b015190508b8061042b565b908360005260206000209160005b601f1985168110610bb4575092610120949260019260099583601f19811610610b9b575b505050811b018155610440565b015160001960f88460031b161c191690558b8080610b8e565b91926020600181928685015181550194019201610b6a565b60405162461bcd60e51b815260206004820152601860248201527f496e76616c69642066616e20746f6b656e20616d6f756e7400000000000000006044820152606490fd5b60405162461bcd60e51b815260206004820152601960248201527f496e76616c69642066616e20746f6b656e2061646472657373000000000000006044820152606490fd5b60405162461bcd60e51b815260206004820152601860248201527f496e76616c6964206d65726368616e74206164647265737300000000000000006044820152606490fd5b60405162461bcd60e51b8152602060048201526016602482015275125b9d985b1a59081c185e5b595b9d08185b5bdd5b9d60521b6044820152606490fd5b60405162461bcd60e51b815260206004820152601960248201527f556e737570706f72746564207061796d656e7420746f6b656e000000000000006044820152606490fd5b506001600160a01b038116737169d38820dfd117c3fa1f22a697dba58d90ba0614610333565b60405162461bcd60e51b815260206004820152601960248201527f5061796d656e7420494420616c726561647920657869737473000000000000006044820152606490fd5b60405162461bcd60e51b8152602060048201526012602482015271125b9d985b1a59081c185e5b595b9d08125160721b6044820152606490fd5b60405162461bcd60e51b815260206004820152601f60248201527f5265656e7472616e637947756172643a207265656e7472616e742063616c6c006044820152606490fd5b3461019557600036600319011261019557610e216114a2565b600080808060018060a01b03600154164790828215610e43575bf1156109e557005b506108fc610e3b565b346101955760203660031901126101955760043567ffffffffffffffff8111610195576020610e82610f3292369060040161142d565b9190610e8c611652565b508260405193849283378101600281520301902060ff600960405192610eb184611242565b610eba8161129d565b845260018060a01b038060018301541660208601528060028301541660408601528060038301541660608601526004820154608086015260058201541660a0850152600681015460c0850152600781015460e0850152600881015461010085015201541615156101208201526040519182918261138b565b0390f35b3461019557604036600319011261019557610f4f611417565b610f576114a2565b60015460405163a9059cbb60e01b81526001600160a01b03918216600482015260248035908201529160209183916044918391600091165af19081156109e557600091610fe0575b5015610fa757005b60405162461bcd60e51b815260206004820152601160248201527015da5d1a191c985dd85b0819985a5b1959607a1b6044820152606490fd5b610ff8915060203d8111610a5757610a49818361127b565b81610f9f565b34610195576000366003190112610195576001546040516001600160a01b039091168152602090f35b34610195576040366003190112610195576110bd6000611045611417565b604051906110528261125f565b60028252604036602084013761106782611566565b6001600160a01b03909116905273da1fe1db9b04a810cbb214a294667833e4c8d8f761109282611589565b526040518093819263d06ca61f60e01b83526024356004840152604060248401526044830190611615565b0381737a250d5630b4cf539739df2c5dacb4c659f2488d5afa9081156109e5576020916110f2916000916110fb575b50611566565b51604051908152f35b61111091503d806000833e610a73818361127b565b836110ec565b346101955760003660031901126101955761112f6114a2565b600180546001600160a01b031981169091556000906001600160a01b03167f8be0079c531659141344cd1fd0a4f28419497f9722a3daafe3b4186f6b6457e08280a3005b346101955760203660031901126101955761118c611652565b506004356000526003602052610f326111ad60206100df604060002061129d565b8101600281520301902060ff600960405192610eb184611242565b34610195576020366003190112610195576004356000526003602052610f326111f4604060002061129d565b604051918291602083526020830190611366565b90600182811c92168015611238575b602083101461122257565b634e487b7160e01b600052602260045260246000fd5b91607f1691611217565b610140810190811067ffffffffffffffff82111761099b57604052565b6060810190811067ffffffffffffffff82111761099b57604052565b90601f8019910116810190811067ffffffffffffffff82111761099b57604052565b90604051918260008254926112b184611208565b90818452600194858116908160001461132057506001146112dd575b50506112db9250038361127b565b565b9093915060005260209081600020936000915b8183106113085750506112db935082010138806112cd565b855488840185015294850194879450918301916112f0565b9150506112db94506020925060ff191682840152151560051b82010138806112cd565b60005b8381106113565750506000910152565b8181015183820152602001611346565b9060209161137f81518092818552858086019101611343565b601f01601f1916010190565b6020815281516113a961014091826020850152610160840190611366565b9260018060a01b03806020830151166040850152806040830151166060850152806060830151166080850152608082015160a085015260a08201511660c084015260c081015160e084015260e081015161010090818501528101519061012091828501520151151591015290565b600435906001600160a01b038216820361019557565b9181601f840112156101955782359167ffffffffffffffff8311610195576020838186019501011161019557565b92919267ffffffffffffffff821161099b5760405191611485601f8201601f19166020018461127b565b829481845281830111610195578281602093846000960137010152565b6001546001600160a01b031633036114b657565b606460405162461bcd60e51b815260206004820152602060248201527f4f776e61626c653a2063616c6c6572206973206e6f7420746865206f776e65726044820152fd5b90601f811161150857505050565b600091825260208220906020601f850160051c83019410611544575b601f0160051c01915b82811061153957505050565b81815560010161152d565b9092508290611524565b90816020910312610195575180151581036101955790565b8051156115735760200190565b634e487b7160e01b600052603260045260246000fd5b8051600110156115735760400190565b90602090818382031261019557825167ffffffffffffffff93848211610195570181601f8201121561019557805193841161099b578360051b90604051946115e38584018761127b565b85528380860192820101928311610195578301905b828210611606575050505090565b815181529083019083016115f8565b90815180825260208080930193019160005b828110611635575050505090565b83516001600160a01b031685529381019392810192600101611627565b6040519061165f82611242565b81606081526101206000918260208201528260408201528260608201528260808201528260a08201528260c08201528260e082015282610100820152015256fea26469706673582212203590b5f91c4ae414a85f7bddb8a7ec766ed9e47c78263af3ff05ffd51b579eee64736f6c63430008130033","opcodes":"PUSH1 0x80 DUP1 PUSH1 0x40 MSTORE CALLVALUE PUSH2 0x5E JUMPI PUSH1 0x1 PUSH1 0x0 DUP2 DUP2 SSTORE DUP2 SLOAD CALLER PUSH1 0x1 PUSH1 0x1 PUSH1 0xA0 SHL SUB NOT DUP3 AND DUP2 OR SWAP1 SWAP4 SSTORE PUSH1 0x1 PUSH1 0x1 PUSH1 0xA0 SHL SUB AND SWAP1 PUSH32 0x8BE0079C531659141344CD1FD0A4F28419497F9722A3DAAFE3B4186F6B6457E0 SWAP1 DUP1 LOG3 PUSH2 0x16D5 SWAP1 DUP2 PUSH2 0x64 DUP3 CODECOPY RETURN JUMPDEST PUSH1 0x0 DUP1 REVERT INVALID PUSH1 0x80 PUSH1 0x40 MSTORE PUSH1 0x4 CALLDATASIZE LT ISZERO PUSH2 0x12 JUMPI PUSH1 0x0 DUP1 REVERT JUMPDEST PUSH1 0x0 CALLDATALOAD PUSH1 0xE0 SHR DUP1 PUSH4 0x566A3C7C EQ PUSH2 0x11C8 JUMPI DUP1 PUSH4 0x6B440DE2 EQ PUSH2 0x1173 JUMPI DUP1 PUSH4 0x715018A6 EQ PUSH2 0x1116 JUMPI DUP1 PUSH4 0x82C0AB21 EQ PUSH2 0x1027 JUMPI DUP1 PUSH4 0x8DA5CB5B EQ PUSH2 0xFFE JUMPI DUP1 PUSH4 0x9E281A98 EQ PUSH2 0xF36 JUMPI DUP1 PUSH4 0xC69207A3 EQ PUSH2 0xE4C JUMPI DUP1 PUSH4 0xE086E5EC EQ PUSH2 0xE08 JUMPI DUP1 PUSH4 0xF0A40393 EQ PUSH2 0x263 JUMPI DUP1 PUSH4 0xF2FDE38B EQ PUSH2 0x19A JUMPI PUSH4 0xF9468713 EQ PUSH2 0x95 JUMPI PUSH1 0x0 DUP1 REVERT JUMPDEST CALLVALUE PUSH2 0x195 JUMPI PUSH1 0x20 CALLDATASIZE PUSH1 0x3 NOT ADD SLT PUSH2 0x195 JUMPI PUSH1 0x4 CALLDATALOAD PUSH8 0xFFFFFFFFFFFFFFFF DUP2 GT PUSH2 0x195 JUMPI CALLDATASIZE PUSH1 0x23 DUP3 ADD SLT ISZERO PUSH2 0x195 JUMPI PUSH2 0xF2 PUSH1 0x20 PUSH2 0xDF PUSH2 0x15F SWAP4 CALLDATASIZE SWAP1 PUSH1 0x24 DUP2 PUSH1 0x4 ADD CALLDATALOAD SWAP2 ADD PUSH2 0x145B JUMP JUMPDEST DUP2 PUSH1 0x40 MLOAD SWAP4 DUP3 DUP6 DUP1 SWAP5 MLOAD SWAP4 DUP5 SWAP3 ADD PUSH2 0x1343 JUMP JUMPDEST DUP2 ADD PUSH1 0x2 DUP2 MSTORE SUB ADD SWAP1 KECCAK256 PUSH2 0x105 DUP2 PUSH2 0x129D JUMP JUMPDEST SWAP1 PUSH1 0x1 DUP1 PUSH1 0xA0 SHL SUB DUP1 PUSH1 0x1 DUP4 ADD SLOAD AND SWAP2 DUP2 PUSH1 0x2 DUP3 ADD SLOAD AND SWAP2 DUP1 PUSH1 0x3 DUP4 ADD SLOAD AND SWAP1 PUSH1 0x4 DUP4 ADD SLOAD SWAP1 PUSH1 0x5 DUP5 ADD SLOAD AND PUSH1 0x6 DUP5 ADD SLOAD SWAP2 PUSH1 0x7 DUP6 ADD SLOAD SWAP4 PUSH1 0xFF PUSH1 0x9 PUSH1 0x8 DUP9 ADD SLOAD SWAP8 ADD SLOAD AND SWAP7 PUSH1 0x40 MLOAD SWAP11 DUP12 SWAP11 PUSH2 0x140 DUP1 DUP14 MSTORE DUP13 ADD SWAP1 PUSH2 0x1366 JUMP JUMPDEST SWAP9 PUSH1 0x20 DUP12 ADD MSTORE PUSH1 0x40 DUP11 ADD MSTORE PUSH1 0x60 DUP10 ADD MSTORE PUSH1 0x80 DUP9 ADD MSTORE PUSH1 0xA0 DUP8 ADD MSTORE PUSH1 0xC0 DUP7 ADD MSTORE PUSH1 0xE0 DUP6 ADD MSTORE PUSH2 0x100 DUP5 ADD MSTORE ISZERO ISZERO PUSH2 0x120 DUP4 ADD MSTORE SUB SWAP1 RETURN JUMPDEST PUSH1 0x0 DUP1 REVERT JUMPDEST CALLVALUE PUSH2 0x195 JUMPI PUSH1 0x20 CALLDATASIZE PUSH1 0x3 NOT ADD SLT PUSH2 0x195 JUMPI PUSH2 0x1B3 PUSH2 0x1417 JUMP JUMPDEST PUSH2 0x1BB PUSH2 0x14A2 JUMP JUMPDEST PUSH1 0x1 PUSH1 0x1 PUSH1 0xA0 SHL SUB SWAP1 DUP2 AND SWAP1 DUP2 ISZERO PUSH2 0x20F JUMPI PUSH1 0x1 SLOAD DUP3 PUSH12 0xFFFFFFFFFFFFFFFFFFFFFFFF PUSH1 0xA0 SHL DUP3 AND OR PUSH1 0x1 SSTORE AND PUSH32 0x8BE0079C531659141344CD1FD0A4F28419497F9722A3DAAFE3B4186F6B6457E0 PUSH1 0x0 DUP1 LOG3 STOP JUMPDEST PUSH1 0x40 MLOAD PUSH3 0x461BCD PUSH1 0xE5 SHL DUP2 MSTORE PUSH1 0x20 PUSH1 0x4 DUP3 ADD MSTORE PUSH1 0x26 PUSH1 0x24 DUP3 ADD MSTORE PUSH32 0x4F776E61626C653A206E6577206F776E657220697320746865207A65726F2061 PUSH1 0x44 DUP3 ADD MSTORE PUSH6 0x646472657373 PUSH1 0xD0 SHL PUSH1 0x64 DUP3 ADD MSTORE PUSH1 0x84 SWAP1 REVERT JUMPDEST CALLVALUE PUSH2 0x195 JUMPI PUSH1 0xE0 CALLDATASIZE PUSH1 0x3 NOT ADD SLT PUSH2 0x195 JUMPI PUSH1 0x4 CALLDATALOAD PUSH8 0xFFFFFFFFFFFFFFFF DUP2 GT PUSH2 0x195 JUMPI PUSH2 0x294 SWAP1 CALLDATASIZE SWAP1 PUSH1 0x4 ADD PUSH2 0x142D JUMP JUMPDEST PUSH1 0x24 CALLDATALOAD SWAP1 PUSH1 0x1 PUSH1 0x1 PUSH1 0xA0 SHL SUB DUP3 AND DUP3 SUB PUSH2 0x195 JUMPI PUSH1 0x64 CALLDATALOAD PUSH1 0x1 PUSH1 0x1 PUSH1 0xA0 SHL SUB DUP2 AND DUP2 SUB PUSH2 0x195 JUMPI PUSH1 0x84 CALLDATALOAD SWAP3 PUSH1 0x1 PUSH1 0x1 PUSH1 0xA0 SHL SUB DUP5 AND DUP5 SUB PUSH2 0x195 JUMPI PUSH1 0x2 PUSH1 0x0 SLOAD EQ PUSH2 0xDC3 JUMPI PUSH1 0x2 PUSH1 0x0 SSTORE DUP3 ISZERO PUSH2 0xD89 JUMPI PUSH1 0x40 MLOAD DUP4 DUP7 DUP3 CALLDATACOPY PUSH1 0x2 DUP2 DUP6 ADD SWAP1 DUP2 MSTORE DUP2 SWAP1 SUB PUSH1 0x20 ADD SWAP1 KECCAK256 PUSH1 0x1 ADD SLOAD PUSH1 0x1 PUSH1 0x1 PUSH1 0xA0 SHL SUB AND PUSH2 0xD44 JUMPI PUSH1 0x1 PUSH1 0x1 PUSH1 0xA0 SHL SUB DUP2 AND PUSH20 0x1C7D4B196CB0C7B01D743FBC6116A902379C7238 EQ DUP1 ISZERO PUSH2 0xD1E JUMPI JUMPDEST ISZERO PUSH2 0xCD9 JUMPI PUSH1 0x44 CALLDATALOAD ISZERO PUSH2 0xC9B JUMPI PUSH1 0x1 PUSH1 0x1 PUSH1 0xA0 SHL SUB DUP3 AND ISZERO PUSH2 0xC56 JUMPI PUSH1 0x1 PUSH1 0x1 PUSH1 0xA0 SHL SUB DUP5 AND ISZERO PUSH2 0xC11 JUMPI PUSH1 0xA4 CALLDATALOAD ISZERO PUSH2 0xBCC JUMPI PUSH1 0x40 MLOAD PUSH2 0x372 DUP2 PUSH2 0x1242 JUMP JUMPDEST PUSH2 0x37D CALLDATASIZE DUP6 DUP9 PUSH2 0x145B JUMP JUMPDEST DUP2 MSTORE CALLER PUSH1 0x20 DUP3 ADD MSTORE PUSH1 0x1 PUSH1 0x1 PUSH1 0xA0 SHL SUB DUP4 DUP2 AND PUSH1 0x40 DUP1 DUP5 ADD SWAP2 SWAP1 SWAP2 MSTORE DUP4 DUP3 AND PUSH1 0x60 DUP5 ADD MSTORE PUSH1 0x44 CALLDATALOAD PUSH1 0x80 DUP5 ADD MSTORE SWAP1 DUP7 AND PUSH1 0xA0 DUP4 ADD MSTORE PUSH1 0xA4 CALLDATALOAD PUSH1 0xC0 DUP4 ADD MSTORE PUSH1 0x0 PUSH1 0xE0 DUP4 ADD DUP2 SWAP1 MSTORE PUSH2 0x100 DUP4 ADD DUP2 SWAP1 MSTORE PUSH2 0x120 DUP4 ADD MSTORE MLOAD DUP5 DUP8 DUP3 CALLDATACOPY PUSH1 0x20 DUP2 DUP7 DUP2 ADD PUSH1 0x2 DUP2 MSTORE SUB ADD SWAP1 KECCAK256 DUP2 MLOAD DUP1 MLOAD SWAP1 PUSH8 0xFFFFFFFFFFFFFFFF DUP3 GT PUSH2 0x99B JUMPI PUSH2 0x40B DUP3 PUSH2 0x405 DUP6 SLOAD PUSH2 0x1208 JUMP JUMPDEST DUP6 PUSH2 0x14FA JUMP JUMPDEST PUSH1 0x20 SWAP1 PUSH1 0x1F DUP4 GT PUSH1 0x1 EQ PUSH2 0xB5C JUMPI SWAP2 DUP1 PUSH2 0x120 SWAP5 SWAP3 PUSH1 0x9 SWAP5 PUSH1 0x0 SWAP3 PUSH2 0xB51 JUMPI JUMPDEST POP POP DUP2 PUSH1 0x1 SHL SWAP2 PUSH1 0x0 NOT SWAP1 PUSH1 0x3 SHL SHR NOT AND OR DUP2 SSTORE JUMPDEST PUSH1 0x1 DUP2 ADD PUSH1 0x1 DUP1 PUSH1 0xA0 SHL SUB PUSH1 0x20 DUP7 ADD MLOAD AND SWAP1 PUSH12 0xFFFFFFFFFFFFFFFFFFFFFFFF PUSH1 0xA0 SHL SWAP2 DUP3 DUP3 SLOAD AND OR SWAP1 SSTORE PUSH1 0x2 DUP3 ADD PUSH1 0x1 DUP1 PUSH1 0xA0 SHL SUB PUSH1 0x40 DUP8 ADD MLOAD AND DUP3 DUP3 SLOAD AND OR SWAP1 SSTORE PUSH1 0x3 DUP3 ADD PUSH1 0x1 DUP1 PUSH1 0xA0 SHL SUB PUSH1 0x60 DUP8 ADD MLOAD AND DUP3 DUP3 SLOAD AND OR SWAP1 SSTORE PUSH1 0x80 DUP6 ADD MLOAD PUSH1 0x4 DUP4 ADD SSTORE PUSH1 0x5 DUP3 ADD SWAP1 PUSH1 0x1 DUP1 PUSH1 0xA0 SHL SUB PUSH1 0xA0 DUP8 ADD MLOAD AND SWAP1 DUP3 SLOAD AND OR SWAP1 SSTORE PUSH1 0xC0 DUP5 ADD MLOAD PUSH1 0x6 DUP3 ADD SSTORE PUSH1 0xE0 DUP5 ADD MLOAD PUSH1 0x7 DUP3 ADD SSTORE PUSH2 0x100 DUP5 ADD MLOAD PUSH1 0x8 DUP3 ADD SSTORE ADD SWAP2 ADD MLOAD ISZERO ISZERO PUSH1 0xFF DUP1 NOT DUP4 SLOAD AND SWAP2 AND OR SWAP1 SSTORE PUSH1 0x40 MLOAD DUP4 DUP7 DUP3 CALLDATACOPY PUSH1 0x0 DUP5 DUP3 ADD SWAP1 DUP2 MSTORE DUP2 SWAP1 SUB SWAP1 KECCAK256 PUSH1 0x40 DUP1 MLOAD PUSH1 0x1 PUSH1 0x1 PUSH1 0xA0 SHL SUB DUP5 DUP2 AND DUP3 MSTORE PUSH1 0x44 CALLDATALOAD PUSH1 0x20 DUP4 ADD MSTORE DUP8 DUP2 AND SWAP3 DUP3 ADD SWAP3 SWAP1 SWAP3 MSTORE PUSH1 0xA4 CALLDATALOAD PUSH1 0x60 DUP3 ADD MSTORE SWAP1 DUP5 AND SWAP2 CALLER SWAP2 PUSH32 0x1972DD5828C90D9D8AD8F12419F78D57C2EF63F450BE27E05280D4BADA424251 SWAP1 PUSH1 0x80 SWAP1 LOG4 PUSH1 0x40 MLOAD PUSH4 0x23B872DD PUSH1 0xE0 SHL DUP2 MSTORE CALLER PUSH1 0x4 DUP3 ADD MSTORE ADDRESS PUSH1 0x24 DUP3 ADD MSTORE PUSH1 0x44 DUP1 CALLDATALOAD SWAP1 DUP3 ADD MSTORE PUSH1 0x20 DUP2 PUSH1 0x64 DUP2 PUSH1 0x0 PUSH1 0x1 PUSH1 0x1 PUSH1 0xA0 SHL SUB DUP8 AND GAS CALL SWAP1 DUP2 ISZERO PUSH2 0x9E5 JUMPI PUSH1 0x0 SWAP2 PUSH2 0xB32 JUMPI JUMPDEST POP ISZERO PUSH2 0xAED JUMPI PUSH1 0x40 MLOAD PUSH4 0x95EA7B3 PUSH1 0xE0 SHL DUP2 MSTORE PUSH20 0x7A250D5630B4CF539739DF2C5DACB4C659F2488D PUSH1 0x4 DUP3 ADD MSTORE PUSH1 0x44 DUP1 CALLDATALOAD PUSH1 0x24 DUP4 ADD MSTORE PUSH1 0x20 SWAP1 DUP3 SWAP1 DUP2 PUSH1 0x0 PUSH1 0x1 PUSH1 0x1 PUSH1 0xA0 SHL SUB DUP8 AND GAS CALL SWAP1 DUP2 ISZERO PUSH2 0x9E5 JUMPI PUSH1 0x0 SWAP2 PUSH2 0xACE JUMPI JUMPDEST POP ISZERO PUSH2 0xA97 JUMPI PUSH1 0x40 MLOAD SWAP1 PUSH2 0x609 DUP3 PUSH2 0x125F JUMP JUMPDEST PUSH1 0x2 DUP3 MSTORE PUSH1 0x40 CALLDATASIZE PUSH1 0x20 DUP5 ADD CALLDATACOPY PUSH1 0x1 PUSH1 0x1 PUSH1 0xA0 SHL SUB AND PUSH2 0x627 DUP3 PUSH2 0x1566 JUMP JUMPDEST MSTORE PUSH20 0xDA1FE1DB9B04A810CBB214A294667833E4C8D8F7 PUSH2 0x646 DUP3 PUSH2 0x1589 JUMP JUMPDEST MSTORE PUSH2 0x12C TIMESTAMP ADD TIMESTAMP GT PUSH2 0xA81 JUMPI PUSH1 0x0 PUSH2 0x68A SWAP2 PUSH1 0x40 MLOAD DUP1 SWAP4 DUP2 SWAP3 PUSH4 0x38ED1739 PUSH1 0xE0 SHL DUP4 MSTORE PUSH1 0x44 CALLDATALOAD PUSH1 0x4 DUP5 ADD MSTORE PUSH1 0xC4 CALLDATALOAD PUSH1 0x24 DUP5 ADD MSTORE PUSH1 0xA0 PUSH1 0x44 DUP5 ADD MSTORE PUSH1 0xA4 DUP4 ADD SWAP1 PUSH2 0x1615 JUMP JUMPDEST ADDRESS PUSH1 0x64 DUP4 ADD MSTORE PUSH2 0x12C TIMESTAMP ADD PUSH1 0x84 DUP4 ADD MSTORE SUB DUP2 DUP4 PUSH20 0x7A250D5630B4CF539739DF2C5DACB4C659F2488D GAS CALL DUP1 ISZERO PUSH2 0x9E5 JUMPI PUSH2 0x6CC SWAP2 PUSH1 0x0 SWAP2 PUSH2 0xA5E JUMPI JUMPDEST POP PUSH2 0x1589 JUMP JUMPDEST MLOAD SWAP3 DUP4 PUSH1 0x7 PUSH1 0x40 MLOAD DUP6 DUP9 DUP3 CALLDATACOPY PUSH1 0x20 DUP2 DUP8 DUP2 ADD PUSH1 0x2 DUP2 MSTORE SUB ADD SWAP1 KECCAK256 ADD SSTORE PUSH1 0x40 MLOAD DUP4 DUP7 DUP3 CALLDATACOPY DUP1 DUP5 DUP2 ADD PUSH1 0x0 DUP2 MSTORE SUB SWAP1 KECCAK256 PUSH32 0x3E3806CCF20061002B91D4F4083A8AC93B060D2DD54AF8A42400FE0E713B2EA6 PUSH1 0x20 PUSH1 0x40 MLOAD DUP8 DUP2 MSTORE LOG2 PUSH2 0x72F CALLDATASIZE DUP5 DUP8 PUSH2 0x145B JUMP JUMPDEST PUSH1 0x40 MLOAD PUSH4 0x95EA7B3 PUSH1 0xE0 SHL DUP2 MSTORE PUSH20 0xEB2A0B7AAADD23851C08B963C3F4FBE00B897C04 PUSH1 0x4 DUP3 ADD MSTORE PUSH1 0x24 DUP2 ADD DUP7 SWAP1 MSTORE PUSH1 0x20 DUP2 PUSH1 0x44 DUP2 PUSH1 0x0 PUSH20 0xDA1FE1DB9B04A810CBB214A294667833E4C8D8F7 GAS CALL SWAP1 DUP2 ISZERO PUSH2 0x9E5 JUMPI PUSH1 0x0 SWAP2 PUSH2 0xA2F JUMPI JUMPDEST POP ISZERO PUSH2 0x9F1 JUMPI PUSH2 0x7E0 SWAP3 PUSH2 0x7B0 SWAP3 PUSH1 0x40 MLOAD SWAP4 DUP5 SWAP4 PUSH1 0x80 PUSH1 0x20 DUP7 ADD MSTORE PUSH1 0xA0 DUP6 ADD SWAP1 PUSH2 0x1366 JUMP JUMPDEST PUSH1 0x1 PUSH1 0x1 PUSH1 0xA0 SHL SUB SWAP3 DUP4 AND PUSH1 0x40 DUP6 ADD MSTORE SWAP2 AND PUSH1 0x60 DUP4 ADD MSTORE PUSH1 0xA4 CALLDATALOAD PUSH1 0x80 DUP4 ADD MSTORE DUP2 SWAP1 SUB PUSH1 0x1F NOT DUP2 ADD SWAP1 SWAP2 MSTORE SWAP1 PUSH2 0x127B JUMP JUMPDEST PUSH1 0x40 MLOAD PUSH4 0x206D3A2D PUSH1 0xE2 SHL DUP2 MSTORE PUSH3 0x15B32 PUSH1 0x4 DUP3 ADD MSTORE PUSH20 0x1234567890123456789012345678901234567890 PUSH1 0x24 DUP3 ADD MSTORE PUSH1 0x44 DUP2 ADD DUP4 SWAP1 MSTORE SWAP3 PUSH1 0x20 DUP5 PUSH1 0x64 DUP2 PUSH1 0x0 PUSH20 0xEB2A0B7AAADD23851C08B963C3F4FBE00B897C04 GAS CALL SWAP4 DUP5 ISZERO PUSH2 0x9E5 JUMPI PUSH1 0x0 SWAP5 PUSH2 0x9B1 JUMPI JUMPDEST POP DUP4 PUSH1 0x8 PUSH1 0x40 MLOAD DUP5 DUP5 DUP3 CALLDATACOPY PUSH1 0x20 DUP2 DUP7 DUP2 ADD PUSH1 0x2 DUP2 MSTORE SUB ADD SWAP1 KECCAK256 ADD SSTORE DUP4 PUSH1 0x0 MSTORE PUSH1 0x3 PUSH1 0x20 MSTORE PUSH1 0x40 PUSH1 0x0 KECCAK256 PUSH8 0xFFFFFFFFFFFFFFFF DUP4 GT PUSH2 0x99B JUMPI PUSH2 0x892 DUP4 PUSH2 0x88C DUP4 SLOAD PUSH2 0x1208 JUMP JUMPDEST DUP4 PUSH2 0x14FA JUMP JUMPDEST PUSH1 0x0 PUSH1 0x1F DUP5 GT PUSH1 0x1 EQ PUSH2 0x90F JUMPI SWAP2 DUP4 SWAP2 PUSH32 0x79797B078516029AF81F4B555A8E8090178C741D1853ADFD7B87DDFF4EF8493F SWAP5 PUSH1 0x20 SWAP5 PUSH1 0x0 SWAP2 PUSH2 0x904 JUMPI JUMPDEST POP DUP4 PUSH1 0x1 SHL SWAP1 PUSH1 0x0 NOT DUP6 PUSH1 0x3 SHL SHR NOT AND OR SWAP1 SSTORE JUMPDEST DUP2 PUSH1 0x40 MLOAD SWAP3 DUP4 SWAP3 DUP4 CALLDATACOPY DUP2 ADD PUSH1 0x0 DUP2 MSTORE SUB SWAP1 KECCAK256 SWAP3 PUSH1 0x40 MLOAD SWAP1 DUP2 MSTORE LOG3 PUSH1 0x1 PUSH1 0x0 SSTORE STOP JUMPDEST SWAP1 POP DUP3 ADD CALLDATALOAD DUP9 PUSH2 0x8CF JUMP JUMPDEST PUSH1 0x1F NOT DUP5 AND SWAP1 DUP3 PUSH1 0x0 MSTORE PUSH1 0x20 PUSH1 0x0 KECCAK256 SWAP2 PUSH1 0x0 JUMPDEST DUP2 DUP2 LT PUSH2 0x983 JUMPI POP SWAP2 DUP6 SWAP4 SWAP2 PUSH32 0x79797B078516029AF81F4B555A8E8090178C741D1853ADFD7B87DDFF4EF8493F SWAP7 PUSH1 0x20 SWAP7 SWAP5 LT PUSH2 0x969 JUMPI JUMPDEST POP POP PUSH1 0x1 DUP4 DUP2 SHL ADD SWAP1 SSTORE PUSH2 0x8E3 JUMP JUMPDEST DUP4 ADD CALLDATALOAD PUSH1 0x0 NOT PUSH1 0x3 DUP7 SWAP1 SHL PUSH1 0xF8 AND SHR NOT AND SWAP1 SSTORE DUP8 DUP1 PUSH2 0x95A JUMP JUMPDEST SWAP2 SWAP3 PUSH1 0x20 PUSH1 0x1 DUP2 SWAP3 DUP7 DUP10 ADD CALLDATALOAD DUP2 SSTORE ADD SWAP5 ADD SWAP3 ADD PUSH2 0x922 JUMP JUMPDEST PUSH4 0x4E487B71 PUSH1 0xE0 SHL PUSH1 0x0 MSTORE PUSH1 0x41 PUSH1 0x4 MSTORE PUSH1 0x24 PUSH1 0x0 REVERT JUMPDEST SWAP1 SWAP4 POP PUSH1 0x20 DUP2 RETURNDATASIZE PUSH1 0x20 GT PUSH2 0x9DD JUMPI JUMPDEST DUP2 PUSH2 0x9CD PUSH1 0x20 SWAP4 DUP4 PUSH2 0x127B JUMP JUMPDEST DUP2 ADD SUB SLT PUSH2 0x195 JUMPI MLOAD SWAP3 DUP5 PUSH2 0x846 JUMP JUMPDEST RETURNDATASIZE SWAP2 POP PUSH2 0x9C0 JUMP JUMPDEST PUSH1 0x40 MLOAD RETURNDATASIZE PUSH1 0x0 DUP3 RETURNDATACOPY RETURNDATASIZE SWAP1 REVERT JUMPDEST PUSH1 0x40 MLOAD PUSH3 0x461BCD PUSH1 0xE5 SHL DUP2 MSTORE PUSH1 0x20 PUSH1 0x4 DUP3 ADD MSTORE PUSH1 0x16 PUSH1 0x24 DUP3 ADD MSTORE PUSH22 0x109C9A5919D948185C1C1C9BDD985B0819985A5B1959 PUSH1 0x52 SHL PUSH1 0x44 DUP3 ADD MSTORE PUSH1 0x64 SWAP1 REVERT JUMPDEST PUSH2 0xA51 SWAP2 POP PUSH1 0x20 RETURNDATASIZE PUSH1 0x20 GT PUSH2 0xA57 JUMPI JUMPDEST PUSH2 0xA49 DUP2 DUP4 PUSH2 0x127B JUMP JUMPDEST DUP2 ADD SWAP1 PUSH2 0x154E JUMP JUMPDEST DUP8 PUSH2 0x78B JUMP JUMPDEST POP RETURNDATASIZE PUSH2 0xA3F JUMP JUMPDEST PUSH2 0xA7B SWAP2 POP RETURNDATASIZE DUP1 PUSH1 0x0 DUP4 RETURNDATACOPY PUSH2 0xA73 DUP2 DUP4 PUSH2 0x127B JUMP JUMPDEST DUP2 ADD SWAP1 PUSH2 0x1599 JUMP JUMPDEST DUP7 PUSH2 0x6C6 JUMP JUMPDEST PUSH4 0x4E487B71 PUSH1 0xE0 SHL PUSH1 0x0 MSTORE PUSH1 0x11 PUSH1 0x4 MSTORE PUSH1 0x24 PUSH1 0x0 REVERT JUMPDEST PUSH1 0x40 MLOAD PUSH3 0x461BCD PUSH1 0xE5 SHL DUP2 MSTORE PUSH1 0x20 PUSH1 0x4 DUP3 ADD MSTORE PUSH1 0xF PUSH1 0x24 DUP3 ADD MSTORE PUSH15 0x105C1C1C9BDD985B0819985A5B1959 PUSH1 0x8A SHL PUSH1 0x44 DUP3 ADD MSTORE PUSH1 0x64 SWAP1 REVERT JUMPDEST PUSH2 0xAE7 SWAP2 POP PUSH1 0x20 RETURNDATASIZE PUSH1 0x20 GT PUSH2 0xA57 JUMPI PUSH2 0xA49 DUP2 DUP4 PUSH2 0x127B JUMP JUMPDEST DUP7 PUSH2 0x5F6 JUMP JUMPDEST PUSH1 0x40 MLOAD PUSH3 0x461BCD PUSH1 0xE5 SHL DUP2 MSTORE PUSH1 0x20 PUSH1 0x4 DUP3 ADD MSTORE PUSH1 0x1D PUSH1 0x24 DUP3 ADD MSTORE PUSH32 0x5061796D656E7420746F6B656E207472616E73666572206661696C6564000000 PUSH1 0x44 DUP3 ADD MSTORE PUSH1 0x64 SWAP1 REVERT JUMPDEST PUSH2 0xB4B SWAP2 POP PUSH1 0x20 RETURNDATASIZE PUSH1 0x20 GT PUSH2 0xA57 JUMPI PUSH2 0xA49 DUP2 DUP4 PUSH2 0x127B JUMP JUMPDEST DUP7 PUSH2 0x59D JUMP JUMPDEST ADD MLOAD SWAP1 POP DUP12 DUP1 PUSH2 0x42B JUMP JUMPDEST SWAP1 DUP4 PUSH1 0x0 MSTORE PUSH1 0x20 PUSH1 0x0 KECCAK256 SWAP2 PUSH1 0x0 JUMPDEST PUSH1 0x1F NOT DUP6 AND DUP2 LT PUSH2 0xBB4 JUMPI POP SWAP3 PUSH2 0x120 SWAP5 SWAP3 PUSH1 0x1 SWAP3 PUSH1 0x9 SWAP6 DUP4 PUSH1 0x1F NOT DUP2 AND LT PUSH2 0xB9B JUMPI JUMPDEST POP POP POP DUP2 SHL ADD DUP2 SSTORE PUSH2 0x440 JUMP JUMPDEST ADD MLOAD PUSH1 0x0 NOT PUSH1 0xF8 DUP5 PUSH1 0x3 SHL AND SHR NOT AND SWAP1 SSTORE DUP12 DUP1 DUP1 PUSH2 0xB8E JUMP JUMPDEST SWAP2 SWAP3 PUSH1 0x20 PUSH1 0x1 DUP2 SWAP3 DUP7 DUP6 ADD MLOAD DUP2 SSTORE ADD SWAP5 ADD SWAP3 ADD PUSH2 0xB6A JUMP JUMPDEST PUSH1 0x40 MLOAD PUSH3 0x461BCD PUSH1 0xE5 SHL DUP2 MSTORE PUSH1 0x20 PUSH1 0x4 DUP3 ADD MSTORE PUSH1 0x18 PUSH1 0x24 DUP3 ADD MSTORE PUSH32 0x496E76616C69642066616E20746F6B656E20616D6F756E740000000000000000 PUSH1 0x44 DUP3 ADD MSTORE PUSH1 0x64 SWAP1 REVERT JUMPDEST PUSH1 0x40 MLOAD PUSH3 0x461BCD PUSH1 0xE5 SHL DUP2 MSTORE PUSH1 0x20 PUSH1 0x4 DUP3 ADD MSTORE PUSH1 0x19 PUSH1 0x24 DUP3 ADD MSTORE PUSH32 0x496E76616C69642066616E20746F6B656E206164647265737300000000000000 PUSH1 0x44 DUP3 ADD MSTORE PUSH1 0x64 SWAP1 REVERT JUMPDEST PUSH1 0x40 MLOAD PUSH3 0x461BCD PUSH1 0xE5 SHL DUP2 MSTORE PUSH1 0x20 PUSH1 0x4 DUP3 ADD MSTORE PUSH1 0x18 PUSH1 0x24 DUP3 ADD MSTORE PUSH32 0x496E76616C6964206D65726368616E7420616464726573730000000000000000 PUSH1 0x44 DUP3 ADD MSTORE PUSH1 0x64 SWAP1 REVERT JUMPDEST PUSH1 0x40 MLOAD PUSH3 0x461BCD PUSH1 0xE5 SHL DUP2 MSTORE PUSH1 0x20 PUSH1 0x4 DUP3 ADD MSTORE PUSH1 0x16 PUSH1 0x24 DUP3 ADD MSTORE PUSH22 0x125B9D985B1A59081C185E5B595B9D08185B5BDD5B9D PUSH1 0x52 SHL PUSH1 0x44 DUP3 ADD MSTORE PUSH1 0x64 SWAP1 REVERT JUMPDEST PUSH1 0x40 MLOAD PUSH3 0x461BCD PUSH1 0xE5 SHL DUP2 MSTORE PUSH1 0x20 PUSH1 0x4 DUP3 ADD MSTORE PUSH1 0x19 PUSH1 0x24 DUP3 ADD MSTORE PUSH32 0x556E737570706F72746564207061796D656E7420746F6B656E00000000000000 PUSH1 0x44 DUP3 ADD MSTORE PUSH1 0x64 SWAP1 REVERT JUMPDEST POP PUSH1 0x1 PUSH1 0x1 PUSH1 0xA0 SHL SUB DUP2 AND PUSH20 0x7169D38820DFD117C3FA1F22A697DBA58D90BA06 EQ PUSH2 0x333 JUMP JUMPDEST PUSH1 0x40 MLOAD PUSH3 0x461BCD PUSH1 0xE5 SHL DUP2 MSTORE PUSH1 0x20 PUSH1 0x4 DUP3 ADD MSTORE PUSH1 0x19 PUSH1 0x24 DUP3 ADD MSTORE PUSH32 0x5061796D656E7420494420616C72656164792065786973747300000000000000 PUSH1 0x44 DUP3 ADD MSTORE PUSH1 0x64 SWAP1 REVERT JUMPDEST PUSH1 0x40 MLOAD PUSH3 0x461BCD PUSH1 0xE5 SHL DUP2 MSTORE PUSH1 0x20 PUSH1 0x4 DUP3 ADD MSTORE PUSH1 0x12 PUSH1 0x24 DUP3 ADD MSTORE PUSH18 0x125B9D985B1A59081C185E5B595B9D081251 PUSH1 0x72 SHL PUSH1 0x44 DUP3 ADD MSTORE PUSH1 0x64 SWAP1 REVERT JUMPDEST PUSH1 0x40 MLOAD PUSH3 0x461BCD PUSH1 0xE5 SHL DUP2 MSTORE PUSH1 0x20 PUSH1 0x4 DUP3 ADD MSTORE PUSH1 0x1F PUSH1 0x24 DUP3 ADD MSTORE PUSH32 0x5265656E7472616E637947756172643A207265656E7472616E742063616C6C00 PUSH1 0x44 DUP3 ADD MSTORE PUSH1 0x64 SWAP1 REVERT JUMPDEST CALLVALUE PUSH2 0x195 JUMPI PUSH1 0x0 CALLDATASIZE PUSH1 0x3 NOT ADD SLT PUSH2 0x195 JUMPI PUSH2 0xE21 PUSH2 0x14A2 JUMP JUMPDEST PUSH1 0x0 DUP1 DUP1 DUP1 PUSH1 0x1 DUP1 PUSH1 0xA0 SHL SUB PUSH1 0x1 SLOAD AND SELFBALANCE SWAP1 DUP3 DUP3 ISZERO PUSH2 0xE43 JUMPI JUMPDEST CALL ISZERO PUSH2 0x9E5 JUMPI STOP JUMPDEST POP PUSH2 0x8FC PUSH2 0xE3B JUMP JUMPDEST CALLVALUE PUSH2 0x195 JUMPI PUSH1 0x20 CALLDATASIZE PUSH1 0x3 NOT ADD SLT PUSH2 0x195 JUMPI PUSH1 0x4 CALLDATALOAD PUSH8 0xFFFFFFFFFFFFFFFF DUP2 GT PUSH2 0x195 JUMPI PUSH1 0x20 PUSH2 0xE82 PUSH2 0xF32 SWAP3 CALLDATASIZE SWAP1 PUSH1 0x4 ADD PUSH2 0x142D JUMP JUMPDEST SWAP2 SWAP1 PUSH2 0xE8C PUSH2 0x1652 JUMP JUMPDEST POP DUP3 PUSH1 0x40 MLOAD SWAP4 DUP5 SWAP3 DUP4 CALLDATACOPY DUP2 ADD PUSH1 0x2 DUP2 MSTORE SUB ADD SWAP1 KECCAK256 PUSH1 0xFF PUSH1 0x9 PUSH1 0x40 MLOAD SWAP3 PUSH2 0xEB1 DUP5 PUSH2 0x1242 JUMP JUMPDEST PUSH2 0xEBA DUP2 PUSH2 0x129D JUMP JUMPDEST DUP5 MSTORE PUSH1 0x1 DUP1 PUSH1 0xA0 SHL SUB DUP1 PUSH1 0x1 DUP4 ADD SLOAD AND PUSH1 0x20 DUP7 ADD MSTORE DUP1 PUSH1 0x2 DUP4 ADD SLOAD AND PUSH1 0x40 DUP7 ADD MSTORE DUP1 PUSH1 0x3 DUP4 ADD SLOAD AND PUSH1 0x60 DUP7 ADD MSTORE PUSH1 0x4 DUP3 ADD SLOAD PUSH1 0x80 DUP7 ADD MSTORE PUSH1 0x5 DUP3 ADD SLOAD AND PUSH1 0xA0 DUP6 ADD MSTORE PUSH1 0x6 DUP2 ADD SLOAD PUSH1 0xC0 DUP6 ADD MSTORE PUSH1 0x7 DUP2 ADD SLOAD PUSH1 0xE0 DUP6 ADD MSTORE PUSH1 0x8 DUP2 ADD SLOAD PUSH2 0x100 DUP6 ADD MSTORE ADD SLOAD AND ISZERO ISZERO PUSH2 0x120 DUP3 ADD MSTORE PUSH1 0x40 MLOAD SWAP2 DUP3 SWAP2 DUP3 PUSH2 0x138B JUMP JUMPDEST SUB SWAP1 RETURN JUMPDEST CALLVALUE PUSH2 0x195 JUMPI PUSH1 0x40 CALLDATASIZE PUSH1 0x3 NOT ADD SLT PUSH2 0x195 JUMPI PUSH2 0xF4F PUSH2 0x1417 JUMP JUMPDEST PUSH2 0xF57 PUSH2 0x14A2 JUMP JUMPDEST PUSH1 0x1 SLOAD PUSH1 0x40 MLOAD PUSH4 0xA9059CBB PUSH1 0xE0 SHL DUP2 MSTORE PUSH1 0x1 PUSH1 0x1 PUSH1 0xA0 SHL SUB SWAP2 DUP3 AND PUSH1 0x4 DUP3 ADD MSTORE PUSH1 0x24 DUP1 CALLDATALOAD SWAP1 DUP3 ADD MSTORE SWAP2 PUSH1 0x20 SWAP2 DUP4 SWAP2 PUSH1 0x44 SWAP2 DUP4 SWAP2 PUSH1 0x0 SWAP2 AND GAS CALL SWAP1 DUP2 ISZERO PUSH2 0x9E5 JUMPI PUSH1 0x0 SWAP2 PUSH2 0xFE0 JUMPI JUMPDEST POP ISZERO PUSH2 0xFA7 JUMPI STOP JUMPDEST PUSH1 0x40 MLOAD PUSH3 0x461BCD PUSH1 0xE5 SHL DUP2 MSTORE PUSH1 0x20 PUSH1 0x4 DUP3 ADD MSTORE PUSH1 0x11 PUSH1 0x24 DUP3 ADD MSTORE PUSH17 0x15DA5D1A191C985DD85B0819985A5B1959 PUSH1 0x7A SHL PUSH1 0x44 DUP3 ADD MSTORE PUSH1 0x64 SWAP1 REVERT JUMPDEST PUSH2 0xFF8 SWAP2 POP PUSH1 0x20 RETURNDATASIZE DUP2 GT PUSH2 0xA57 JUMPI PUSH2 0xA49 DUP2 DUP4 PUSH2 0x127B JUMP JUMPDEST DUP2 PUSH2 0xF9F JUMP JUMPDEST CALLVALUE PUSH2 0x195 JUMPI PUSH1 0x0 CALLDATASIZE PUSH1 0x3 NOT ADD SLT PUSH2 0x195 JUMPI PUSH1 0x1 SLOAD PUSH1 0x40 MLOAD PUSH1 0x1 PUSH1 0x1 PUSH1 0xA0 SHL SUB SWAP1 SWAP2 AND DUP2 MSTORE PUSH1 0x20 SWAP1 RETURN JUMPDEST CALLVALUE PUSH2 0x195 JUMPI PUSH1 0x40 CALLDATASIZE PUSH1 0x3 NOT ADD SLT PUSH2 0x195 JUMPI PUSH2 0x10BD PUSH1 0x0 PUSH2 0x1045 PUSH2 0x1417 JUMP JUMPDEST PUSH1 0x40 MLOAD SWAP1 PUSH2 0x1052 DUP3 PUSH2 0x125F JUMP JUMPDEST PUSH1 0x2 DUP3 MSTORE PUSH1 0x40 CALLDATASIZE PUSH1 0x20 DUP5 ADD CALLDATACOPY PUSH2 0x1067 DUP3 PUSH2 0x1566 JUMP JUMPDEST PUSH1 0x1 PUSH1 0x1 PUSH1 0xA0 SHL SUB SWAP1 SWAP2 AND SWAP1 MSTORE PUSH20 0xDA1FE1DB9B04A810CBB214A294667833E4C8D8F7 PUSH2 0x1092 DUP3 PUSH2 0x1589 JUMP JUMPDEST MSTORE PUSH1 0x40 MLOAD DUP1 SWAP4 DUP2 SWAP3 PUSH4 0xD06CA61F PUSH1 0xE0 SHL DUP4 MSTORE PUSH1 0x24 CALLDATALOAD PUSH1 0x4 DUP5 ADD MSTORE PUSH1 0x40 PUSH1 0x24 DUP5 ADD MSTORE PUSH1 0x44 DUP4 ADD SWAP1 PUSH2 0x1615 JUMP JUMPDEST SUB DUP2 PUSH20 0x7A250D5630B4CF539739DF2C5DACB4C659F2488D GAS STATICCALL SWAP1 DUP2 ISZERO PUSH2 0x9E5 JUMPI PUSH1 0x20 SWAP2 PUSH2 0x10F2 SWAP2 PUSH1 0x0 SWAP2 PUSH2 0x10FB JUMPI JUMPDEST POP PUSH2 0x1566 JUMP JUMPDEST MLOAD PUSH1 0x40 MLOAD SWAP1 DUP2 MSTORE RETURN JUMPDEST PUSH2 0x1110 SWAP2 POP RETURNDATASIZE DUP1 PUSH1 0x0 DUP4 RETURNDATACOPY PUSH2 0xA73 DUP2 DUP4 PUSH2 0x127B JUMP JUMPDEST DUP4 PUSH2 0x10EC JUMP JUMPDEST CALLVALUE PUSH2 0x195 JUMPI PUSH1 0x0 CALLDATASIZE PUSH1 0x3 NOT ADD SLT PUSH2 0x195 JUMPI PUSH2 0x112F PUSH2 0x14A2 JUMP JUMPDEST PUSH1 0x1 DUP1 SLOAD PUSH1 0x1 PUSH1 0x1 PUSH1 0xA0 SHL SUB NOT DUP2 AND SWAP1 SWAP2 SSTORE PUSH1 0x0 SWAP1 PUSH1 0x1 PUSH1 0x1 PUSH1 0xA0 SHL SUB AND PUSH32 0x8BE0079C531659141344CD1FD0A4F28419497F9722A3DAAFE3B4186F6B6457E0 DUP3 DUP1 LOG3 STOP JUMPDEST CALLVALUE PUSH2 0x195 JUMPI PUSH1 0x20 CALLDATASIZE PUSH1 0x3 NOT ADD SLT PUSH2 0x195 JUMPI PUSH2 0x118C PUSH2 0x1652 JUMP JUMPDEST POP PUSH1 0x4 CALLDATALOAD PUSH1 0x0 MSTORE PUSH1 0x3 PUSH1 0x20 MSTORE PUSH2 0xF32 PUSH2 0x11AD PUSH1 0x20 PUSH2 0xDF PUSH1 0x40 PUSH1 0x0 KECCAK256 PUSH2 0x129D JUMP JUMPDEST DUP2 ADD PUSH1 0x2 DUP2 MSTORE SUB ADD SWAP1 KECCAK256 PUSH1 0xFF PUSH1 0x9 PUSH1 0x40 MLOAD SWAP3 PUSH2 0xEB1 DUP5 PUSH2 0x1242 JUMP JUMPDEST CALLVALUE PUSH2 0x195 JUMPI PUSH1 0x20 CALLDATASIZE PUSH1 0x3 NOT ADD SLT PUSH2 0x195 JUMPI PUSH1 0x4 CALLDATALOAD PUSH1 0x0 MSTORE PUSH1 0x3 PUSH1 0x20 MSTORE PUSH2 0xF32 PUSH2 0x11F4 PUSH1 0x40 PUSH1 0x0 KECCAK256 PUSH2 0x129D JUMP JUMPDEST PUSH1 0x40 MLOAD SWAP2 DUP3 SWAP2 PUSH1 0x20 DUP4 MSTORE PUSH1 0x20 DUP4 ADD SWAP1 PUSH2 0x1366 JUMP JUMPDEST SWAP1 PUSH1 0x1 DUP3 DUP2 SHR SWAP3 AND DUP1 ISZERO PUSH2 0x1238 JUMPI JUMPDEST PUSH1 0x20 DUP4 LT EQ PUSH2 0x1222 JUMPI JUMP JUMPDEST PUSH4 0x4E487B71 PUSH1 0xE0 SHL PUSH1 0x0 MSTORE PUSH1 0x22 PUSH1 0x4 MSTORE PUSH1 0x24 PUSH1 0x0 REVERT JUMPDEST SWAP2 PUSH1 0x7F AND SWAP2 PUSH2 0x1217 JUMP JUMPDEST PUSH2 0x140 DUP2 ADD SWAP1 DUP2 LT PUSH8 0xFFFFFFFFFFFFFFFF DUP3 GT OR PUSH2 0x99B JUMPI PUSH1 0x40 MSTORE JUMP JUMPDEST PUSH1 0x60 DUP2 ADD SWAP1 DUP2 LT PUSH8 0xFFFFFFFFFFFFFFFF DUP3 GT OR PUSH2 0x99B JUMPI PUSH1 0x40 MSTORE JUMP JUMPDEST SWAP1 PUSH1 0x1F DUP1 NOT SWAP2 ADD AND DUP2 ADD SWAP1 DUP2 LT PUSH8 0xFFFFFFFFFFFFFFFF DUP3 GT OR PUSH2 0x99B JUMPI PUSH1 0x40 MSTORE JUMP JUMPDEST SWAP1 PUSH1 0x40 MLOAD SWAP2 DUP3 PUSH1 0x0 DUP3 SLOAD SWAP3 PUSH2 0x12B1 DUP5 PUSH2 0x1208 JUMP JUMPDEST SWAP1 DUP2 DUP5 MSTORE PUSH1 0x1 SWAP5 DUP6 DUP2 AND SWAP1 DUP2 PUSH1 0x0 EQ PUSH2 0x1320 JUMPI POP PUSH1 0x1 EQ PUSH2 0x12DD JUMPI JUMPDEST POP POP PUSH2 0x12DB SWAP3 POP SUB DUP4 PUSH2 0x127B JUMP JUMPDEST JUMP JUMPDEST SWAP1 SWAP4 SWAP2 POP PUSH1 0x0 MSTORE PUSH1 0x20 SWAP1 DUP2 PUSH1 0x0 KECCAK256 SWAP4 PUSH1 0x0 SWAP2 JUMPDEST DUP2 DUP4 LT PUSH2 0x1308 JUMPI POP POP PUSH2 0x12DB SWAP4 POP DUP3 ADD ADD CODESIZE DUP1 PUSH2 0x12CD JUMP JUMPDEST DUP6 SLOAD DUP9 DUP5 ADD DUP6 ADD MSTORE SWAP5 DUP6 ADD SWAP5 DUP8 SWAP5 POP SWAP2 DUP4 ADD SWAP2 PUSH2 0x12F0 JUMP JUMPDEST SWAP2 POP POP PUSH2 0x12DB SWAP5 POP PUSH1 0x20 SWAP3 POP PUSH1 0xFF NOT AND DUP3 DUP5 ADD MSTORE ISZERO ISZERO PUSH1 0x5 SHL DUP3 ADD ADD CODESIZE DUP1 PUSH2 0x12CD JUMP JUMPDEST PUSH1 0x0 JUMPDEST DUP4 DUP2 LT PUSH2 0x1356 JUMPI POP POP PUSH1 0x0 SWAP2 ADD MSTORE JUMP JUMPDEST DUP2 DUP2 ADD MLOAD DUP4 DUP3 ADD MSTORE PUSH1 0x20 ADD PUSH2 0x1346 JUMP JUMPDEST SWAP1 PUSH1 0x20 SWAP2 PUSH2 0x137F DUP2 MLOAD DUP1 SWAP3 DUP2 DUP6 MSTORE DUP6 DUP1 DUP7 ADD SWAP2 ADD PUSH2 0x1343 JUMP JUMPDEST PUSH1 0x1F ADD PUSH1 0x1F NOT AND ADD ADD SWAP1 JUMP JUMPDEST PUSH1 0x20 DUP2 MSTORE DUP2 MLOAD PUSH2 0x13A9 PUSH2 0x140 SWAP2 DUP3 PUSH1 0x20 DUP6 ADD MSTORE PUSH2 0x160 DUP5 ADD SWAP1 PUSH2 0x1366 JUMP JUMPDEST SWAP3 PUSH1 0x1 DUP1 PUSH1 0xA0 SHL SUB DUP1 PUSH1 0x20 DUP4 ADD MLOAD AND PUSH1 0x40 DUP6 ADD MSTORE DUP1 PUSH1 0x40 DUP4 ADD MLOAD AND PUSH1 0x60 DUP6 ADD MSTORE DUP1 PUSH1 0x60 DUP4 ADD MLOAD AND PUSH1 0x80 DUP6 ADD MSTORE PUSH1 0x80 DUP3 ADD MLOAD PUSH1 0xA0 DUP6 ADD MSTORE PUSH1 0xA0 DUP3 ADD MLOAD AND PUSH1 0xC0 DUP5 ADD MSTORE PUSH1 0xC0 DUP2 ADD MLOAD PUSH1 0xE0 DUP5 ADD MSTORE PUSH1 0xE0 DUP2 ADD MLOAD PUSH2 0x100 SWAP1 DUP2 DUP6 ADD MSTORE DUP2 ADD MLOAD SWAP1 PUSH2 0x120 SWAP2 DUP3 DUP6 ADD MSTORE ADD MLOAD ISZERO ISZERO SWAP2 ADD MSTORE SWAP1 JUMP JUMPDEST PUSH1 0x4 CALLDATALOAD SWAP1 PUSH1 0x1 PUSH1 0x1 PUSH1 0xA0 SHL SUB DUP3 AND DUP3 SUB PUSH2 0x195 JUMPI JUMP JUMPDEST SWAP2 DUP2 PUSH1 0x1F DUP5 ADD SLT ISZERO PUSH2 0x195 JUMPI DUP3 CALLDATALOAD SWAP2 PUSH8 0xFFFFFFFFFFFFFFFF DUP4 GT PUSH2 0x195 JUMPI PUSH1 0x20 DUP4 DUP2 DUP7 ADD SWAP6 ADD ADD GT PUSH2 0x195 JUMPI JUMP JUMPDEST SWAP3 SWAP2 SWAP3 PUSH8 0xFFFFFFFFFFFFFFFF DUP3 GT PUSH2 0x99B JUMPI PUSH1 0x40 MLOAD SWAP2 PUSH2 0x1485 PUSH1 0x1F DUP3 ADD PUSH1 0x1F NOT AND PUSH1 0x20 ADD DUP5 PUSH2 0x127B JUMP JUMPDEST DUP3 SWAP5 DUP2 DUP5 MSTORE DUP2 DUP4 ADD GT PUSH2 0x195 JUMPI DUP3 DUP2 PUSH1 0x20 SWAP4 DUP5 PUSH1 0x0 SWAP7 ADD CALLDATACOPY ADD ADD MSTORE JUMP JUMPDEST PUSH1 0x1 SLOAD PUSH1 0x1 PUSH1 0x1 PUSH1 0xA0 SHL SUB AND CALLER SUB PUSH2 0x14B6 JUMPI JUMP JUMPDEST PUSH1 0x64 PUSH1 0x40 MLOAD PUSH3 0x461BCD PUSH1 0xE5 SHL DUP2 MSTORE PUSH1 0x20 PUSH1 0x4 DUP3 ADD MSTORE PUSH1 0x20 PUSH1 0x24 DUP3 ADD MSTORE PUSH32 0x4F776E61626C653A2063616C6C6572206973206E6F7420746865206F776E6572 PUSH1 0x44 DUP3 ADD MSTORE REVERT JUMPDEST SWAP1 PUSH1 0x1F DUP2 GT PUSH2 0x1508 JUMPI POP POP POP JUMP JUMPDEST PUSH1 0x0 SWAP2 DUP3 MSTORE PUSH1 0x20 DUP3 KECCAK256 SWAP1 PUSH1 0x20 PUSH1 0x1F DUP6 ADD PUSH1 0x5 SHR DUP4 ADD SWAP5 LT PUSH2 0x1544 JUMPI JUMPDEST PUSH1 0x1F ADD PUSH1 0x5 SHR ADD SWAP2 JUMPDEST DUP3 DUP2 LT PUSH2 0x1539 JUMPI POP POP POP JUMP JUMPDEST DUP2 DUP2 SSTORE PUSH1 0x1 ADD PUSH2 0x152D JUMP JUMPDEST SWAP1 SWAP3 POP DUP3 SWAP1 PUSH2 0x1524 JUMP JUMPDEST SWAP1 DUP2 PUSH1 0x20 SWAP2 SUB SLT PUSH2 0x195 JUMPI MLOAD DUP1 ISZERO ISZERO DUP2 SUB PUSH2 0x195 JUMPI SWAP1 JUMP JUMPDEST DUP1 MLOAD ISZERO PUSH2 0x1573 JUMPI PUSH1 0x20 ADD SWAP1 JUMP JUMPDEST PUSH4 0x4E487B71 PUSH1 0xE0 SHL PUSH1 0x0 MSTORE PUSH1 0x32 PUSH1 0x4 MSTORE PUSH1 0x24 PUSH1 0x0 REVERT JUMPDEST DUP1 MLOAD PUSH1 0x1 LT ISZERO PUSH2 0x1573 JUMPI PUSH1 0x40 ADD SWAP1 JUMP JUMPDEST SWAP1 PUSH1 0x20 SWAP1 DUP2 DUP4 DUP3 SUB SLT PUSH2 0x195 JUMPI DUP3 MLOAD PUSH8 0xFFFFFFFFFFFFFFFF SWAP4 DUP5 DUP3 GT PUSH2 0x195 JUMPI ADD DUP2 PUSH1 0x1F DUP3 ADD SLT ISZERO PUSH2 0x195 JUMPI DUP1 MLOAD SWAP4 DUP5 GT PUSH2 0x99B JUMPI DUP4 PUSH1 0x5 SHL SWAP1 PUSH1 0x40 MLOAD SWAP5 PUSH2 0x15E3 DUP6 DUP5 ADD DUP8 PUSH2 0x127B JUMP JUMPDEST DUP6 MSTORE DUP4 DUP1 DUP7 ADD SWAP3 DUP3 ADD ADD SWAP3 DUP4 GT PUSH2 0x195 JUMPI DUP4 ADD SWAP1 JUMPDEST DUP3 DUP3 LT PUSH2 0x1606 JUMPI POP POP POP POP SWAP1 JUMP JUMPDEST DUP2 MLOAD DUP2 MSTORE SWAP1 DUP4 ADD SWAP1 DUP4 ADD PUSH2 0x15F8 JUMP JUMPDEST SWAP1 DUP2 MLOAD DUP1 DUP3 MSTORE PUSH1 0x20 DUP1 DUP1 SWAP4 ADD SWAP4 ADD SWAP2 PUSH1 0x0 JUMPDEST DUP3 DUP2 LT PUSH2 0x1635 JUMPI POP POP POP POP SWAP1 JUMP JUMPDEST DUP4 MLOAD PUSH1 0x1 PUSH1 0x1 PUSH1 0xA0 SHL SUB AND DUP6 MSTORE SWAP4 DUP2 ADD SWAP4 SWAP3 DUP2 ADD SWAP3 PUSH1 0x1 ADD PUSH2 0x1627 JUMP JUMPDEST PUSH1 0x40 MLOAD SWAP1 PUSH2 0x165F DUP3 PUSH2 0x1242 JUMP JUMPDEST DUP2 PUSH1 0x60 DUP2 MSTORE PUSH2 0x120 PUSH1 0x0 SWAP2 DUP3 PUSH1 0x20 DUP3 ADD MSTORE DUP3 PUSH1 0x40 DUP3 ADD MSTORE DUP3 PUSH1 0x60 DUP3 ADD MSTORE DUP3 PUSH1 0x80 DUP3 ADD MSTORE DUP3 PUSH1 0xA0 DUP3 ADD MSTORE DUP3 PUSH1 0xC0 DUP3 ADD MSTORE DUP3 PUSH1 0xE0 DUP3 ADD MSTORE DUP3 PUSH2 0x100 DUP3 ADD MSTORE ADD MSTORE JUMP INVALID LOG2 PUSH5 0x6970667358 0x22 SLT KECCAK256 CALLDATALOAD SWAP1 0xB5 0xF9 SHR 0x4A 0xE4 EQ 0xA8 0x5F PUSH28 0xDDB8A7EC766ED9E47C78263AF3FF05FFD51B579EEE64736F6C634300 ADDMOD SGT STOP CALLER "},"methodIdentifiers":{"executePayment(string,address,uint256,address,address,uint256,uint256)":"f0a40393","getPayment(string)":"c69207a3","getPaymentByMessageId(bytes32)":"6b440de2","getQuote(address,uint256)":"82c0ab21","messageToPaymentId(bytes32)":"566a3c7c","owner()":"8da5cb5b","payments(string)":"f9468713","renounceOwnership()":"715018a6","transferOwnership(address)":"f2fde38b","withdrawETH()":"e086e5ec","withdrawToken(address,uint256)":"9e281a98"}}}}}