{"src/contracts/PaymentProcessor.sol":{"PaymentProcessor":{"abi":[{"inputs":[{"internalType":"address","name":"_hyperlaneMailbox","type":"address"},{"internalType":"address","name":"_paymentGateway","type":"address"}],"stateMutability":"nonpayable","type":"constructor"},{"anonymous":false,"inputs":[{"indexed":true,"internalType":"string","name":"paymentId","type":"string"},{"indexed":true,"internalType":"address","name":"fanToken","type":"address"},{"indexed":false,"internalType":"uint256","name":"fanTokenAmount","type":"uint256"}],"name":"FanTokenSwapCompleted","type":"event"},{"anonymous":false,"inputs":[{"indexed":true,"internalType":"address","name":"previousOwner","type":"address"},{"indexed":true,"internalType":"address","name":"newOwner","type":"address"}],"name":"OwnershipTransferred","type":"event"},{"anonymous":false,"inputs":[{"indexed":true,"internalType":"string","name":"paymentId","type":"string"},{"indexed":true,"internalType":"address","name":"merchant","type":"address"},{"indexed":false,"internalType":"address","name":"fanToken","type":"address"},{"indexed":false,"internalType":"uint256","name":"totalFanTokens","type":"uint256"}],"name":"PaymentCompleted","type":"event"},{"anonymous":false,"inputs":[{"indexed":true,"internalType":"string","name":"paymentId","type":"string"},{"indexed":false,"internalType":"uint256","name":"chzAmount","type":"uint256"}],"name":"PaymentReceived","type":"event"},{"anonymous":false,"inputs":[{"indexed":true,"internalType":"string","name":"paymentId","type":"string"},{"indexed":true,"internalType":"address","name":"merchant","type":"address"},{"indexed":false,"internalType":"address","name":"fanToken","type":"address"},{"indexed":false,"internalType":"uint256","name":"amount","type":"uint256"}],"name":"PaymentSentToMerchant","type":"event"},{"inputs":[{"internalType":"address","name":"fanToken","type":"address"},{"internalType":"uint256","name":"chzAmount","type":"uint256"}],"name":"getFanTokenPrice","outputs":[{"internalType":"uint256","name":"","type":"uint256"}],"stateMutability":"view","type":"function"},{"inputs":[{"internalType":"string","name":"paymentId","type":"string"}],"name":"getProcessedPayment","outputs":[{"components":[{"internalType":"string","name":"paymentId","type":"string"},{"internalType":"address","name":"merchant","type":"address"},{"internalType":"address","name":"fanToken","type":"address"},{"internalType":"uint256","name":"fanTokenAmount","type":"uint256"},{"internalType":"uint256","name":"chzReceived","type":"uint256"},{"internalType":"uint256","name":"fanTokensSent","type":"uint256"},{"internalType":"bool","name":"completed","type":"bool"},{"internalType":"uint256","name":"timestamp","type":"uint256"}],"internalType":"struct PaymentProcessor.ProcessedPayment","name":"","type":"tuple"}],"stateMutability":"view","type":"function"},{"inputs":[{"internalType":"uint32","name":"origin","type":"uint32"},{"internalType":"bytes32","name":"sender","type":"bytes32"},{"internalType":"bytes","name":"message","type":"bytes"}],"name":"handle","outputs":[],"stateMutability":"nonpayable","type":"function"},{"inputs":[],"name":"hyperlaneMailbox","outputs":[{"internalType":"address","name":"","type":"address"}],"stateMutability":"view","type":"function"},{"inputs":[],"name":"owner","outputs":[{"internalType":"address","name":"","type":"address"}],"stateMutability":"view","type":"function"},{"inputs":[],"name":"paymentGateway","outputs":[{"internalType":"address","name":"","type":"address"}],"stateMutability":"view","type":"function"},{"inputs":[{"internalType":"bytes32","name":"","type":"bytes32"}],"name":"processedMessages","outputs":[{"internalType":"bool","name":"","type":"bool"}],"stateMutability":"view","type":"function"},{"inputs":[{"internalType":"string","name":"","type":"string"}],"name":"processedPayments","outputs":[{"internalType":"string","name":"paymentId","type":"string"},{"internalType":"address","name":"merchant","type":"address"},{"internalType":"address","name":"fanToken","type":"address"},{"internalType":"uint256","name":"fanTokenAmount","type":"uint256"},{"internalType":"uint256","name":"chzReceived","type":"uint256"},{"internalType":"uint256","name":"fanTokensSent","type":"uint256"},{"internalType":"bool","name":"completed","type":"bool"},{"internalType":"uint256","name":"timestamp","type":"uint256"}],"stateMutability":"view","type":"function"},{"inputs":[],"name":"renounceOwnership","outputs":[],"stateMutability":"nonpayable","type":"function"},{"inputs":[],"name":"sepoliaDomain","outputs":[{"internalType":"uint32","name":"","type":"uint32"}],"stateMutability":"view","type":"function"},{"inputs":[{"internalType":"address","name":"_mailbox","type":"address"}],"name":"setHyperlaneMailbox","outputs":[],"stateMutability":"nonpayable","type":"function"},{"inputs":[{"internalType":"address","name":"_gateway","type":"address"}],"name":"setPaymentGateway","outputs":[],"stateMutability":"nonpayable","type":"function"},{"inputs":[{"internalType":"uint32","name":"_domain","type":"uint32"}],"name":"setSepoliaDomain","outputs":[],"stateMutability":"nonpayable","type":"function"},{"inputs":[{"internalType":"address","name":"newOwner","type":"address"}],"name":"transferOwnership","outputs":[],"stateMutability":"nonpayable","type":"function"},{"inputs":[],"name":"withdrawCHZ","outputs":[],"stateMutability":"nonpayable","type":"function"},{"inputs":[{"internalType":"address","name":"token","type":"address"},{"internalType":"uint256","name":"amount","type":"uint256"}],"name":"withdrawToken","outputs":[],"stateMutability":"nonpayable","type":"function"},{"stateMutability":"payable","type":"receive"}],"evm":{"bytecode":{"linkReferences":{},"object":"6080346100d757601f61163338819003918201601f19168301916001600160401b038311848410176100dc5780849260409485528339810103126100d757610052602061004b836100f2565b92016100f2565b600160005560015460018060a01b03199133838316176001556040519360018060a01b0392833391167f8be0079c531659141344cd1fd0a4f28419497f9722a3daafe3b4186f6b6457e0600080a3600280546001600160c01b0319169184169190911762aa36a760a01b17905560038054909316911617905561152c90816101078239f35b600080fd5b634e487b7160e01b600052604160045260246000fd5b51906001600160a01b03821682036100d75756fe608080604052600436101561001d575b50361561001b57600080fd5b005b600090813560e01c9081630c67acde146111f45750806310eedf48146111b457806311069a831461105c5780631a6e4db41461103357806356d5d475146105c55780636d7c78081461057d578063715018a61461051f57806388ba16ab146104f05780638da5cb5b146104c75780639b931abf146103f35780639e281a9814610310578063a2038e1e146102cc578063ca2169d4146102a3578063d125e992146101de578063f2fde38b146101185763fd01a7ee0361000f5734610115576020366003190112610115576100ef611219565b6100f7611452565b60018060a01b03166001600160601b0360a01b600354161760035580f35b80fd5b503461011557602036600319011261011557610132611219565b61013a611452565b6001600160a01b0390811690811561018a57600154826001600160601b0360a01b821617600155167f8be0079c531659141344cd1fd0a4f28419497f9722a3daafe3b4186f6b6457e0600080a380f35b60405162461bcd60e51b815260206004820152602660248201527f4f776e61626c653a206e6577206f776e657220697320746865207a65726f206160448201526564647265737360d01b6064820152608490fd5b50346101155760403660031901126101155761022f9060206101fe611219565b60405163449e815d60e01b81526001600160a01b039091166004820152602480359082015292839081906044820190565b038173fbef475155294d7ef054f2b79b908c91a9914d825afa9081156102975790610260575b602090604051908152f35b506020813d821161028f575b81610279602093836112eb565b8101031261028a5760209051610255565b600080fd5b3d915061026c565b604051903d90823e3d90fd5b50346101155780600319360112610115576003546040516001600160a01b039091168152602090f35b50346101155780600319360112610115576102e5611452565b8080808060018060a01b03600154164790828215610307575bf1156102975780f35b506108fc6102fe565b50346101155760403660031901126101155761032a611219565b610332611452565b60015460405163a9059cbb60e01b81526001600160a01b039182166004820152602480359082015291602091839160449183918791165af19081156103e85782916103ba575b50156103815780f35b60405162461bcd60e51b815260206004820152601160248201527015da5d1a191c985dd85b0819985a5b1959607a1b6044820152606490fd5b6103db915060203d81116103e1575b6103d381836112eb565b8101906114de565b38610378565b503d6103c9565b6040513d84823e3d90fd5b5034610115576020366003190112610115576004359067ffffffffffffffff82116101155761049d610440602061042d3660048701611354565b816040519382858094519384920161125d565b81016004815203019020610453816113ac565b9060018060a01b039081600182015416916002820154169060038101546004820154600583015491600760ff60068601541694015494604051988998610100808b528a0190611280565b96602089015260408801526060870152608086015260a0850152151560c084015260e08301520390f35b50346101155780600319360112610115576001546040516001600160a01b039091168152602090f35b50346101155760203660031901126101155760ff60406020926004358152600584522054166040519015158152f35b5034610115578060031936011261011557610538611452565b600180546001600160a01b031981169091556000906001600160a01b03167f8be0079c531659141344cd1fd0a4f28419497f9722a3daafe3b4186f6b6457e08280a380f35b5034610115576020366003190112610115576105976112a5565b61059f611452565b6002805463ffffffff60a01b191660a09290921b63ffffffff60a01b1691909117905580f35b5034610115576060366003190112610115576105df6112a5565b60443567ffffffffffffffff8111610ef4576105ff90369060040161122f565b600254919290916001600160a01b0381163303610ff5576002855414610fb0576002855563ffffffff809160a01c16911603610f73576003546001600160a01b0390811660243590911603610f3d5761065936828461130d565b60208151910120808452600560205260ff604085205416610ef8578352600560205260408320805460ff191660011790558101608082820312610ef45781359067ffffffffffffffff8211610ef0576106b3918301611354565b6106bf602083016114aa565b906106cc604084016114aa565b92815115610eb6576001600160a01b03831615610e7e576001600160a01b03841615610e4557606081013515610e005747908115610dc95761070d836114be565b7fd78903455e3bfe57a34c1b193ad1751a51ca1b1075f0562c334e3ea6a28148896020604051858152a2606060405191610746836112b8565b84835260018060a01b038616602084015260018060a01b0387166040840152013560608201528160808201528560a08201528560c08201524260e082015260405160208185516107998183858a0161125d565b8101600481520301902090805180519067ffffffffffffffff8211610db5576107c28454611372565b601f8111610d74575b50602090601f8311600114610d085791806007949260e0948c92610cfd575b50508160011b916000199060031b1c19161784555b6020818101516001860180546001600160a01b039283166001600160a01b031991821617909155604080850151600289018054918516919093161790915560608401516003880155608084015160048089019190915560a0850151600589015560c085015160068901805460ff191691151560ff16919091179055949093015194909501939093555163449e815d60e01b81529287169083015260248201839052818060448101038173fbef475155294d7ef054f2b79b908c91a9914d825afa908115610b8e578691610ccb575b5015610c86576040516370a0823160e01b8152306004820152906020826024816001600160a01b0389165afa918215610b8e578692610c4e575b508573fbef475155294d7ef054f2b79b908c91a9914d823b15610115576040516314336cb760e11b81526001600160a01b0387166004820152918290602490829073fbef475155294d7ef054f2b79b908c91a9914d825af18015610b8e57610c1e575b506040516370a0823160e01b8152306004820152906020826024816001600160a01b0389165afa918215610b8e578692610bea575b5080820391808311610bd65714610b99576109b9826114be565b6040518281526001600160a01b03861691907f64b375e23d0a49242bbe0bf3b00b33b24b578ce73115cb608c1d6b16619abaf190602090a360405163a9059cbb60e01b81526001600160a01b03841660048201526024810182905260208180604481010381896001600160a01b038a165af1908115610b8e578691610b6f575b5015610b2a57610b0282610a6d7f34ddb4977c7a6a68d953dc3ba5fd644201e8a9393f14165b9337c4b21841818d946114be565b604080516001600160a01b03898116825260208201879052881692917f894cd3fd07f280a6b5905bd88c369c8cae8efaca3de6d2f722094d9a9b5fe15391a38260056040516020818551610ac48183858a0161125d565b81016004815203019020015560066040516020818451610ae7818385890161125d565b8101600481520301902001600160ff198254161790556114be565b604080516001600160a01b039687168152602081019390935293909416939290a36001815580f35b60405162461bcd60e51b815260206004820152601b60248201527f5472616e7366657220746f206d65726368616e74206661696c656400000000006044820152606490fd5b610b88915060203d6020116103e1576103d381836112eb565b38610a39565b6040513d88823e3d90fd5b60405162461bcd60e51b815260206004820152601560248201527411985b881d1bdad95b881cddd85c0819985a5b1959605a1b6044820152606490fd5b634e487b7160e01b87526011600452602487fd5b9091506020813d602011610c16575b81610c06602093836112eb565b8101031261028a5751903861099f565b3d9150610bf9565b67ffffffffffffffff8196929611610c3a57604052933861096a565b634e487b7160e01b82526041600452602482fd5b9091506020813d602011610c7e575b81610c6a602093836112eb565b81010312610c7a57519038610907565b8580fd5b3d9150610c5d565b60405162461bcd60e51b815260206004820152601a60248201527f4e6f206c697175696469747920666f722066616e20746f6b656e0000000000006044820152606490fd5b90506020813d602011610cf5575b81610ce6602093836112eb565b81010312610c7a5751386108cd565b3d9150610cd9565b0151905038806107ea565b90848a5260208a20918a5b601f1985168110610d5c5750926007949260019260e09583601f19811610610d43575b505050811b0184556107ff565b015160001960f88460031b161c19169055388080610d36565b91926020600181928685015181550194019201610d13565b848a5260208a20601f840160051c810160208510610dae575b601f830160051c82018110610da35750506107cb565b8b8155600101610d8d565b5080610d8d565b634e487b7160e01b89526041600452602489fd5b60405162461bcd60e51b815260206004820152600f60248201526e139bc810d216881c9958d95a5d9959608a1b6044820152606490fd5b60405162461bcd60e51b815260206004820152601860248201527f496e76616c69642066616e20746f6b656e20616d6f756e7400000000000000006044820152606490fd5b60405162461bcd60e51b815260206004820152601160248201527024b73b30b634b2103330b7103a37b5b2b760791b6044820152606490fd5b60405162461bcd60e51b815260206004820152601060248201526f125b9d985b1a59081b595c98da185b9d60821b6044820152606490fd5b60405162461bcd60e51b8152602060048201526012602482015271125b9d985b1a59081c185e5b595b9d08125160721b6044820152606490fd5b8380fd5b8280fd5b60405162461bcd60e51b815260206004820152601960248201527f4d65737361676520616c72656164792070726f636573736564000000000000006044820152606490fd5b60405162461bcd60e51b815260206004820152600e60248201526d24b73b30b634b21039b2b73232b960911b6044820152606490fd5b60405162461bcd60e51b815260206004820152601560248201527424b73b30b634b21037b934b3b4b7103237b6b0b4b760591b6044820152606490fd5b60405162461bcd60e51b815260206004820152601f60248201527f5265656e7472616e637947756172643a207265656e7472616e742063616c6c006044820152606490fd5b60405162461bcd60e51b815260206004820152601660248201527509edcd8f24090f2e0cae4d8c2dcca40dac2d2d8c4def60531b6044820152606490fd5b50346101155780600319360112610115576002546040516001600160a01b039091168152602090f35b5034610115576020806003193601126111b05760043567ffffffffffffffff8111610ef457918161109461117e94369060040161122f565b9260e06040516110a3816112b8565b6060815282858201528260408201528260608201528260808201528260a08201528260c0820152015282604051938492833781016004815203019020604051916110ec836112b8565b6110f5826113ac565b835260018060a01b0380600184015416928285019384528160028201541691604086019283526003820154606087019081526004830154906080880191825260058401549260a08901938452600760ff6006870154169560c08b01961515875201549560e08a01968752816040519b8c9b8a8d52518c6101009b8c9101526101208d0190611280565b99511660408b0152511660608901525160808801525160a08701525160c086015251151560e085015251908301520390f35b5080fd5b5034610115576020366003190112610115576111ce611219565b6111d6611452565b60018060a01b03166001600160601b0360a01b600254161760025580f35b9050346111b057816003193601126111b05760209063ffffffff60025460a01c168152f35b600435906001600160a01b038216820361028a57565b9181601f8401121561028a5782359167ffffffffffffffff831161028a576020838186019501011161028a57565b60005b8381106112705750506000910152565b8181015183820152602001611260565b906020916112998151809281855285808601910161125d565b601f01601f1916010190565b6004359063ffffffff8216820361028a57565b610100810190811067ffffffffffffffff8211176112d557604052565b634e487b7160e01b600052604160045260246000fd5b90601f8019910116810190811067ffffffffffffffff8211176112d557604052565b92919267ffffffffffffffff82116112d55760405191611337601f8201601f1916602001846112eb565b82948184528183011161028a578281602093846000960137010152565b9080601f8301121561028a5781602061136f9335910161130d565b90565b90600182811c921680156113a2575b602083101461138c57565b634e487b7160e01b600052602260045260246000fd5b91607f1691611381565b90604051918260008254926113c084611372565b90818452600194858116908160001461142f57506001146113ec575b50506113ea925003836112eb565b565b9093915060005260209081600020936000915b8183106114175750506113ea935082010138806113dc565b855488840185015294850194879450918301916113ff565b9150506113ea94506020925060ff191682840152151560051b82010138806113dc565b6001546001600160a01b0316330361146657565b606460405162461bcd60e51b815260206004820152602060248201527f4f776e61626c653a2063616c6c6572206973206e6f7420746865206f776e65726044820152fd5b35906001600160a01b038216820361028a57565b6114d69060206040519282848094519384920161125d565b810103902090565b9081602091031261028a5751801515810361028a579056fea2646970667358221220d5b967a50b6bbcf0967f7eacf945523086011e524aa5afa84263ce2fec88674464736f6c63430008130033","opcodes":"PUSH1 0x80 CALLVALUE PUSH2 0xD7 JUMPI PUSH1 0x1F PUSH2 0x1633 CODESIZE DUP2 SWAP1 SUB SWAP2 DUP3 ADD PUSH1 0x1F NOT AND DUP4 ADD SWAP2 PUSH1 0x1 PUSH1 0x1 PUSH1 0x40 SHL SUB DUP4 GT DUP5 DUP5 LT OR PUSH2 0xDC JUMPI DUP1 DUP5 SWAP3 PUSH1 0x40 SWAP5 DUP6 MSTORE DUP4 CODECOPY DUP2 ADD SUB SLT PUSH2 0xD7 JUMPI PUSH2 0x52 PUSH1 0x20 PUSH2 0x4B DUP4 PUSH2 0xF2 JUMP JUMPDEST SWAP3 ADD PUSH2 0xF2 JUMP JUMPDEST PUSH1 0x1 PUSH1 0x0 SSTORE PUSH1 0x1 SLOAD PUSH1 0x1 DUP1 PUSH1 0xA0 SHL SUB NOT SWAP2 CALLER DUP4 DUP4 AND OR PUSH1 0x1 SSTORE PUSH1 0x40 MLOAD SWAP4 PUSH1 0x1 DUP1 PUSH1 0xA0 SHL SUB SWAP3 DUP4 CALLER SWAP2 AND PUSH32 0x8BE0079C531659141344CD1FD0A4F28419497F9722A3DAAFE3B4186F6B6457E0 PUSH1 0x0 DUP1 LOG3 PUSH1 0x2 DUP1 SLOAD PUSH1 0x1 PUSH1 0x1 PUSH1 0xC0 SHL SUB NOT AND SWAP2 DUP5 AND SWAP2 SWAP1 SWAP2 OR PUSH3 0xAA36A7 PUSH1 0xA0 SHL OR SWAP1 SSTORE PUSH1 0x3 DUP1 SLOAD SWAP1 SWAP4 AND SWAP2 AND OR SWAP1 SSTORE PUSH2 0x152C SWAP1 DUP2 PUSH2 0x107 DUP3 CODECOPY RETURN JUMPDEST PUSH1 0x0 DUP1 REVERT JUMPDEST PUSH4 0x4E487B71 PUSH1 0xE0 SHL PUSH1 0x0 MSTORE PUSH1 0x41 PUSH1 0x4 MSTORE PUSH1 0x24 PUSH1 0x0 REVERT JUMPDEST MLOAD SWAP1 PUSH1 0x1 PUSH1 0x1 PUSH1 0xA0 SHL SUB DUP3 AND DUP3 SUB PUSH2 0xD7 JUMPI JUMP INVALID PUSH1 0x80 DUP1 PUSH1 0x40 MSTORE PUSH1 0x4 CALLDATASIZE LT ISZERO PUSH2 0x1D JUMPI JUMPDEST POP CALLDATASIZE ISZERO PUSH2 0x1B JUMPI PUSH1 0x0 DUP1 REVERT JUMPDEST STOP JUMPDEST PUSH1 0x0 SWAP1 DUP2 CALLDATALOAD PUSH1 0xE0 SHR SWAP1 DUP2 PUSH4 0xC67ACDE EQ PUSH2 0x11F4 JUMPI POP DUP1 PUSH4 0x10EEDF48 EQ PUSH2 0x11B4 JUMPI DUP1 PUSH4 0x11069A83 EQ PUSH2 0x105C JUMPI DUP1 PUSH4 0x1A6E4DB4 EQ PUSH2 0x1033 JUMPI DUP1 PUSH4 0x56D5D475 EQ PUSH2 0x5C5 JUMPI DUP1 PUSH4 0x6D7C7808 EQ PUSH2 0x57D JUMPI DUP1 PUSH4 0x715018A6 EQ PUSH2 0x51F JUMPI DUP1 PUSH4 0x88BA16AB EQ PUSH2 0x4F0 JUMPI DUP1 PUSH4 0x8DA5CB5B EQ PUSH2 0x4C7 JUMPI DUP1 PUSH4 0x9B931ABF EQ PUSH2 0x3F3 JUMPI DUP1 PUSH4 0x9E281A98 EQ PUSH2 0x310 JUMPI DUP1 PUSH4 0xA2038E1E EQ PUSH2 0x2CC JUMPI DUP1 PUSH4 0xCA2169D4 EQ PUSH2 0x2A3 JUMPI DUP1 PUSH4 0xD125E992 EQ PUSH2 0x1DE JUMPI DUP1 PUSH4 0xF2FDE38B EQ PUSH2 0x118 JUMPI PUSH4 0xFD01A7EE SUB PUSH2 0xF JUMPI CALLVALUE PUSH2 0x115 JUMPI PUSH1 0x20 CALLDATASIZE PUSH1 0x3 NOT ADD SLT PUSH2 0x115 JUMPI PUSH2 0xEF PUSH2 0x1219 JUMP JUMPDEST PUSH2 0xF7 PUSH2 0x1452 JUMP JUMPDEST PUSH1 0x1 DUP1 PUSH1 0xA0 SHL SUB AND PUSH1 0x1 PUSH1 0x1 PUSH1 0x60 SHL SUB PUSH1 0xA0 SHL PUSH1 0x3 SLOAD AND OR PUSH1 0x3 SSTORE DUP1 RETURN JUMPDEST DUP1 REVERT JUMPDEST POP CALLVALUE PUSH2 0x115 JUMPI PUSH1 0x20 CALLDATASIZE PUSH1 0x3 NOT ADD SLT PUSH2 0x115 JUMPI PUSH2 0x132 PUSH2 0x1219 JUMP JUMPDEST PUSH2 0x13A PUSH2 0x1452 JUMP JUMPDEST PUSH1 0x1 PUSH1 0x1 PUSH1 0xA0 SHL SUB SWAP1 DUP2 AND SWAP1 DUP2 ISZERO PUSH2 0x18A JUMPI PUSH1 0x1 SLOAD DUP3 PUSH1 0x1 PUSH1 0x1 PUSH1 0x60 SHL SUB PUSH1 0xA0 SHL DUP3 AND OR PUSH1 0x1 SSTORE AND PUSH32 0x8BE0079C531659141344CD1FD0A4F28419497F9722A3DAAFE3B4186F6B6457E0 PUSH1 0x0 DUP1 LOG3 DUP1 RETURN JUMPDEST PUSH1 0x40 MLOAD PUSH3 0x461BCD PUSH1 0xE5 SHL DUP2 MSTORE PUSH1 0x20 PUSH1 0x4 DUP3 ADD MSTORE PUSH1 0x26 PUSH1 0x24 DUP3 ADD MSTORE PUSH32 0x4F776E61626C653A206E6577206F776E657220697320746865207A65726F2061 PUSH1 0x44 DUP3 ADD MSTORE PUSH6 0x646472657373 PUSH1 0xD0 SHL PUSH1 0x64 DUP3 ADD MSTORE PUSH1 0x84 SWAP1 REVERT JUMPDEST POP CALLVALUE PUSH2 0x115 JUMPI PUSH1 0x40 CALLDATASIZE PUSH1 0x3 NOT ADD SLT PUSH2 0x115 JUMPI PUSH2 0x22F SWAP1 PUSH1 0x20 PUSH2 0x1FE PUSH2 0x1219 JUMP JUMPDEST PUSH1 0x40 MLOAD PUSH4 0x449E815D PUSH1 0xE0 SHL DUP2 MSTORE PUSH1 0x1 PUSH1 0x1 PUSH1 0xA0 SHL SUB SWAP1 SWAP2 AND PUSH1 0x4 DUP3 ADD MSTORE PUSH1 0x24 DUP1 CALLDATALOAD SWAP1 DUP3 ADD MSTORE SWAP3 DUP4 SWAP1 DUP2 SWAP1 PUSH1 0x44 DUP3 ADD SWAP1 JUMP JUMPDEST SUB DUP2 PUSH20 0xFBEF475155294D7EF054F2B79B908C91A9914D82 GAS STATICCALL SWAP1 DUP2 ISZERO PUSH2 0x297 JUMPI SWAP1 PUSH2 0x260 JUMPI JUMPDEST PUSH1 0x20 SWAP1 PUSH1 0x40 MLOAD SWAP1 DUP2 MSTORE RETURN JUMPDEST POP PUSH1 0x20 DUP2 RETURNDATASIZE DUP3 GT PUSH2 0x28F JUMPI JUMPDEST DUP2 PUSH2 0x279 PUSH1 0x20 SWAP4 DUP4 PUSH2 0x12EB JUMP JUMPDEST DUP2 ADD SUB SLT PUSH2 0x28A JUMPI PUSH1 0x20 SWAP1 MLOAD PUSH2 0x255 JUMP JUMPDEST PUSH1 0x0 DUP1 REVERT JUMPDEST RETURNDATASIZE SWAP2 POP PUSH2 0x26C JUMP JUMPDEST PUSH1 0x40 MLOAD SWAP1 RETURNDATASIZE SWAP1 DUP3 RETURNDATACOPY RETURNDATASIZE SWAP1 REVERT JUMPDEST POP CALLVALUE PUSH2 0x115 JUMPI DUP1 PUSH1 0x3 NOT CALLDATASIZE ADD SLT PUSH2 0x115 JUMPI PUSH1 0x3 SLOAD PUSH1 0x40 MLOAD PUSH1 0x1 PUSH1 0x1 PUSH1 0xA0 SHL SUB SWAP1 SWAP2 AND DUP2 MSTORE PUSH1 0x20 SWAP1 RETURN JUMPDEST POP CALLVALUE PUSH2 0x115 JUMPI DUP1 PUSH1 0x3 NOT CALLDATASIZE ADD SLT PUSH2 0x115 JUMPI PUSH2 0x2E5 PUSH2 0x1452 JUMP JUMPDEST DUP1 DUP1 DUP1 DUP1 PUSH1 0x1 DUP1 PUSH1 0xA0 SHL SUB PUSH1 0x1 SLOAD AND SELFBALANCE SWAP1 DUP3 DUP3 ISZERO PUSH2 0x307 JUMPI JUMPDEST CALL ISZERO PUSH2 0x297 JUMPI DUP1 RETURN JUMPDEST POP PUSH2 0x8FC PUSH2 0x2FE JUMP JUMPDEST POP CALLVALUE PUSH2 0x115 JUMPI PUSH1 0x40 CALLDATASIZE PUSH1 0x3 NOT ADD SLT PUSH2 0x115 JUMPI PUSH2 0x32A PUSH2 0x1219 JUMP JUMPDEST PUSH2 0x332 PUSH2 0x1452 JUMP JUMPDEST PUSH1 0x1 SLOAD PUSH1 0x40 MLOAD PUSH4 0xA9059CBB PUSH1 0xE0 SHL DUP2 MSTORE PUSH1 0x1 PUSH1 0x1 PUSH1 0xA0 SHL SUB SWAP2 DUP3 AND PUSH1 0x4 DUP3 ADD MSTORE PUSH1 0x24 DUP1 CALLDATALOAD SWAP1 DUP3 ADD MSTORE SWAP2 PUSH1 0x20 SWAP2 DUP4 SWAP2 PUSH1 0x44 SWAP2 DUP4 SWAP2 DUP8 SWAP2 AND GAS CALL SWAP1 DUP2 ISZERO PUSH2 0x3E8 JUMPI DUP3 SWAP2 PUSH2 0x3BA JUMPI JUMPDEST POP ISZERO PUSH2 0x381 JUMPI DUP1 RETURN JUMPDEST PUSH1 0x40 MLOAD PUSH3 0x461BCD PUSH1 0xE5 SHL DUP2 MSTORE PUSH1 0x20 PUSH1 0x4 DUP3 ADD MSTORE PUSH1 0x11 PUSH1 0x24 DUP3 ADD MSTORE PUSH17 0x15DA5D1A191C985DD85B0819985A5B1959 PUSH1 0x7A SHL PUSH1 0x44 DUP3 ADD MSTORE PUSH1 0x64 SWAP1 REVERT JUMPDEST PUSH2 0x3DB SWAP2 POP PUSH1 0x20 RETURNDATASIZE DUP2 GT PUSH2 0x3E1 JUMPI JUMPDEST PUSH2 0x3D3 DUP2 DUP4 PUSH2 0x12EB JUMP JUMPDEST DUP2 ADD SWAP1 PUSH2 0x14DE JUMP JUMPDEST CODESIZE PUSH2 0x378 JUMP JUMPDEST POP RETURNDATASIZE PUSH2 0x3C9 JUMP JUMPDEST PUSH1 0x40 MLOAD RETURNDATASIZE DUP5 DUP3 RETURNDATACOPY RETURNDATASIZE SWAP1 REVERT JUMPDEST POP CALLVALUE PUSH2 0x115 JUMPI PUSH1 0x20 CALLDATASIZE PUSH1 0x3 NOT ADD SLT PUSH2 0x115 JUMPI PUSH1 0x4 CALLDATALOAD SWAP1 PUSH8 0xFFFFFFFFFFFFFFFF DUP3 GT PUSH2 0x115 JUMPI PUSH2 0x49D PUSH2 0x440 PUSH1 0x20 PUSH2 0x42D CALLDATASIZE PUSH1 0x4 DUP8 ADD PUSH2 0x1354 JUMP JUMPDEST DUP2 PUSH1 0x40 MLOAD SWAP4 DUP3 DUP6 DUP1 SWAP5 MLOAD SWAP4 DUP5 SWAP3 ADD PUSH2 0x125D JUMP JUMPDEST DUP2 ADD PUSH1 0x4 DUP2 MSTORE SUB ADD SWAP1 KECCAK256 PUSH2 0x453 DUP2 PUSH2 0x13AC JUMP JUMPDEST SWAP1 PUSH1 0x1 DUP1 PUSH1 0xA0 SHL SUB SWAP1 DUP2 PUSH1 0x1 DUP3 ADD SLOAD AND SWAP2 PUSH1 0x2 DUP3 ADD SLOAD AND SWAP1 PUSH1 0x3 DUP2 ADD SLOAD PUSH1 0x4 DUP3 ADD SLOAD PUSH1 0x5 DUP4 ADD SLOAD SWAP2 PUSH1 0x7 PUSH1 0xFF PUSH1 0x6 DUP7 ADD SLOAD AND SWAP5 ADD SLOAD SWAP5 PUSH1 0x40 MLOAD SWAP9 DUP10 SWAP9 PUSH2 0x100 DUP1 DUP12 MSTORE DUP11 ADD SWAP1 PUSH2 0x1280 JUMP JUMPDEST SWAP7 PUSH1 0x20 DUP10 ADD MSTORE PUSH1 0x40 DUP9 ADD MSTORE PUSH1 0x60 DUP8 ADD MSTORE PUSH1 0x80 DUP7 ADD MSTORE PUSH1 0xA0 DUP6 ADD MSTORE ISZERO ISZERO PUSH1 0xC0 DUP5 ADD MSTORE PUSH1 0xE0 DUP4 ADD MSTORE SUB SWAP1 RETURN JUMPDEST POP CALLVALUE PUSH2 0x115 JUMPI DUP1 PUSH1 0x3 NOT CALLDATASIZE ADD SLT PUSH2 0x115 JUMPI PUSH1 0x1 SLOAD PUSH1 0x40 MLOAD PUSH1 0x1 PUSH1 0x1 PUSH1 0xA0 SHL SUB SWAP1 SWAP2 AND DUP2 MSTORE PUSH1 0x20 SWAP1 RETURN JUMPDEST POP CALLVALUE PUSH2 0x115 JUMPI PUSH1 0x20 CALLDATASIZE PUSH1 0x3 NOT ADD SLT PUSH2 0x115 JUMPI PUSH1 0xFF PUSH1 0x40 PUSH1 0x20 SWAP3 PUSH1 0x4 CALLDATALOAD DUP2 MSTORE PUSH1 0x5 DUP5 MSTORE KECCAK256 SLOAD AND PUSH1 0x40 MLOAD SWAP1 ISZERO ISZERO DUP2 MSTORE RETURN JUMPDEST POP CALLVALUE PUSH2 0x115 JUMPI DUP1 PUSH1 0x3 NOT CALLDATASIZE ADD SLT PUSH2 0x115 JUMPI PUSH2 0x538 PUSH2 0x1452 JUMP JUMPDEST PUSH1 0x1 DUP1 SLOAD PUSH1 0x1 PUSH1 0x1 PUSH1 0xA0 SHL SUB NOT DUP2 AND SWAP1 SWAP2 SSTORE PUSH1 0x0 SWAP1 PUSH1 0x1 PUSH1 0x1 PUSH1 0xA0 SHL SUB AND PUSH32 0x8BE0079C531659141344CD1FD0A4F28419497F9722A3DAAFE3B4186F6B6457E0 DUP3 DUP1 LOG3 DUP1 RETURN JUMPDEST POP CALLVALUE PUSH2 0x115 JUMPI PUSH1 0x20 CALLDATASIZE PUSH1 0x3 NOT ADD SLT PUSH2 0x115 JUMPI PUSH2 0x597 PUSH2 0x12A5 JUMP JUMPDEST PUSH2 0x59F PUSH2 0x1452 JUMP JUMPDEST PUSH1 0x2 DUP1 SLOAD PUSH4 0xFFFFFFFF PUSH1 0xA0 SHL NOT AND PUSH1 0xA0 SWAP3 SWAP1 SWAP3 SHL PUSH4 0xFFFFFFFF PUSH1 0xA0 SHL AND SWAP2 SWAP1 SWAP2 OR SWAP1 SSTORE DUP1 RETURN JUMPDEST POP CALLVALUE PUSH2 0x115 JUMPI PUSH1 0x60 CALLDATASIZE PUSH1 0x3 NOT ADD SLT PUSH2 0x115 JUMPI PUSH2 0x5DF PUSH2 0x12A5 JUMP JUMPDEST PUSH1 0x44 CALLDATALOAD PUSH8 0xFFFFFFFFFFFFFFFF DUP2 GT PUSH2 0xEF4 JUMPI PUSH2 0x5FF SWAP1 CALLDATASIZE SWAP1 PUSH1 0x4 ADD PUSH2 0x122F JUMP JUMPDEST PUSH1 0x2 SLOAD SWAP2 SWAP3 SWAP1 SWAP2 PUSH1 0x1 PUSH1 0x1 PUSH1 0xA0 SHL SUB DUP2 AND CALLER SUB PUSH2 0xFF5 JUMPI PUSH1 0x2 DUP6 SLOAD EQ PUSH2 0xFB0 JUMPI PUSH1 0x2 DUP6 SSTORE PUSH4 0xFFFFFFFF DUP1 SWAP2 PUSH1 0xA0 SHR AND SWAP2 AND SUB PUSH2 0xF73 JUMPI PUSH1 0x3 SLOAD PUSH1 0x1 PUSH1 0x1 PUSH1 0xA0 SHL SUB SWAP1 DUP2 AND PUSH1 0x24 CALLDATALOAD SWAP1 SWAP2 AND SUB PUSH2 0xF3D JUMPI PUSH2 0x659 CALLDATASIZE DUP3 DUP5 PUSH2 0x130D JUMP JUMPDEST PUSH1 0x20 DUP2 MLOAD SWAP2 ADD KECCAK256 DUP1 DUP5 MSTORE PUSH1 0x5 PUSH1 0x20 MSTORE PUSH1 0xFF PUSH1 0x40 DUP6 KECCAK256 SLOAD AND PUSH2 0xEF8 JUMPI DUP4 MSTORE PUSH1 0x5 PUSH1 0x20 MSTORE PUSH1 0x40 DUP4 KECCAK256 DUP1 SLOAD PUSH1 0xFF NOT AND PUSH1 0x1 OR SWAP1 SSTORE DUP2 ADD PUSH1 0x80 DUP3 DUP3 SUB SLT PUSH2 0xEF4 JUMPI DUP2 CALLDATALOAD SWAP1 PUSH8 0xFFFFFFFFFFFFFFFF DUP3 GT PUSH2 0xEF0 JUMPI PUSH2 0x6B3 SWAP2 DUP4 ADD PUSH2 0x1354 JUMP JUMPDEST PUSH2 0x6BF PUSH1 0x20 DUP4 ADD PUSH2 0x14AA JUMP JUMPDEST SWAP1 PUSH2 0x6CC PUSH1 0x40 DUP5 ADD PUSH2 0x14AA JUMP JUMPDEST SWAP3 DUP2 MLOAD ISZERO PUSH2 0xEB6 JUMPI PUSH1 0x1 PUSH1 0x1 PUSH1 0xA0 SHL SUB DUP4 AND ISZERO PUSH2 0xE7E JUMPI PUSH1 0x1 PUSH1 0x1 PUSH1 0xA0 SHL SUB DUP5 AND ISZERO PUSH2 0xE45 JUMPI PUSH1 0x60 DUP2 ADD CALLDATALOAD ISZERO PUSH2 0xE00 JUMPI SELFBALANCE SWAP1 DUP2 ISZERO PUSH2 0xDC9 JUMPI PUSH2 0x70D DUP4 PUSH2 0x14BE JUMP JUMPDEST PUSH32 0xD78903455E3BFE57A34C1B193AD1751A51CA1B1075F0562C334E3EA6A2814889 PUSH1 0x20 PUSH1 0x40 MLOAD DUP6 DUP2 MSTORE LOG2 PUSH1 0x60 PUSH1 0x40 MLOAD SWAP2 PUSH2 0x746 DUP4 PUSH2 0x12B8 JUMP JUMPDEST DUP5 DUP4 MSTORE PUSH1 0x1 DUP1 PUSH1 0xA0 SHL SUB DUP7 AND PUSH1 0x20 DUP5 ADD MSTORE PUSH1 0x1 DUP1 PUSH1 0xA0 SHL SUB DUP8 AND PUSH1 0x40 DUP5 ADD MSTORE ADD CALLDATALOAD PUSH1 0x60 DUP3 ADD MSTORE DUP2 PUSH1 0x80 DUP3 ADD MSTORE DUP6 PUSH1 0xA0 DUP3 ADD MSTORE DUP6 PUSH1 0xC0 DUP3 ADD MSTORE TIMESTAMP PUSH1 0xE0 DUP3 ADD MSTORE PUSH1 0x40 MLOAD PUSH1 0x20 DUP2 DUP6 MLOAD PUSH2 0x799 DUP2 DUP4 DUP6 DUP11 ADD PUSH2 0x125D JUMP JUMPDEST DUP2 ADD PUSH1 0x4 DUP2 MSTORE SUB ADD SWAP1 KECCAK256 SWAP1 DUP1 MLOAD DUP1 MLOAD SWAP1 PUSH8 0xFFFFFFFFFFFFFFFF DUP3 GT PUSH2 0xDB5 JUMPI PUSH2 0x7C2 DUP5 SLOAD PUSH2 0x1372 JUMP JUMPDEST PUSH1 0x1F DUP2 GT PUSH2 0xD74 JUMPI JUMPDEST POP PUSH1 0x20 SWAP1 PUSH1 0x1F DUP4 GT PUSH1 0x1 EQ PUSH2 0xD08 JUMPI SWAP2 DUP1 PUSH1 0x7 SWAP5 SWAP3 PUSH1 0xE0 SWAP5 DUP13 SWAP3 PUSH2 0xCFD JUMPI JUMPDEST POP POP DUP2 PUSH1 0x1 SHL SWAP2 PUSH1 0x0 NOT SWAP1 PUSH1 0x3 SHL SHR NOT AND OR DUP5 SSTORE JUMPDEST PUSH1 0x20 DUP2 DUP2 ADD MLOAD PUSH1 0x1 DUP7 ADD DUP1 SLOAD PUSH1 0x1 PUSH1 0x1 PUSH1 0xA0 SHL SUB SWAP3 DUP4 AND PUSH1 0x1 PUSH1 0x1 PUSH1 0xA0 SHL SUB NOT SWAP2 DUP3 AND OR SWAP1 SWAP2 SSTORE PUSH1 0x40 DUP1 DUP6 ADD MLOAD PUSH1 0x2 DUP10 ADD DUP1 SLOAD SWAP2 DUP6 AND SWAP2 SWAP1 SWAP4 AND OR SWAP1 SWAP2 SSTORE PUSH1 0x60 DUP5 ADD MLOAD PUSH1 0x3 DUP9 ADD SSTORE PUSH1 0x80 DUP5 ADD MLOAD PUSH1 0x4 DUP1 DUP10 ADD SWAP2 SWAP1 SWAP2 SSTORE PUSH1 0xA0 DUP6 ADD MLOAD PUSH1 0x5 DUP10 ADD SSTORE PUSH1 0xC0 DUP6 ADD MLOAD PUSH1 0x6 DUP10 ADD DUP1 SLOAD PUSH1 0xFF NOT AND SWAP2 ISZERO ISZERO PUSH1 0xFF AND SWAP2 SWAP1 SWAP2 OR SWAP1 SSTORE SWAP5 SWAP1 SWAP4 ADD MLOAD SWAP5 SWAP1 SWAP6 ADD SWAP4 SWAP1 SWAP4 SSTORE MLOAD PUSH4 0x449E815D PUSH1 0xE0 SHL DUP2 MSTORE SWAP3 DUP8 AND SWAP1 DUP4 ADD MSTORE PUSH1 0x24 DUP3 ADD DUP4 SWAP1 MSTORE DUP2 DUP1 PUSH1 0x44 DUP2 ADD SUB DUP2 PUSH20 0xFBEF475155294D7EF054F2B79B908C91A9914D82 GAS STATICCALL SWAP1 DUP2 ISZERO PUSH2 0xB8E JUMPI DUP7 SWAP2 PUSH2 0xCCB JUMPI JUMPDEST POP ISZERO PUSH2 0xC86 JUMPI PUSH1 0x40 MLOAD PUSH4 0x70A08231 PUSH1 0xE0 SHL DUP2 MSTORE ADDRESS PUSH1 0x4 DUP3 ADD MSTORE SWAP1 PUSH1 0x20 DUP3 PUSH1 0x24 DUP2 PUSH1 0x1 PUSH1 0x1 PUSH1 0xA0 SHL SUB DUP10 AND GAS STATICCALL SWAP2 DUP3 ISZERO PUSH2 0xB8E JUMPI DUP7 SWAP3 PUSH2 0xC4E JUMPI JUMPDEST POP DUP6 PUSH20 0xFBEF475155294D7EF054F2B79B908C91A9914D82 EXTCODESIZE ISZERO PUSH2 0x115 JUMPI PUSH1 0x40 MLOAD PUSH4 0x14336CB7 PUSH1 0xE1 SHL DUP2 MSTORE PUSH1 0x1 PUSH1 0x1 PUSH1 0xA0 SHL SUB DUP8 AND PUSH1 0x4 DUP3 ADD MSTORE SWAP2 DUP3 SWAP1 PUSH1 0x24 SWAP1 DUP3 SWAP1 PUSH20 0xFBEF475155294D7EF054F2B79B908C91A9914D82 GAS CALL DUP1 ISZERO PUSH2 0xB8E JUMPI PUSH2 0xC1E JUMPI JUMPDEST POP PUSH1 0x40 MLOAD PUSH4 0x70A08231 PUSH1 0xE0 SHL DUP2 MSTORE ADDRESS PUSH1 0x4 DUP3 ADD MSTORE SWAP1 PUSH1 0x20 DUP3 PUSH1 0x24 DUP2 PUSH1 0x1 PUSH1 0x1 PUSH1 0xA0 SHL SUB DUP10 AND GAS STATICCALL SWAP2 DUP3 ISZERO PUSH2 0xB8E JUMPI DUP7 SWAP3 PUSH2 0xBEA JUMPI JUMPDEST POP DUP1 DUP3 SUB SWAP2 DUP1 DUP4 GT PUSH2 0xBD6 JUMPI EQ PUSH2 0xB99 JUMPI PUSH2 0x9B9 DUP3 PUSH2 0x14BE JUMP JUMPDEST PUSH1 0x40 MLOAD DUP3 DUP2 MSTORE PUSH1 0x1 PUSH1 0x1 PUSH1 0xA0 SHL SUB DUP7 AND SWAP2 SWAP1 PUSH32 0x64B375E23D0A49242BBE0BF3B00B33B24B578CE73115CB608C1D6B16619ABAF1 SWAP1 PUSH1 0x20 SWAP1 LOG3 PUSH1 0x40 MLOAD PUSH4 0xA9059CBB PUSH1 0xE0 SHL DUP2 MSTORE PUSH1 0x1 PUSH1 0x1 PUSH1 0xA0 SHL SUB DUP5 AND PUSH1 0x4 DUP3 ADD MSTORE PUSH1 0x24 DUP2 ADD DUP3 SWAP1 MSTORE PUSH1 0x20 DUP2 DUP1 PUSH1 0x44 DUP2 ADD SUB DUP2 DUP10 PUSH1 0x1 PUSH1 0x1 PUSH1 0xA0 SHL SUB DUP11 AND GAS CALL SWAP1 DUP2 ISZERO PUSH2 0xB8E JUMPI DUP7 SWAP2 PUSH2 0xB6F JUMPI JUMPDEST POP ISZERO PUSH2 0xB2A JUMPI PUSH2 0xB02 DUP3 PUSH2 0xA6D PUSH32 0x34DDB4977C7A6A68D953DC3BA5FD644201E8A9393F14165B9337C4B21841818D SWAP5 PUSH2 0x14BE JUMP JUMPDEST PUSH1 0x40 DUP1 MLOAD PUSH1 0x1 PUSH1 0x1 PUSH1 0xA0 SHL SUB DUP10 DUP2 AND DUP3 MSTORE PUSH1 0x20 DUP3 ADD DUP8 SWAP1 MSTORE DUP9 AND SWAP3 SWAP2 PUSH32 0x894CD3FD07F280A6B5905BD88C369C8CAE8EFACA3DE6D2F722094D9A9B5FE153 SWAP2 LOG3 DUP3 PUSH1 0x5 PUSH1 0x40 MLOAD PUSH1 0x20 DUP2 DUP6 MLOAD PUSH2 0xAC4 DUP2 DUP4 DUP6 DUP11 ADD PUSH2 0x125D JUMP JUMPDEST DUP2 ADD PUSH1 0x4 DUP2 MSTORE SUB ADD SWAP1 KECCAK256 ADD SSTORE PUSH1 0x6 PUSH1 0x40 MLOAD PUSH1 0x20 DUP2 DUP5 MLOAD PUSH2 0xAE7 DUP2 DUP4 DUP6 DUP10 ADD PUSH2 0x125D JUMP JUMPDEST DUP2 ADD PUSH1 0x4 DUP2 MSTORE SUB ADD SWAP1 KECCAK256 ADD PUSH1 0x1 PUSH1 0xFF NOT DUP3 SLOAD AND OR SWAP1 SSTORE PUSH2 0x14BE JUMP JUMPDEST PUSH1 0x40 DUP1 MLOAD PUSH1 0x1 PUSH1 0x1 PUSH1 0xA0 SHL SUB SWAP7 DUP8 AND DUP2 MSTORE PUSH1 0x20 DUP2 ADD SWAP4 SWAP1 SWAP4 MSTORE SWAP4 SWAP1 SWAP5 AND SWAP4 SWAP3 SWAP1 LOG3 PUSH1 0x1 DUP2 SSTORE DUP1 RETURN JUMPDEST PUSH1 0x40 MLOAD PUSH3 0x461BCD PUSH1 0xE5 SHL DUP2 MSTORE PUSH1 0x20 PUSH1 0x4 DUP3 ADD MSTORE PUSH1 0x1B PUSH1 0x24 DUP3 ADD MSTORE PUSH32 0x5472616E7366657220746F206D65726368616E74206661696C65640000000000 PUSH1 0x44 DUP3 ADD MSTORE PUSH1 0x64 SWAP1 REVERT JUMPDEST PUSH2 0xB88 SWAP2 POP PUSH1 0x20 RETURNDATASIZE PUSH1 0x20 GT PUSH2 0x3E1 JUMPI PUSH2 0x3D3 DUP2 DUP4 PUSH2 0x12EB JUMP JUMPDEST CODESIZE PUSH2 0xA39 JUMP JUMPDEST PUSH1 0x40 MLOAD RETURNDATASIZE DUP9 DUP3 RETURNDATACOPY RETURNDATASIZE SWAP1 REVERT JUMPDEST PUSH1 0x40 MLOAD PUSH3 0x461BCD PUSH1 0xE5 SHL DUP2 MSTORE PUSH1 0x20 PUSH1 0x4 DUP3 ADD MSTORE PUSH1 0x15 PUSH1 0x24 DUP3 ADD MSTORE PUSH21 0x11985B881D1BDAD95B881CDDD85C0819985A5B1959 PUSH1 0x5A SHL PUSH1 0x44 DUP3 ADD MSTORE PUSH1 0x64 SWAP1 REVERT JUMPDEST PUSH4 0x4E487B71 PUSH1 0xE0 SHL DUP8 MSTORE PUSH1 0x11 PUSH1 0x4 MSTORE PUSH1 0x24 DUP8 REVERT JUMPDEST SWAP1 SWAP2 POP PUSH1 0x20 DUP2 RETURNDATASIZE PUSH1 0x20 GT PUSH2 0xC16 JUMPI JUMPDEST DUP2 PUSH2 0xC06 PUSH1 0x20 SWAP4 DUP4 PUSH2 0x12EB JUMP JUMPDEST DUP2 ADD SUB SLT PUSH2 0x28A JUMPI MLOAD SWAP1 CODESIZE PUSH2 0x99F JUMP JUMPDEST RETURNDATASIZE SWAP2 POP PUSH2 0xBF9 JUMP JUMPDEST PUSH8 0xFFFFFFFFFFFFFFFF DUP2 SWAP7 SWAP3 SWAP7 GT PUSH2 0xC3A JUMPI PUSH1 0x40 MSTORE SWAP4 CODESIZE PUSH2 0x96A JUMP JUMPDEST PUSH4 0x4E487B71 PUSH1 0xE0 SHL DUP3 MSTORE PUSH1 0x41 PUSH1 0x4 MSTORE PUSH1 0x24 DUP3 REVERT JUMPDEST SWAP1 SWAP2 POP PUSH1 0x20 DUP2 RETURNDATASIZE PUSH1 0x20 GT PUSH2 0xC7E JUMPI JUMPDEST DUP2 PUSH2 0xC6A PUSH1 0x20 SWAP4 DUP4 PUSH2 0x12EB JUMP JUMPDEST DUP2 ADD SUB SLT PUSH2 0xC7A JUMPI MLOAD SWAP1 CODESIZE PUSH2 0x907 JUMP JUMPDEST DUP6 DUP1 REVERT JUMPDEST RETURNDATASIZE SWAP2 POP PUSH2 0xC5D JUMP JUMPDEST PUSH1 0x40 MLOAD PUSH3 0x461BCD PUSH1 0xE5 SHL DUP2 MSTORE PUSH1 0x20 PUSH1 0x4 DUP3 ADD MSTORE PUSH1 0x1A PUSH1 0x24 DUP3 ADD MSTORE PUSH32 0x4E6F206C697175696469747920666F722066616E20746F6B656E000000000000 PUSH1 0x44 DUP3 ADD MSTORE PUSH1 0x64 SWAP1 REVERT JUMPDEST SWAP1 POP PUSH1 0x20 DUP2 RETURNDATASIZE PUSH1 0x20 GT PUSH2 0xCF5 JUMPI JUMPDEST DUP2 PUSH2 0xCE6 PUSH1 0x20 SWAP4 DUP4 PUSH2 0x12EB JUMP JUMPDEST DUP2 ADD SUB SLT PUSH2 0xC7A JUMPI MLOAD CODESIZE PUSH2 0x8CD JUMP JUMPDEST RETURNDATASIZE SWAP2 POP PUSH2 0xCD9 JUMP JUMPDEST ADD MLOAD SWAP1 POP CODESIZE DUP1 PUSH2 0x7EA JUMP JUMPDEST SWAP1 DUP5 DUP11 MSTORE PUSH1 0x20 DUP11 KECCAK256 SWAP2 DUP11 JUMPDEST PUSH1 0x1F NOT DUP6 AND DUP2 LT PUSH2 0xD5C JUMPI POP SWAP3 PUSH1 0x7 SWAP5 SWAP3 PUSH1 0x1 SWAP3 PUSH1 0xE0 SWAP6 DUP4 PUSH1 0x1F NOT DUP2 AND LT PUSH2 0xD43 JUMPI JUMPDEST POP POP POP DUP2 SHL ADD DUP5 SSTORE PUSH2 0x7FF JUMP JUMPDEST ADD MLOAD PUSH1 0x0 NOT PUSH1 0xF8 DUP5 PUSH1 0x3 SHL AND SHR NOT AND SWAP1 SSTORE CODESIZE DUP1 DUP1 PUSH2 0xD36 JUMP JUMPDEST SWAP2 SWAP3 PUSH1 0x20 PUSH1 0x1 DUP2 SWAP3 DUP7 DUP6 ADD MLOAD DUP2 SSTORE ADD SWAP5 ADD SWAP3 ADD PUSH2 0xD13 JUMP JUMPDEST DUP5 DUP11 MSTORE PUSH1 0x20 DUP11 KECCAK256 PUSH1 0x1F DUP5 ADD PUSH1 0x5 SHR DUP2 ADD PUSH1 0x20 DUP6 LT PUSH2 0xDAE JUMPI JUMPDEST PUSH1 0x1F DUP4 ADD PUSH1 0x5 SHR DUP3 ADD DUP2 LT PUSH2 0xDA3 JUMPI POP POP PUSH2 0x7CB JUMP JUMPDEST DUP12 DUP2 SSTORE PUSH1 0x1 ADD PUSH2 0xD8D JUMP JUMPDEST POP DUP1 PUSH2 0xD8D JUMP JUMPDEST PUSH4 0x4E487B71 PUSH1 0xE0 SHL DUP10 MSTORE PUSH1 0x41 PUSH1 0x4 MSTORE PUSH1 0x24 DUP10 REVERT JUMPDEST PUSH1 0x40 MLOAD PUSH3 0x461BCD PUSH1 0xE5 SHL DUP2 MSTORE PUSH1 0x20 PUSH1 0x4 DUP3 ADD MSTORE PUSH1 0xF PUSH1 0x24 DUP3 ADD MSTORE PUSH15 0x139BC810D216881C9958D95A5D9959 PUSH1 0x8A SHL PUSH1 0x44 DUP3 ADD MSTORE PUSH1 0x64 SWAP1 REVERT JUMPDEST PUSH1 0x40 MLOAD PUSH3 0x461BCD PUSH1 0xE5 SHL DUP2 MSTORE PUSH1 0x20 PUSH1 0x4 DUP3 ADD MSTORE PUSH1 0x18 PUSH1 0x24 DUP3 ADD MSTORE PUSH32 0x496E76616C69642066616E20746F6B656E20616D6F756E740000000000000000 PUSH1 0x44 DUP3 ADD MSTORE PUSH1 0x64 SWAP1 REVERT JUMPDEST PUSH1 0x40 MLOAD PUSH3 0x461BCD PUSH1 0xE5 SHL DUP2 MSTORE PUSH1 0x20 PUSH1 0x4 DUP3 ADD MSTORE PUSH1 0x11 PUSH1 0x24 DUP3 ADD MSTORE PUSH17 0x24B73B30B634B2103330B7103A37B5B2B7 PUSH1 0x79 SHL PUSH1 0x44 DUP3 ADD MSTORE PUSH1 0x64 SWAP1 REVERT JUMPDEST PUSH1 0x40 MLOAD PUSH3 0x461BCD PUSH1 0xE5 SHL DUP2 MSTORE PUSH1 0x20 PUSH1 0x4 DUP3 ADD MSTORE PUSH1 0x10 PUSH1 0x24 DUP3 ADD MSTORE PUSH16 0x125B9D985B1A59081B595C98DA185B9D PUSH1 0x82 SHL PUSH1 0x44 DUP3 ADD MSTORE PUSH1 0x64 SWAP1 REVERT JUMPDEST PUSH1 0x40 MLOAD PUSH3 0x461BCD PUSH1 0xE5 SHL DUP2 MSTORE PUSH1 0x20 PUSH1 0x4 DUP3 ADD MSTORE PUSH1 0x12 PUSH1 0x24 DUP3 ADD MSTORE PUSH18 0x125B9D985B1A59081C185E5B595B9D081251 PUSH1 0x72 SHL PUSH1 0x44 DUP3 ADD MSTORE PUSH1 0x64 SWAP1 REVERT JUMPDEST DUP4 DUP1 REVERT JUMPDEST DUP3 DUP1 REVERT JUMPDEST PUSH1 0x40 MLOAD PUSH3 0x461BCD PUSH1 0xE5 SHL DUP2 MSTORE PUSH1 0x20 PUSH1 0x4 DUP3 ADD MSTORE PUSH1 0x19 PUSH1 0x24 DUP3 ADD MSTORE PUSH32 0x4D65737361676520616C72656164792070726F63657373656400000000000000 PUSH1 0x44 DUP3 ADD MSTORE PUSH1 0x64 SWAP1 REVERT JUMPDEST PUSH1 0x40 MLOAD PUSH3 0x461BCD PUSH1 0xE5 SHL DUP2 MSTORE PUSH1 0x20 PUSH1 0x4 DUP3 ADD MSTORE PUSH1 0xE PUSH1 0x24 DUP3 ADD MSTORE PUSH14 0x24B73B30B634B21039B2B73232B9 PUSH1 0x91 SHL PUSH1 0x44 DUP3 ADD MSTORE PUSH1 0x64 SWAP1 REVERT JUMPDEST PUSH1 0x40 MLOAD PUSH3 0x461BCD PUSH1 0xE5 SHL DUP2 MSTORE PUSH1 0x20 PUSH1 0x4 DUP3 ADD MSTORE PUSH1 0x15 PUSH1 0x24 DUP3 ADD MSTORE PUSH21 0x24B73B30B634B21037B934B3B4B7103237B6B0B4B7 PUSH1 0x59 SHL PUSH1 0x44 DUP3 ADD MSTORE PUSH1 0x64 SWAP1 REVERT JUMPDEST PUSH1 0x40 MLOAD PUSH3 0x461BCD PUSH1 0xE5 SHL DUP2 MSTORE PUSH1 0x20 PUSH1 0x4 DUP3 ADD MSTORE PUSH1 0x1F PUSH1 0x24 DUP3 ADD MSTORE PUSH32 0x5265656E7472616E637947756172643A207265656E7472616E742063616C6C00 PUSH1 0x44 DUP3 ADD MSTORE PUSH1 0x64 SWAP1 REVERT JUMPDEST PUSH1 0x40 MLOAD PUSH3 0x461BCD PUSH1 0xE5 SHL DUP2 MSTORE PUSH1 0x20 PUSH1 0x4 DUP3 ADD MSTORE PUSH1 0x16 PUSH1 0x24 DUP3 ADD MSTORE PUSH22 0x9EDCD8F24090F2E0CAE4D8C2DCCA40DAC2D2D8C4DEF PUSH1 0x53 SHL PUSH1 0x44 DUP3 ADD MSTORE PUSH1 0x64 SWAP1 REVERT JUMPDEST POP CALLVALUE PUSH2 0x115 JUMPI DUP1 PUSH1 0x3 NOT CALLDATASIZE ADD SLT PUSH2 0x115 JUMPI PUSH1 0x2 SLOAD PUSH1 0x40 MLOAD PUSH1 0x1 PUSH1 0x1 PUSH1 0xA0 SHL SUB SWAP1 SWAP2 AND DUP2 MSTORE PUSH1 0x20 SWAP1 RETURN JUMPDEST POP CALLVALUE PUSH2 0x115 JUMPI PUSH1 0x20 DUP1 PUSH1 0x3 NOT CALLDATASIZE ADD SLT PUSH2 0x11B0 JUMPI PUSH1 0x4 CALLDATALOAD PUSH8 0xFFFFFFFFFFFFFFFF DUP2 GT PUSH2 0xEF4 JUMPI SWAP2 DUP2 PUSH2 0x1094 PUSH2 0x117E SWAP5 CALLDATASIZE SWAP1 PUSH1 0x4 ADD PUSH2 0x122F JUMP JUMPDEST SWAP3 PUSH1 0xE0 PUSH1 0x40 MLOAD PUSH2 0x10A3 DUP2 PUSH2 0x12B8 JUMP JUMPDEST PUSH1 0x60 DUP2 MSTORE DUP3 DUP6 DUP3 ADD MSTORE DUP3 PUSH1 0x40 DUP3 ADD MSTORE DUP3 PUSH1 0x60 DUP3 ADD MSTORE DUP3 PUSH1 0x80 DUP3 ADD MSTORE DUP3 PUSH1 0xA0 DUP3 ADD MSTORE DUP3 PUSH1 0xC0 DUP3 ADD MSTORE ADD MSTORE DUP3 PUSH1 0x40 MLOAD SWAP4 DUP5 SWAP3 DUP4 CALLDATACOPY DUP2 ADD PUSH1 0x4 DUP2 MSTORE SUB ADD SWAP1 KECCAK256 PUSH1 0x40 MLOAD SWAP2 PUSH2 0x10EC DUP4 PUSH2 0x12B8 JUMP JUMPDEST PUSH2 0x10F5 DUP3 PUSH2 0x13AC JUMP JUMPDEST DUP4 MSTORE PUSH1 0x1 DUP1 PUSH1 0xA0 SHL SUB DUP1 PUSH1 0x1 DUP5 ADD SLOAD AND SWAP3 DUP3 DUP6 ADD SWAP4 DUP5 MSTORE DUP2 PUSH1 0x2 DUP3 ADD SLOAD AND SWAP2 PUSH1 0x40 DUP7 ADD SWAP3 DUP4 MSTORE PUSH1 0x3 DUP3 ADD SLOAD PUSH1 0x60 DUP8 ADD SWAP1 DUP2 MSTORE PUSH1 0x4 DUP4 ADD SLOAD SWAP1 PUSH1 0x80 DUP9 ADD SWAP2 DUP3 MSTORE PUSH1 0x5 DUP5 ADD SLOAD SWAP3 PUSH1 0xA0 DUP10 ADD SWAP4 DUP5 MSTORE PUSH1 0x7 PUSH1 0xFF PUSH1 0x6 DUP8 ADD SLOAD AND SWAP6 PUSH1 0xC0 DUP12 ADD SWAP7 ISZERO ISZERO DUP8 MSTORE ADD SLOAD SWAP6 PUSH1 0xE0 DUP11 ADD SWAP7 DUP8 MSTORE DUP2 PUSH1 0x40 MLOAD SWAP12 DUP13 SWAP12 DUP11 DUP14 MSTORE MLOAD DUP13 PUSH2 0x100 SWAP12 DUP13 SWAP2 ADD MSTORE PUSH2 0x120 DUP14 ADD SWAP1 PUSH2 0x1280 JUMP JUMPDEST SWAP10 MLOAD AND PUSH1 0x40 DUP12 ADD MSTORE MLOAD AND PUSH1 0x60 DUP10 ADD MSTORE MLOAD PUSH1 0x80 DUP9 ADD MSTORE MLOAD PUSH1 0xA0 DUP8 ADD MSTORE MLOAD PUSH1 0xC0 DUP7 ADD MSTORE MLOAD ISZERO ISZERO PUSH1 0xE0 DUP6 ADD MSTORE MLOAD SWAP1 DUP4 ADD MSTORE SUB SWAP1 RETURN JUMPDEST POP DUP1 REVERT JUMPDEST POP CALLVALUE PUSH2 0x115 JUMPI PUSH1 0x20 CALLDATASIZE PUSH1 0x3 NOT ADD SLT PUSH2 0x115 JUMPI PUSH2 0x11CE PUSH2 0x1219 JUMP JUMPDEST PUSH2 0x11D6 PUSH2 0x1452 JUMP JUMPDEST PUSH1 0x1 DUP1 PUSH1 0xA0 SHL SUB AND PUSH1 0x1 PUSH1 0x1 PUSH1 0x60 SHL SUB PUSH1 0xA0 SHL PUSH1 0x2 SLOAD AND OR PUSH1 0x2 SSTORE DUP1 RETURN JUMPDEST SWAP1 POP CALLVALUE PUSH2 0x11B0 JUMPI DUP2 PUSH1 0x3 NOT CALLDATASIZE ADD SLT PUSH2 0x11B0 JUMPI PUSH1 0x20 SWAP1 PUSH4 0xFFFFFFFF PUSH1 0x2 SLOAD PUSH1 0xA0 SHR AND DUP2 MSTORE RETURN JUMPDEST PUSH1 0x4 CALLDATALOAD SWAP1 PUSH1 0x1 PUSH1 0x1 PUSH1 0xA0 SHL SUB DUP3 AND DUP3 SUB PUSH2 0x28A JUMPI JUMP JUMPDEST SWAP2 DUP2 PUSH1 0x1F DUP5 ADD SLT ISZERO PUSH2 0x28A JUMPI DUP3 CALLDATALOAD SWAP2 PUSH8 0xFFFFFFFFFFFFFFFF DUP4 GT PUSH2 0x28A JUMPI PUSH1 0x20 DUP4 DUP2 DUP7 ADD SWAP6 ADD ADD GT PUSH2 0x28A JUMPI JUMP JUMPDEST PUSH1 0x0 JUMPDEST DUP4 DUP2 LT PUSH2 0x1270 JUMPI POP POP PUSH1 0x0 SWAP2 ADD MSTORE JUMP JUMPDEST DUP2 DUP2 ADD MLOAD DUP4 DUP3 ADD MSTORE PUSH1 0x20 ADD PUSH2 0x1260 JUMP JUMPDEST SWAP1 PUSH1 0x20 SWAP2 PUSH2 0x1299 DUP2 MLOAD DUP1 SWAP3 DUP2 DUP6 MSTORE DUP6 DUP1 DUP7 ADD SWAP2 ADD PUSH2 0x125D JUMP JUMPDEST PUSH1 0x1F ADD PUSH1 0x1F NOT AND ADD ADD SWAP1 JUMP JUMPDEST PUSH1 0x4 CALLDATALOAD SWAP1 PUSH4 0xFFFFFFFF DUP3 AND DUP3 SUB PUSH2 0x28A JUMPI JUMP JUMPDEST PUSH2 0x100 DUP2 ADD SWAP1 DUP2 LT PUSH8 0xFFFFFFFFFFFFFFFF DUP3 GT OR PUSH2 0x12D5 JUMPI PUSH1 0x40 MSTORE JUMP JUMPDEST PUSH4 0x4E487B71 PUSH1 0xE0 SHL PUSH1 0x0 MSTORE PUSH1 0x41 PUSH1 0x4 MSTORE PUSH1 0x24 PUSH1 0x0 REVERT JUMPDEST SWAP1 PUSH1 0x1F DUP1 NOT SWAP2 ADD AND DUP2 ADD SWAP1 DUP2 LT PUSH8 0xFFFFFFFFFFFFFFFF DUP3 GT OR PUSH2 0x12D5 JUMPI PUSH1 0x40 MSTORE JUMP JUMPDEST SWAP3 SWAP2 SWAP3 PUSH8 0xFFFFFFFFFFFFFFFF DUP3 GT PUSH2 0x12D5 JUMPI PUSH1 0x40 MLOAD SWAP2 PUSH2 0x1337 PUSH1 0x1F DUP3 ADD PUSH1 0x1F NOT AND PUSH1 0x20 ADD DUP5 PUSH2 0x12EB JUMP JUMPDEST DUP3 SWAP5 DUP2 DUP5 MSTORE DUP2 DUP4 ADD GT PUSH2 0x28A JUMPI DUP3 DUP2 PUSH1 0x20 SWAP4 DUP5 PUSH1 0x0 SWAP7 ADD CALLDATACOPY ADD ADD MSTORE JUMP JUMPDEST SWAP1 DUP1 PUSH1 0x1F DUP4 ADD SLT ISZERO PUSH2 0x28A JUMPI DUP2 PUSH1 0x20 PUSH2 0x136F SWAP4 CALLDATALOAD SWAP2 ADD PUSH2 0x130D JUMP JUMPDEST SWAP1 JUMP JUMPDEST SWAP1 PUSH1 0x1 DUP3 DUP2 SHR SWAP3 AND DUP1 ISZERO PUSH2 0x13A2 JUMPI JUMPDEST PUSH1 0x20 DUP4 LT EQ PUSH2 0x138C JUMPI JUMP JUMPDEST PUSH4 0x4E487B71 PUSH1 0xE0 SHL PUSH1 0x0 MSTORE PUSH1 0x22 PUSH1 0x4 MSTORE PUSH1 0x24 PUSH1 0x0 REVERT JUMPDEST SWAP2 PUSH1 0x7F AND SWAP2 PUSH2 0x1381 JUMP JUMPDEST SWAP1 PUSH1 0x40 MLOAD SWAP2 DUP3 PUSH1 0x0 DUP3 SLOAD SWAP3 PUSH2 0x13C0 DUP5 PUSH2 0x1372 JUMP JUMPDEST SWAP1 DUP2 DUP5 MSTORE PUSH1 0x1 SWAP5 DUP6 DUP2 AND SWAP1 DUP2 PUSH1 0x0 EQ PUSH2 0x142F JUMPI POP PUSH1 0x1 EQ PUSH2 0x13EC JUMPI JUMPDEST POP POP PUSH2 0x13EA SWAP3 POP SUB DUP4 PUSH2 0x12EB JUMP JUMPDEST JUMP JUMPDEST SWAP1 SWAP4 SWAP2 POP PUSH1 0x0 MSTORE PUSH1 0x20 SWAP1 DUP2 PUSH1 0x0 KECCAK256 SWAP4 PUSH1 0x0 SWAP2 JUMPDEST DUP2 DUP4 LT PUSH2 0x1417 JUMPI POP POP PUSH2 0x13EA SWAP4 POP DUP3 ADD ADD CODESIZE DUP1 PUSH2 0x13DC JUMP JUMPDEST DUP6 SLOAD DUP9 DUP5 ADD DUP6 ADD MSTORE SWAP5 DUP6 ADD SWAP5 DUP8 SWAP5 POP SWAP2 DUP4 ADD SWAP2 PUSH2 0x13FF JUMP JUMPDEST SWAP2 POP POP PUSH2 0x13EA SWAP5 POP PUSH1 0x20 SWAP3 POP PUSH1 0xFF NOT AND DUP3 DUP5 ADD MSTORE ISZERO ISZERO PUSH1 0x5 SHL DUP3 ADD ADD CODESIZE DUP1 PUSH2 0x13DC JUMP JUMPDEST PUSH1 0x1 SLOAD PUSH1 0x1 PUSH1 0x1 PUSH1 0xA0 SHL SUB AND CALLER SUB PUSH2 0x1466 JUMPI JUMP JUMPDEST PUSH1 0x64 PUSH1 0x40 MLOAD PUSH3 0x461BCD PUSH1 0xE5 SHL DUP2 MSTORE PUSH1 0x20 PUSH1 0x4 DUP3 ADD MSTORE PUSH1 0x20 PUSH1 0x24 DUP3 ADD MSTORE PUSH32 0x4F776E61626C653A2063616C6C6572206973206E6F7420746865206F776E6572 PUSH1 0x44 DUP3 ADD MSTORE REVERT JUMPDEST CALLDATALOAD SWAP1 PUSH1 0x1 PUSH1 0x1 PUSH1 0xA0 SHL SUB DUP3 AND DUP3 SUB PUSH2 0x28A JUMPI JUMP JUMPDEST PUSH2 0x14D6 SWAP1 PUSH1 0x20 PUSH1 0x40 MLOAD SWAP3 DUP3 DUP5 DUP1 SWAP5 MLOAD SWAP4 DUP5 SWAP3 ADD PUSH2 0x125D JUMP JUMPDEST DUP2 ADD SUB SWAP1 KECCAK256 SWAP1 JUMP JUMPDEST SWAP1 DUP2 PUSH1 0x20 SWAP2 SUB SLT PUSH2 0x28A JUMPI MLOAD DUP1 ISZERO ISZERO DUP2 SUB PUSH2 0x28A JUMPI SWAP1 JUMP INVALID LOG2 PUSH5 0x6970667358 0x22 SLT KECCAK256 0xD5 0xB9 PUSH8 0xA50B6BBCF0967F7E 0xAC 0xF9 GASLIMIT MSTORE ADDRESS DUP7 ADD 0x1E MSTORE 0x4A 0xA5 0xAF 0xA8 TIMESTAMP PUSH4 0xCE2FEC88 PUSH8 0x4464736F6C634300 ADDMOD SGT STOP CALLER "},"methodIdentifiers":{"getFanTokenPrice(address,uint256)":"d125e992","getProcessedPayment(string)":"11069a83","handle(uint32,bytes32,bytes)":"56d5d475","hyperlaneMailbox()":"1a6e4db4","owner()":"8da5cb5b","paymentGateway()":"ca2169d4","processedMessages(bytes32)":"88ba16ab","processedPayments(string)":"9b931abf","renounceOwnership()":"715018a6","sepoliaDomain()":"0c67acde","setHyperlaneMailbox(address)":"10eedf48","setPaymentGateway(address)":"fd01a7ee","setSepoliaDomain(uint32)":"6d7c7808","transferOwnership(address)":"f2fde38b","withdrawCHZ()":"a2038e1e","withdrawToken(address,uint256)":"9e281a98"}}}}}