{
  "_format": "hh-sol-artifact-1",
  "contractName": "PaymentGateway",
  "sourceName": "src/contracts/PaymentGateway.sol",
  "abi": [
    {
      "anonymous": false,
      "inputs": [
        {
          "indexed": true,
          "internalType": "string",
          "name": "paymentId",
          "type": "string"
        },
        {
          "indexed": true,
          "internalType": "bytes32",
          "name": "messageId",
          "type": "bytes32"
        },
        {
          "indexed": false,
          "internalType": "uint256",
          "name": "mchzAmount",
          "type": "uint256"
        }
      ],
      "name": "BridgeInitiated",
      "type": "event"
    },
    {
      "anonymous": false,
      "inputs": [
        {
          "indexed": true,
          "internalType": "address",
          "name": "previousOwner",
          "type": "address"
        },
        {
          "indexed": true,
          "internalType": "address",
          "name": "newOwner",
          "type": "address"
        }
      ],
      "name": "OwnershipTransferred",
      "type": "event"
    },
    {
      "anonymous": false,
      "inputs": [
        {
          "indexed": true,
          "internalType": "string",
          "name": "paymentId",
          "type": "string"
        },
        {
          "indexed": true,
          "internalType": "address",
          "name": "user",
          "type": "address"
        },
        {
          "indexed": true,
          "internalType": "address",
          "name": "merchant",
          "type": "address"
        },
        {
          "indexed": false,
          "internalType": "address",
          "name": "paymentToken",
          "type": "address"
        },
        {
          "indexed": false,
          "internalType": "uint256",
          "name": "paymentAmount",
          "type": "uint256"
        },
        {
          "indexed": false,
          "internalType": "address",
          "name": "fanToken",
          "type": "address"
        },
        {
          "indexed": false,
          "internalType": "uint256",
          "name": "fanTokenAmount",
          "type": "uint256"
        }
      ],
      "name": "PaymentInitiated",
      "type": "event"
    },
    {
      "anonymous": false,
      "inputs": [
        {
          "indexed": true,
          "internalType": "string",
          "name": "paymentId",
          "type": "string"
        },
        {
          "indexed": false,
          "internalType": "uint256",
          "name": "mchzAmount",
          "type": "uint256"
        }
      ],
      "name": "SwapCompleted",
      "type": "event"
    },
    {
      "inputs": [
        {
          "internalType": "string",
          "name": "paymentId",
          "type": "string"
        },
        {
          "internalType": "address",
          "name": "paymentToken",
          "type": "address"
        },
        {
          "internalType": "uint256",
          "name": "paymentAmount",
          "type": "uint256"
        },
        {
          "internalType": "address",
          "name": "merchant",
          "type": "address"
        },
        {
          "internalType": "address",
          "name": "fanToken",
          "type": "address"
        },
        {
          "internalType": "uint256",
          "name": "fanTokenAmount",
          "type": "uint256"
        },
        {
          "internalType": "uint256",
          "name": "minMchzOut",
          "type": "uint256"
        }
      ],
      "name": "executePayment",
      "outputs": [],
      "stateMutability": "nonpayable",
      "type": "function"
    },
    {
      "inputs": [
        {
          "internalType": "string",
          "name": "paymentId",
          "type": "string"
        }
      ],
      "name": "getPayment",
      "outputs": [
        {
          "components": [
            {
              "internalType": "string",
              "name": "paymentId",
              "type": "string"
            },
            {
              "internalType": "address",
              "name": "user",
              "type": "address"
            },
            {
              "internalType": "address",
              "name": "merchant",
              "type": "address"
            },
            {
              "internalType": "address",
              "name": "paymentToken",
              "type": "address"
            },
            {
              "internalType": "uint256",
              "name": "paymentAmount",
              "type": "uint256"
            },
            {
              "internalType": "address",
              "name": "fanToken",
              "type": "address"
            },
            {
              "internalType": "uint256",
              "name": "fanTokenAmount",
              "type": "uint256"
            },
            {
              "internalType": "uint256",
              "name": "mchzAmount",
              "type": "uint256"
            },
            {
              "internalType": "bytes32",
              "name": "hyperlaneMessageId",
              "type": "bytes32"
            },
            {
              "internalType": "bool",
              "name": "completed",
              "type": "bool"
            }
          ],
          "internalType": "struct PaymentGateway.Payment",
          "name": "",
          "type": "tuple"
        }
      ],
      "stateMutability": "view",
      "type": "function"
    },
    {
      "inputs": [
        {
          "internalType": "bytes32",
          "name": "messageId",
          "type": "bytes32"
        }
      ],
      "name": "getPaymentByMessageId",
      "outputs": [
        {
          "components": [
            {
              "internalType": "string",
              "name": "paymentId",
              "type": "string"
            },
            {
              "internalType": "address",
              "name": "user",
              "type": "address"
            },
            {
              "internalType": "address",
              "name": "merchant",
              "type": "address"
            },
            {
              "internalType": "address",
              "name": "paymentToken",
              "type": "address"
            },
            {
              "internalType": "uint256",
              "name": "paymentAmount",
              "type": "uint256"
            },
            {
              "internalType": "address",
              "name": "fanToken",
              "type": "address"
            },
            {
              "internalType": "uint256",
              "name": "fanTokenAmount",
              "type": "uint256"
            },
            {
              "internalType": "uint256",
              "name": "mchzAmount",
              "type": "uint256"
            },
            {
              "internalType": "bytes32",
              "name": "hyperlaneMessageId",
              "type": "bytes32"
            },
            {
              "internalType": "bool",
              "name": "completed",
              "type": "bool"
            }
          ],
          "internalType": "struct PaymentGateway.Payment",
          "name": "",
          "type": "tuple"
        }
      ],
      "stateMutability": "view",
      "type": "function"
    },
    {
      "inputs": [
        {
          "internalType": "address",
          "name": "paymentToken",
          "type": "address"
        },
        {
          "internalType": "uint256",
          "name": "mchzAmountOut",
          "type": "uint256"
        }
      ],
      "name": "getQuote",
      "outputs": [
        {
          "internalType": "uint256",
          "name": "paymentTokenNeeded",
          "type": "uint256"
        },
        {
          "internalType": "bool",
          "name": "useWethRoute",
          "type": "bool"
        }
      ],
      "stateMutability": "view",
      "type": "function"
    },
    {
      "inputs": [
        {
          "internalType": "bytes32",
          "name": "",
          "type": "bytes32"
        }
      ],
      "name": "messageToPaymentId",
      "outputs": [
        {
          "internalType": "string",
          "name": "",
          "type": "string"
        }
      ],
      "stateMutability": "view",
      "type": "function"
    },
    {
      "inputs": [],
      "name": "owner",
      "outputs": [
        {
          "internalType": "address",
          "name": "",
          "type": "address"
        }
      ],
      "stateMutability": "view",
      "type": "function"
    },
    {
      "inputs": [],
      "name": "paymentProcessor",
      "outputs": [
        {
          "internalType": "address",
          "name": "",
          "type": "address"
        }
      ],
      "stateMutability": "view",
      "type": "function"
    },
    {
      "inputs": [
        {
          "internalType": "string",
          "name": "",
          "type": "string"
        }
      ],
      "name": "payments",
      "outputs": [
        {
          "internalType": "string",
          "name": "paymentId",
          "type": "string"
        },
        {
          "internalType": "address",
          "name": "user",
          "type": "address"
        },
        {
          "internalType": "address",
          "name": "merchant",
          "type": "address"
        },
        {
          "internalType": "address",
          "name": "paymentToken",
          "type": "address"
        },
        {
          "internalType": "uint256",
          "name": "paymentAmount",
          "type": "uint256"
        },
        {
          "internalType": "address",
          "name": "fanToken",
          "type": "address"
        },
        {
          "internalType": "uint256",
          "name": "fanTokenAmount",
          "type": "uint256"
        },
        {
          "internalType": "uint256",
          "name": "mchzAmount",
          "type": "uint256"
        },
        {
          "internalType": "bytes32",
          "name": "hyperlaneMessageId",
          "type": "bytes32"
        },
        {
          "internalType": "bool",
          "name": "completed",
          "type": "bool"
        }
      ],
      "stateMutability": "view",
      "type": "function"
    },
    {
      "inputs": [
        {
          "internalType": "address",
          "name": "tokenA",
          "type": "address"
        },
        {
          "internalType": "address",
          "name": "tokenB",
          "type": "address"
        }
      ],
      "name": "poolExists",
      "outputs": [
        {
          "internalType": "bool",
          "name": "",
          "type": "bool"
        }
      ],
      "stateMutability": "view",
      "type": "function"
    },
    {
      "inputs": [],
      "name": "renounceOwnership",
      "outputs": [],
      "stateMutability": "nonpayable",
      "type": "function"
    },
    {
      "inputs": [
        {
          "internalType": "address",
          "name": "_paymentProcessor",
          "type": "address"
        }
      ],
      "name": "setPaymentProcessor",
      "outputs": [],
      "stateMutability": "nonpayable",
      "type": "function"
    },
    {
      "inputs": [
        {
          "internalType": "address",
          "name": "newOwner",
          "type": "address"
        }
      ],
      "name": "transferOwnership",
      "outputs": [],
      "stateMutability": "nonpayable",
      "type": "function"
    },
    {
      "inputs": [],
      "name": "withdrawETH",
      "outputs": [],
      "stateMutability": "nonpayable",
      "type": "function"
    },
    {
      "inputs": [
        {
          "internalType": "address",
          "name": "token",
          "type": "address"
        },
        {
          "internalType": "uint256",
          "name": "amount",
          "type": "uint256"
        }
      ],
      "name": "withdrawToken",
      "outputs": [],
      "stateMutability": "nonpayable",
      "type": "function"
    }
  ],
  "bytecode": "0x6080806040523461005e57600160008181558154336001600160a01b0319821681179093556001600160a01b0316907f8be0079c531659141344cd1fd0a4f28419497f9722a3daafe3b4186f6b6457e09080a3611b4090816100648239f35b600080fdfe6080604052600436101561001257600080fd5b60003560e01c8063088b0d7514611332578063552e4e84146112fc578063566a3c7c146112bc5780636b440de214611267578063715018a61461120a57806382c0ab21146111d55780638da5cb5b146111ac5780639e281a98146110e4578063c69207a314610ffa578063e086e5ec14610fb6578063f0a40393146102a8578063f1c6bdf81461027f578063f2fde38b146101bb5763f9468713146100b657600080fd5b346101b65760203660031901126101b65760043567ffffffffffffffff81116101b657366023820112156101b6576101136020610100610180933690602481600401359101611644565b8160405193828580945193849201611542565b810160038152030190206101268161149c565b9060018060a01b0380600183015416918160028201541691806003830154169060048301549060058401541660068401549160078501549360ff6009600888015497015416966040519a8b9a610140808d528c0190611565565b9860208b015260408a01526060890152608088015260a087015260c086015260e085015261010084015215156101208301520390f35b600080fd5b346101b65760203660031901126101b6576101d46113bf565b6101dc61168b565b6001600160a01b0390811690811561022b57600154826001600160601b0360a01b821617600155167f8be0079c531659141344cd1fd0a4f28419497f9722a3daafe3b4186f6b6457e0600080a3005b60405162461bcd60e51b815260206004820152602660248201527f4f776e61626c653a206e6577206f776e657220697320746865207a65726f206160448201526564647265737360d01b6064820152608490fd5b346101b65760003660031901126101b6576002546040516001600160a01b039091168152602090f35b346101b65760e03660031901126101b65760043567ffffffffffffffff81116101b6576102d9903690600401611616565b6102e16113d5565b6064356001600160a01b03811681036101b6576084356001600160a01b03811681036101b657600260005414610f715760026000558315610f37576040518486823760038186019081528190036020019020600101546001600160a01b0316610ef2576001600160a01b038316731c7d4b196cb0c7b01d743fbc6116a902379c7238148015610ecc575b15610e875760443515610e49576001600160a01b03821615610e04576001600160a01b03811615610dbf5760a43515610d7a576002546001600160a01b031615610d35576040516103bb81611425565b6103c6368688611644565b81523360208201526001600160a01b038381166040808401919091528582166060840152604435608084015290831660a083015260a43560c0830152600060e08301819052610100830181905261012083015251858782376020818781016003815203019020815180519067ffffffffffffffff8211610a4e576104548261044e85546113eb565b856116e3565b602090601f8311600114610cc55791806101209492600994600092610cba575b50508160011b916000199060031b1c19161781555b6001810160018060a01b03602086015116906001600160601b0360a01b91828254161790556002820160018060a01b03604087015116828254161790556003820160018060a01b036060870151168282541617905560808501516004830155600582019060018060a01b0360a0870151169082541617905560c0840151600682015560e08401516007820155610100840151600882015501910151151560ff801983541691161790556040518486823760008582019081528190039020604080516001600160a01b03868116825260443560208301529384169181019190915260a4356060820152919092169133917f1972dd5828c90d9d8ad8f12419f78d57c2ef63f450be27e05280d4bada42425190608090a46040516323b872dd60e01b8152336004820152306024820152604480359082015260208160648160006001600160a01b0387165af1908115610a9857600091610c9b575b5015610c565760405163095ea7b360e01b815273c532a74256d3db42d0bf7a0400fefdbad7694008600482015260448035602483015260209082908160006001600160a01b0387165af1908115610a9857600091610c37575b5015610c005760405161064d81611442565b6002815260403660208301376001600160a01b03821661066c8261174f565b5273da1fe1db9b04a810cbb214a294667833e4c8d8f761068b8261175c565b5260405163d06ca61f60e01b8152604435600482015260406024820152600081806106b960448201866117f8565b038173c532a74256d3db42d0bf7a0400fefdbad76940085afa9081610be5575b50610b605750604051906106ec8261145e565b6003825260603660208401376001600160a01b031661070a8261174f565b5273fff9976782d46cc05630d1f6ebab18b2324d6b146107298261175c565b5273da1fe1db9b04a810cbb214a294667833e4c8d8f76107488261176c565b5261012c42014211610b2757600061078291604051809381926338ed173960e01b835261012c420190309060c43560443560048701611835565b03818373c532a74256d3db42d0bf7a0400fefdbad76940085af1908115610a9857600091610b3d575b505b80519081600019810111610b2757805160001983011015610b11576020916000190160051b0101519081600760405183868237602081858101600381520301902001556040518184823780828101600081520390207f3e3806ccf20061002b91d4f4083a8ac93b060d2dd54af8a42400fe0e713b2ea66020604051858152a2610837368285611644565b5060405163095ea7b360e01b815273eb2a0b7aaadd23851c08b963c3f4fbe00b897c04600482015260248101839052602081604481600073da1fe1db9b04a810cbb214a294667833e4c8d8f75af1908115610a9857600091610ae2575b5015610aa45760025460405163206d3a2d60e21b815262015b3260048201526001600160a01b0390911660248201526044810183905292602084606481600073eb2a0b7aaadd23851c08b963c3f4fbe00b897c045af1938415610a9857600094610a64575b508360086040518484823760208186810160038152030190200155836000526004602052604060002067ffffffffffffffff8311610a4e576109458361093f83546113eb565b836116e3565b6000601f84116001146109c2579183917f79797b078516029af81f4b555a8e8090178c741d1853adfd7b87ddff4ef8493f946020946000916109b7575b508360011b906000198560031b1c19161790555b81604051928392833781016000815203902092604051908152a36001600055005b905082013588610982565b601f198416908260005260206000209160005b818110610a365750918593917f79797b078516029af81f4b555a8e8090178c741d1853adfd7b87ddff4ef8493f966020969410610a1c575b5050600183811b019055610996565b830135600019600386901b60f8161c191690558780610a0d565b919260206001819286890135815501940192016109d5565b634e487b7160e01b600052604160045260246000fd5b9093506020813d602011610a90575b81610a806020938361147a565b810103126101b6575192846108f9565b3d9150610a73565b6040513d6000823e3d90fd5b60405162461bcd60e51b8152602060048201526016602482015275109c9a5919d948185c1c1c9bdd985b0819985a5b195960521b6044820152606490fd5b610b04915060203d602011610b0a575b610afc818361147a565b810190611737565b84610894565b503d610af2565b634e487b7160e01b600052603260045260246000fd5b634e487b7160e01b600052601160045260246000fd5b610b5a91503d806000833e610b52818361147a565b81019061177c565b836107ab565b905061012c42014211610b27576000610b9b91604051809381926338ed173960e01b835261012c420190309060c43560443560048701611835565b03818373c532a74256d3db42d0bf7a0400fefdbad76940085af1908115610a9857600091610bca575b506107ad565b610bdf91503d806000833e610b52818361147a565b83610bc4565b610bf9903d806000833e610b52818361147a565b50856106d9565b60405162461bcd60e51b815260206004820152600f60248201526e105c1c1c9bdd985b0819985a5b1959608a1b6044820152606490fd5b610c50915060203d602011610b0a57610afc818361147a565b8461063b565b60405162461bcd60e51b815260206004820152601d60248201527f5061796d656e7420746f6b656e207472616e73666572206661696c65640000006044820152606490fd5b610cb4915060203d602011610b0a57610afc818361147a565b846105e2565b015190508b80610474565b908360005260206000209160005b601f1985168110610d1d575092610120949260019260099583601f19811610610d04575b505050811b018155610489565b015160001960f88460031b161c191690558b8080610cf7565b91926020600181928685015181550194019201610cd3565b60405162461bcd60e51b815260206004820152601960248201527f5061796d656e742070726f636573736f72206e6f7420736574000000000000006044820152606490fd5b60405162461bcd60e51b815260206004820152601860248201527f496e76616c69642066616e20746f6b656e20616d6f756e7400000000000000006044820152606490fd5b60405162461bcd60e51b815260206004820152601960248201527f496e76616c69642066616e20746f6b656e2061646472657373000000000000006044820152606490fd5b60405162461bcd60e51b815260206004820152601860248201527f496e76616c6964206d65726368616e74206164647265737300000000000000006044820152606490fd5b60405162461bcd60e51b8152602060048201526016602482015275125b9d985b1a59081c185e5b595b9d08185b5bdd5b9d60521b6044820152606490fd5b60405162461bcd60e51b815260206004820152601960248201527f556e737570706f72746564207061796d656e7420746f6b656e000000000000006044820152606490fd5b506001600160a01b038316737169d38820dfd117c3fa1f22a697dba58d90ba061461036b565b60405162461bcd60e51b815260206004820152601960248201527f5061796d656e7420494420616c726561647920657869737473000000000000006044820152606490fd5b60405162461bcd60e51b8152602060048201526012602482015271125b9d985b1a59081c185e5b595b9d08125160721b6044820152606490fd5b60405162461bcd60e51b815260206004820152601f60248201527f5265656e7472616e637947756172643a207265656e7472616e742063616c6c006044820152606490fd5b346101b65760003660031901126101b657610fcf61168b565b600080808060018060a01b03600154164790828215610ff1575bf115610a9857005b506108fc610fe9565b346101b65760203660031901126101b65760043567ffffffffffffffff81116101b65760206110306110e0923690600401611616565b919061103a611a06565b508260405193849283378101600381520301902060ff60096040519261105f84611425565b6110688161149c565b845260018060a01b038060018301541660208601528060028301541660408601528060038301541660608601526004820154608086015260058201541660a0850152600681015460c0850152600781015460e0850152600881015461010085015201541615156101208201526040519182918261158a565b0390f35b346101b65760403660031901126101b6576110fd6113bf565b61110561168b565b60015460405163a9059cbb60e01b81526001600160a01b03918216600482015260248035908201529160209183916044918391600091165af1908115610a985760009161118e575b501561115557005b60405162461bcd60e51b815260206004820152601160248201527015da5d1a191c985dd85b0819985a5b1959607a1b6044820152606490fd5b6111a6915060203d8111610b0a57610afc818361147a565b8161114d565b346101b65760003660031901126101b6576001546040516001600160a01b039091168152602090f35b346101b65760403660031901126101b65760406111fc6111f36113bf565b6024359061186e565b825191825215156020820152f35b346101b65760003660031901126101b65761122361168b565b600180546001600160a01b031981169091556000906001600160a01b03167f8be0079c531659141344cd1fd0a4f28419497f9722a3daafe3b4186f6b6457e08280a3005b346101b65760203660031901126101b657611280611a06565b5060043560005260046020526110e06112a16020610100604060002061149c565b8101600381520301902060ff60096040519261105f84611425565b346101b65760203660031901126101b65760043560005260046020526110e06112e8604060002061149c565b604051918291602083526020830190611565565b346101b65760403660031901126101b657602061132861131a6113bf565b6113226113d5565b90611a53565b6040519015158152f35b346101b65760203660031901126101b65761134b6113bf565b61135361168b565b6001600160a01b0316801561137a576001600160601b0360a01b6002541617600255600080f35b60405162461bcd60e51b815260206004820152601960248201527f496e76616c6964207061796d656e742070726f636573736f72000000000000006044820152606490fd5b600435906001600160a01b03821682036101b657565b602435906001600160a01b03821682036101b657565b90600182811c9216801561141b575b602083101461140557565b634e487b7160e01b600052602260045260246000fd5b91607f16916113fa565b610140810190811067ffffffffffffffff821117610a4e57604052565b6060810190811067ffffffffffffffff821117610a4e57604052565b6080810190811067ffffffffffffffff821117610a4e57604052565b90601f8019910116810190811067ffffffffffffffff821117610a4e57604052565b90604051918260008254926114b0846113eb565b90818452600194858116908160001461151f57506001146114dc575b50506114da9250038361147a565b565b9093915060005260209081600020936000915b8183106115075750506114da935082010138806114cc565b855488840185015294850194879450918301916114ef565b9150506114da94506020925060ff191682840152151560051b82010138806114cc565b60005b8381106115555750506000910152565b8181015183820152602001611545565b9060209161157e81518092818552858086019101611542565b601f01601f1916010190565b6020815281516115a861014091826020850152610160840190611565565b9260018060a01b03806020830151166040850152806040830151166060850152806060830151166080850152608082015160a085015260a08201511660c084015260c081015160e084015260e081015161010090818501528101519061012091828501520151151591015290565b9181601f840112156101b65782359167ffffffffffffffff83116101b657602083818601950101116101b657565b92919267ffffffffffffffff8211610a4e576040519161166e601f8201601f19166020018461147a565b8294818452818301116101b6578281602093846000960137010152565b6001546001600160a01b0316330361169f57565b606460405162461bcd60e51b815260206004820152602060248201527f4f776e61626c653a2063616c6c6572206973206e6f7420746865206f776e65726044820152fd5b90601f81116116f157505050565b600091825260208220906020601f850160051c8301941061172d575b601f0160051c01915b82811061172257505050565b818155600101611716565b909250829061170d565b908160209103126101b6575180151581036101b65790565b805115610b115760200190565b805160011015610b115760400190565b805160021015610b115760600190565b9060209081838203126101b657825167ffffffffffffffff938482116101b6570181601f820112156101b6578051938411610a4e578360051b90604051946117c68584018761147a565b855283808601928201019283116101b6578301905b8282106117e9575050505090565b815181529083019083016117db565b90815180825260208080930193019160005b828110611818575050505090565b83516001600160a01b03168552938101939281019260010161180a565b919260809361185a92979695978452602084015260a0604084015260a08301906117f8565b6001600160a01b0390951660608201520152565b604080516118ee94939261188182611442565b60028252823660208401376118958261174f565b6001600160a01b039091169081905273da1fe1db9b04a810cbb214a294667833e4c8d8f7806118c38461175c565b528351946307c0329d60e21b808752816004880152856024880152866000998a9660448301906117f8565b0392858873c532a74256d3db42d0bf7a0400fefdbad76940089581875afa809887996119ea575b506119d5578661198b979850519461192c8661145e565b6003865260603660208801376119418661174f565b5273fff9976782d46cc05630d1f6ebab18b2324d6b146119608661175c565b5261196a8561176c565b528651958694859384938452600484015288602484015260448301906117f8565b03915afa9182156119cc5750836119aa9394926119b1575b505061174f565b5190600190565b6119c592503d8091833e610b52818361147a565b38806119a3565b513d85823e3d90fd5b505050505050506119e59061174f565b519190565b6119ff9199503d8089833e610b52818361147a565b9738611915565b60405190611a1382611425565b81606081526101206000918260208201528260408201528260608201528260808201528260a08201528260c08201528260e0820152826101008201520152565b604051611ac092600092611a6683611442565b600283526040366020850137611a7b8361174f565b6001600160a01b039182169052611a918361175c565b911690526040518093819263d06ca61f60e01b8352620f424060048401526040602484015260448301906117f8565b038173c532a74256d3db42d0bf7a0400fefdbad76940085afa9081611aef575b50611aea57600090565b600190565b611b03903d806000833e610b52818361147a565b5038611ae056fea2646970667358221220fd01552aafe5c63cb8c27335ab23359ad370ec717105f163e36180a2b86c7a5364736f6c63430008130033",
  "linkReferences": {},
  "deployedLinkReferences": {}
}